{
  "contractName": "PredictionPREWITHDRAWAL",
  "abi": [
    {
      "inputs": [],
      "stateMutability": "nonpayable",
      "type": "constructor"
    },
    {
      "anonymous": false,
      "inputs": [
        {
          "indexed": false,
          "internalType": "uint256",
          "name": "id",
          "type": "uint256"
        },
        {
          "indexed": false,
          "internalType": "uint256",
          "name": "totalUserNumber",
          "type": "uint256"
        },
        {
          "indexed": false,
          "internalType": "uint256",
          "name": "totalBalance",
          "type": "uint256"
        }
      ],
      "name": "PredictionClosed",
      "type": "event"
    },
    {
      "anonymous": false,
      "inputs": [
        {
          "indexed": false,
          "internalType": "address",
          "name": "predictor",
          "type": "address"
        },
        {
          "indexed": false,
          "internalType": "uint256",
          "name": "id",
          "type": "uint256"
        },
        {
          "indexed": false,
          "internalType": "uint256",
          "name": "predictionValue",
          "type": "uint256"
        },
        {
          "indexed": false,
          "internalType": "uint256",
          "name": "predictionTotalValue",
          "type": "uint256"
        },
        {
          "indexed": false,
          "internalType": "uint256",
          "name": "predictionsMade",
          "type": "uint256"
        },
        {
          "indexed": false,
          "internalType": "uint256",
          "name": "totalPredictionVolume",
          "type": "uint256"
        }
      ],
      "name": "PredictionMade",
      "type": "event"
    },
    {
      "anonymous": false,
      "inputs": [
        {
          "indexed": false,
          "internalType": "string",
          "name": "phrase",
          "type": "string"
        },
        {
          "indexed": false,
          "internalType": "uint256",
          "name": "id",
          "type": "uint256"
        }
      ],
      "name": "PredictionMarketActive",
      "type": "event"
    },
    {
      "anonymous": false,
      "inputs": [
        {
          "indexed": false,
          "internalType": "uint256",
          "name": "id",
          "type": "uint256"
        },
        {
          "indexed": false,
          "internalType": "uint256",
          "name": "totalUserNumber",
          "type": "uint256"
        },
        {
          "indexed": false,
          "internalType": "uint256",
          "name": "totalBalance",
          "type": "uint256"
        },
        {
          "indexed": false,
          "internalType": "enum PredictionPREWITHDRAWAL.Settlement",
          "name": "Settlement",
          "type": "uint8"
        }
      ],
      "name": "PredictionSettled",
      "type": "event"
    },
    {
      "inputs": [],
      "name": "admin",
      "outputs": [
        {
          "internalType": "address payable",
          "name": "",
          "type": "address"
        }
      ],
      "stateMutability": "view",
      "type": "function"
    },
    {
      "inputs": [],
      "name": "minPredictionValue",
      "outputs": [
        {
          "internalType": "uint256",
          "name": "",
          "type": "uint256"
        }
      ],
      "stateMutability": "view",
      "type": "function"
    },
    {
      "inputs": [],
      "name": "predictionMarketFee",
      "outputs": [
        {
          "internalType": "uint256",
          "name": "",
          "type": "uint256"
        }
      ],
      "stateMutability": "view",
      "type": "function"
    },
    {
      "inputs": [
        {
          "internalType": "uint256",
          "name": "",
          "type": "uint256"
        }
      ],
      "name": "predictions",
      "outputs": [
        {
          "internalType": "string",
          "name": "predictionPhrase",
          "type": "string"
        },
        {
          "internalType": "uint256",
          "name": "id",
          "type": "uint256"
        },
        {
          "internalType": "uint256",
          "name": "startBlock",
          "type": "uint256"
        },
        {
          "internalType": "uint256",
          "name": "endBlock",
          "type": "uint256"
        },
        {
          "internalType": "uint256",
          "name": "yesUserNumber",
          "type": "uint256"
        },
        {
          "internalType": "uint256",
          "name": "noUserNumber",
          "type": "uint256"
        },
        {
          "internalType": "uint256",
          "name": "totalUserNumber",
          "type": "uint256"
        },
        {
          "internalType": "uint256",
          "name": "yesBalance",
          "type": "uint256"
        },
        {
          "internalType": "uint256",
          "name": "noBalance",
          "type": "uint256"
        },
        {
          "internalType": "uint256",
          "name": "totalBalance",
          "type": "uint256"
        },
        {
          "internalType": "enum PredictionPREWITHDRAWAL.Status",
          "name": "status",
          "type": "uint8"
        },
        {
          "internalType": "enum PredictionPREWITHDRAWAL.Settlement",
          "name": "settlement",
          "type": "uint8"
        }
      ],
      "stateMutability": "view",
      "type": "function"
    },
    {
      "inputs": [],
      "name": "totalActivePredictionMarkets",
      "outputs": [
        {
          "internalType": "uint256",
          "name": "_value",
          "type": "uint256"
        }
      ],
      "stateMutability": "view",
      "type": "function"
    },
    {
      "inputs": [],
      "name": "totalClosedPredictionMarkets",
      "outputs": [
        {
          "internalType": "uint256",
          "name": "_value",
          "type": "uint256"
        }
      ],
      "stateMutability": "view",
      "type": "function"
    },
    {
      "inputs": [],
      "name": "totalPredictionMarkets",
      "outputs": [
        {
          "internalType": "uint256",
          "name": "_value",
          "type": "uint256"
        }
      ],
      "stateMutability": "view",
      "type": "function"
    },
    {
      "inputs": [],
      "name": "totalPredictionVolume",
      "outputs": [
        {
          "internalType": "uint256",
          "name": "",
          "type": "uint256"
        }
      ],
      "stateMutability": "view",
      "type": "function"
    },
    {
      "inputs": [],
      "name": "totalSettledPredictionMarkets",
      "outputs": [
        {
          "internalType": "uint256",
          "name": "_value",
          "type": "uint256"
        }
      ],
      "stateMutability": "view",
      "type": "function"
    },
    {
      "inputs": [
        {
          "internalType": "uint256",
          "name": "",
          "type": "uint256"
        },
        {
          "internalType": "address",
          "name": "",
          "type": "address"
        }
      ],
      "name": "userPredictions",
      "outputs": [
        {
          "internalType": "address payable",
          "name": "predictor",
          "type": "address"
        },
        {
          "internalType": "uint256",
          "name": "predictionAmount",
          "type": "uint256"
        },
        {
          "internalType": "uint256",
          "name": "payoutAmount",
          "type": "uint256"
        },
        {
          "internalType": "bool",
          "name": "prediction",
          "type": "bool"
        },
        {
          "internalType": "bool",
          "name": "hasPredicted",
          "type": "bool"
        }
      ],
      "stateMutability": "view",
      "type": "function"
    },
    {
      "inputs": [
        {
          "internalType": "string",
          "name": "_predictionPhrase",
          "type": "string"
        },
        {
          "internalType": "uint256",
          "name": "_activeSeconds",
          "type": "uint256"
        }
      ],
      "name": "createPredictionMarket",
      "outputs": [],
      "stateMutability": "nonpayable",
      "type": "function"
    },
    {
      "inputs": [
        {
          "internalType": "uint256",
          "name": "_predictionID",
          "type": "uint256"
        },
        {
          "internalType": "bool",
          "name": "_prediction",
          "type": "bool"
        }
      ],
      "name": "makePrediction",
      "outputs": [],
      "stateMutability": "payable",
      "type": "function"
    },
    {
      "inputs": [
        {
          "internalType": "uint256",
          "name": "_predictionID",
          "type": "uint256"
        },
        {
          "internalType": "bool",
          "name": "_settlement",
          "type": "bool"
        }
      ],
      "name": "setllePrediction",
      "outputs": [],
      "stateMutability": "payable",
      "type": "function"
    },
    {
      "inputs": [
        {
          "internalType": "uint256",
          "name": "_predictionID",
          "type": "uint256"
        }
      ],
      "name": "closePrediction",
      "outputs": [],
      "stateMutability": "nonpayable",
      "type": "function"
    },
    {
      "inputs": [],
      "name": "fetchAllMarkets",
      "outputs": [
        {
          "components": [
            {
              "internalType": "string",
              "name": "predictionPhrase",
              "type": "string"
            },
            {
              "internalType": "uint256",
              "name": "id",
              "type": "uint256"
            },
            {
              "internalType": "uint256",
              "name": "startBlock",
              "type": "uint256"
            },
            {
              "internalType": "uint256",
              "name": "endBlock",
              "type": "uint256"
            },
            {
              "internalType": "uint256",
              "name": "yesUserNumber",
              "type": "uint256"
            },
            {
              "internalType": "uint256",
              "name": "noUserNumber",
              "type": "uint256"
            },
            {
              "internalType": "uint256",
              "name": "totalUserNumber",
              "type": "uint256"
            },
            {
              "internalType": "uint256",
              "name": "yesBalance",
              "type": "uint256"
            },
            {
              "internalType": "uint256",
              "name": "noBalance",
              "type": "uint256"
            },
            {
              "internalType": "uint256",
              "name": "totalBalance",
              "type": "uint256"
            },
            {
              "internalType": "address[]",
              "name": "yesAddresses",
              "type": "address[]"
            },
            {
              "internalType": "address[]",
              "name": "noAddresses",
              "type": "address[]"
            },
            {
              "internalType": "enum PredictionPREWITHDRAWAL.Status",
              "name": "status",
              "type": "uint8"
            },
            {
              "internalType": "enum PredictionPREWITHDRAWAL.Settlement",
              "name": "settlement",
              "type": "uint8"
            }
          ],
          "internalType": "struct PredictionPREWITHDRAWAL.PredictionData[]",
          "name": "",
          "type": "tuple[]"
        }
      ],
      "stateMutability": "view",
      "type": "function"
    },
    {
      "inputs": [],
      "name": "fetchAllActiveMarkets",
      "outputs": [
        {
          "components": [
            {
              "internalType": "string",
              "name": "predictionPhrase",
              "type": "string"
            },
            {
              "internalType": "uint256",
              "name": "id",
              "type": "uint256"
            },
            {
              "internalType": "uint256",
              "name": "startBlock",
              "type": "uint256"
            },
            {
              "internalType": "uint256",
              "name": "endBlock",
              "type": "uint256"
            },
            {
              "internalType": "uint256",
              "name": "yesUserNumber",
              "type": "uint256"
            },
            {
              "internalType": "uint256",
              "name": "noUserNumber",
              "type": "uint256"
            },
            {
              "internalType": "uint256",
              "name": "totalUserNumber",
              "type": "uint256"
            },
            {
              "internalType": "uint256",
              "name": "yesBalance",
              "type": "uint256"
            },
            {
              "internalType": "uint256",
              "name": "noBalance",
              "type": "uint256"
            },
            {
              "internalType": "uint256",
              "name": "totalBalance",
              "type": "uint256"
            },
            {
              "internalType": "address[]",
              "name": "yesAddresses",
              "type": "address[]"
            },
            {
              "internalType": "address[]",
              "name": "noAddresses",
              "type": "address[]"
            },
            {
              "internalType": "enum PredictionPREWITHDRAWAL.Status",
              "name": "status",
              "type": "uint8"
            },
            {
              "internalType": "enum PredictionPREWITHDRAWAL.Settlement",
              "name": "settlement",
              "type": "uint8"
            }
          ],
          "internalType": "struct PredictionPREWITHDRAWAL.PredictionData[]",
          "name": "",
          "type": "tuple[]"
        }
      ],
      "stateMutability": "view",
      "type": "function"
    },
    {
      "inputs": [],
      "name": "fetchAllClosedMarkets",
      "outputs": [
        {
          "components": [
            {
              "internalType": "string",
              "name": "predictionPhrase",
              "type": "string"
            },
            {
              "internalType": "uint256",
              "name": "id",
              "type": "uint256"
            },
            {
              "internalType": "uint256",
              "name": "startBlock",
              "type": "uint256"
            },
            {
              "internalType": "uint256",
              "name": "endBlock",
              "type": "uint256"
            },
            {
              "internalType": "uint256",
              "name": "yesUserNumber",
              "type": "uint256"
            },
            {
              "internalType": "uint256",
              "name": "noUserNumber",
              "type": "uint256"
            },
            {
              "internalType": "uint256",
              "name": "totalUserNumber",
              "type": "uint256"
            },
            {
              "internalType": "uint256",
              "name": "yesBalance",
              "type": "uint256"
            },
            {
              "internalType": "uint256",
              "name": "noBalance",
              "type": "uint256"
            },
            {
              "internalType": "uint256",
              "name": "totalBalance",
              "type": "uint256"
            },
            {
              "internalType": "address[]",
              "name": "yesAddresses",
              "type": "address[]"
            },
            {
              "internalType": "address[]",
              "name": "noAddresses",
              "type": "address[]"
            },
            {
              "internalType": "enum PredictionPREWITHDRAWAL.Status",
              "name": "status",
              "type": "uint8"
            },
            {
              "internalType": "enum PredictionPREWITHDRAWAL.Settlement",
              "name": "settlement",
              "type": "uint8"
            }
          ],
          "internalType": "struct PredictionPREWITHDRAWAL.PredictionData[]",
          "name": "",
          "type": "tuple[]"
        }
      ],
      "stateMutability": "view",
      "type": "function"
    },
    {
      "inputs": [],
      "name": "fetchAllSettledMarkets",
      "outputs": [
        {
          "components": [
            {
              "internalType": "string",
              "name": "predictionPhrase",
              "type": "string"
            },
            {
              "internalType": "uint256",
              "name": "id",
              "type": "uint256"
            },
            {
              "internalType": "uint256",
              "name": "startBlock",
              "type": "uint256"
            },
            {
              "internalType": "uint256",
              "name": "endBlock",
              "type": "uint256"
            },
            {
              "internalType": "uint256",
              "name": "yesUserNumber",
              "type": "uint256"
            },
            {
              "internalType": "uint256",
              "name": "noUserNumber",
              "type": "uint256"
            },
            {
              "internalType": "uint256",
              "name": "totalUserNumber",
              "type": "uint256"
            },
            {
              "internalType": "uint256",
              "name": "yesBalance",
              "type": "uint256"
            },
            {
              "internalType": "uint256",
              "name": "noBalance",
              "type": "uint256"
            },
            {
              "internalType": "uint256",
              "name": "totalBalance",
              "type": "uint256"
            },
            {
              "internalType": "address[]",
              "name": "yesAddresses",
              "type": "address[]"
            },
            {
              "internalType": "address[]",
              "name": "noAddresses",
              "type": "address[]"
            },
            {
              "internalType": "enum PredictionPREWITHDRAWAL.Status",
              "name": "status",
              "type": "uint8"
            },
            {
              "internalType": "enum PredictionPREWITHDRAWAL.Settlement",
              "name": "settlement",
              "type": "uint8"
            }
          ],
          "internalType": "struct PredictionPREWITHDRAWAL.PredictionData[]",
          "name": "",
          "type": "tuple[]"
        }
      ],
      "stateMutability": "view",
      "type": "function"
    },
    {
      "inputs": [
        {
          "internalType": "address",
          "name": "_newAdmin",
          "type": "address"
        }
      ],
      "name": "updateAdmin",
      "outputs": [
        {
          "internalType": "bool",
          "name": "",
          "type": "bool"
        }
      ],
      "stateMutability": "nonpayable",
      "type": "function"
    },
    {
      "inputs": [
        {
          "internalType": "uint256",
          "name": "_newPredictionMarketFee",
          "type": "uint256"
        }
      ],
      "name": "updatePredictionMarketFee",
      "outputs": [
        {
          "internalType": "bool",
          "name": "",
          "type": "bool"
        }
      ],
      "stateMutability": "nonpayable",
      "type": "function"
    }
  ],
  "bytecode": "0x608060405234801561001057600080fd5b50336000806101000a81548173ffffffffffffffffffffffffffffffffffffffff021916908373ffffffffffffffffffffffffffffffffffffffff16021790555060fa600581905550662386f26fc1000060068190555061401d806100766000396000f3fe60806040526004361061011e5760003560e01c8063b0d6f59c116100a0578063d566368211610064578063d5663682146103cb578063e2f273bd146103f6578063f851a44014610433578063f9b56fd91461045e578063f9c1717e146104895761011e565b8063b0d6f59c14610314578063ba3637fe14610330578063c64799901461035b578063d0fe577414610377578063d2c7b1d5146103a05761011e565b806367a3144a116100e757806367a3144a146102295780636b959fe114610254578063897871e31461027f5780638c79791e146102a857806398a57b1f146102d35761011e565b80624fbbb0146101235780630da11f201461016b57806320c72ab914610196578063355fcb33146101c15780635c054351146101ec575b600080fd5b34801561012f57600080fd5b5061014a60048036038101906101459190612f71565b6104b4565b6040516101629c9b9a999897969594939291906135fb565b60405180910390f35b34801561017757600080fd5b506101806105b6565b60405161018d91906137fc565b60405180910390f35b3480156101a257600080fd5b506101ab6105bc565b6040516101b8919061358e565b60405180910390f35b3480156101cd57600080fd5b506101d6610925565b6040516101e391906137fc565b60405180910390f35b3480156101f857600080fd5b50610213600480360381019061020e9190612f71565b61092b565b60405161022091906135b0565b60405180910390f35b34801561023557600080fd5b5061023e6109cc565b60405161024b919061358e565b60405180910390f35b34801561026057600080fd5b50610269610d9b565b60405161027691906137fc565b60405180910390f35b34801561028b57600080fd5b506102a660048036038101906102a19190612f71565b610da7565b005b3480156102b457600080fd5b506102bd610fd4565b6040516102ca91906137fc565b60405180910390f35b3480156102df57600080fd5b506102fa60048036038101906102f59190612f9e565b610fda565b60405161030b9594939291906134da565b60405180910390f35b61032e60048036038101906103299190612fde565b611057565b005b34801561033c57600080fd5b50610345611718565b60405161035291906137fc565b60405180910390f35b61037560048036038101906103709190612fde565b611724565b005b34801561038357600080fd5b5061039e60048036038101906103999190612f15565b612012565b005b3480156103ac57600080fd5b506103b56122c4565b6040516103c291906137fc565b60405180910390f35b3480156103d757600080fd5b506103e06122d0565b6040516103ed919061358e565b60405180910390f35b34801561040257600080fd5b5061041d60048036038101906104189190612ee8565b61269e565b60405161042a91906135b0565b60405180910390f35b34801561043f57600080fd5b50610448612778565b60405161045591906134bf565b60405180910390f35b34801561046a57600080fd5b5061047361279c565b60405161048091906137fc565b60405180910390f35b34801561049557600080fd5b5061049e6127a8565b6040516104ab919061358e565b60405180910390f35b60096020528060005260406000206000915090508060000180546104d790613b83565b80601f016020809104026020016040519081016040528092919081815260200182805461050390613b83565b80156105505780601f1061052557610100808354040283529160200191610550565b820191906000526020600020905b81548152906001019060200180831161053357829003601f168201915b50505050509080600101549080600201549080600301549080600401549080600501549080600601549080600701549080600801549080600901549080600c0160009054906101000a900460ff169080600c0160019054906101000a900460ff1690508c565b60055481565b606060006105ca6001612b76565b90506000808267ffffffffffffffff8111156105e9576105e8613d1a565b5b60405190808252806020026020018201604052801561062257816020015b61060f612c79565b8152602001906001900390816106075790505b5090506000600190505b83811161091b576000819050600060096000838152602001908152602001600020604051806101c001604052908160008201805461066990613b83565b80601f016020809104026020016040519081016040528092919081815260200182805461069590613b83565b80156106e25780601f106106b7576101008083540402835291602001916106e2565b820191906000526020600020905b8154815290600101906020018083116106c557829003601f168201915b50505050508152602001600182015481526020016002820154815260200160038201548152602001600482015481526020016005820154815260200160068201548152602001600782015481526020016008820154815260200160098201548152602001600a82018054806020026020016040519081016040528092919081815260200182805480156107ca57602002820191906000526020600020905b8160009054906101000a900473ffffffffffffffffffffffffffffffffffffffff1673ffffffffffffffffffffffffffffffffffffffff1681526020019060010190808311610780575b50505050508152602001600b820180548060200260200160405190810160405280929190818152602001828054801561085857602002820191906000526020600020905b8160009054906101000a900473ffffffffffffffffffffffffffffffffffffffff1673ffffffffffffffffffffffffffffffffffffffff168152602001906001019080831161080e575b50505050508152602001600c820160009054906101000a900460ff16600281111561088657610885613c8d565b5b600281111561089857610897613c8d565b5b8152602001600c820160019054906101000a900460ff1660028111156108c1576108c0613c8d565b5b60028111156108d3576108d2613c8d565b5b815250509050808486815181106108ed576108ec613ceb565b5b6020026020010181905250848061090390613be6565b9550505050808061091390613be6565b91505061062c565b5080935050505090565b60065481565b60008060009054906101000a900473ffffffffffffffffffffffffffffffffffffffff1673ffffffffffffffffffffffffffffffffffffffff163373ffffffffffffffffffffffffffffffffffffffff16146109bc576040517f08c379a00000000000000000000000000000000000000000000000000000000081526004016109b3906136fc565b60405180910390fd5b8160058190555060019050919050565b606060006109da6001612b76565b905060006109e86003612b76565b90506000808267ffffffffffffffff811115610a0757610a06613d1a565b5b604051908082528060200260200182016040528015610a4057816020015b610a2d612c79565b815260200190600190039081610a255790505b5090506000600190505b848111610d90576000819050600060016002811115610a6c57610a6b613c8d565b5b60096000848152602001908152602001600020600c0160009054906101000a900460ff166002811115610aa257610aa1613c8d565b5b1490508015610d7b57600060096000848152602001908152602001600020604051806101c0016040529081600082018054610adc90613b83565b80601f0160208091040260200160405190810160405280929190818152602001828054610b0890613b83565b8015610b555780601f10610b2a57610100808354040283529160200191610b55565b820191906000526020600020905b815481529060010190602001808311610b3857829003601f168201915b50505050508152602001600182015481526020016002820154815260200160038201548152602001600482015481526020016005820154815260200160068201548152602001600782015481526020016008820154815260200160098201548152602001600a8201805480602002602001604051908101604052809291908181526020018280548015610c3d57602002820191906000526020600020905b8160009054906101000a900473ffffffffffffffffffffffffffffffffffffffff1673ffffffffffffffffffffffffffffffffffffffff1681526020019060010190808311610bf3575b50505050508152602001600b8201805480602002602001604051908101604052809291908181526020018280548015610ccb57602002820191906000526020600020905b8160009054906101000a900473ffffffffffffffffffffffffffffffffffffffff1673ffffffffffffffffffffffffffffffffffffffff1681526020019060010190808311610c81575b50505050508152602001600c820160009054906101000a900460ff166002811115610cf957610cf8613c8d565b5b6002811115610d0b57610d0a613c8d565b5b8152602001600c820160019054906101000a900460ff166002811115610d3457610d33613c8d565b5b6002811115610d4657610d45613c8d565b5b81525050905080858781518110610d6057610d5f613ceb565b5b60200260200101819052508580610d7690613be6565b965050505b50508080610d8890613be6565b915050610a4a565b508094505050505090565b60028060000154905081565b60008054906101000a900473ffffffffffffffffffffffffffffffffffffffff1673ffffffffffffffffffffffffffffffffffffffff163373ffffffffffffffffffffffffffffffffffffffff1614610e35576040517f08c379a0000000000000000000000000000000000000000000000000000000008152600401610e2c906136fc565b60405180910390fd5b600081118015610e4e5750610e4a6001612b76565b8111155b610e8d576040517f08c379a0000000000000000000000000000000000000000000000000000000008152600401610e849061375c565b60405180910390fd5b60006002811115610ea157610ea0613c8d565b5b60096000838152602001908152602001600020600c0160009054906101000a900460ff166002811115610ed757610ed6613c8d565b5b14610f17576040517f08c379a0000000000000000000000000000000000000000000000000000000008152600401610f0e9061377c565b60405180910390fd5b600160096000838152602001908152602001600020600c0160006101000a81548160ff02191690836002811115610f5157610f50613c8d565b5b0217905550610f606002612b84565b610f6a6003612be0565b7f4a3e735ded174d015bbec19944ddf306c07f34a070f33ec1809d87e4e46b62378160096000848152602001908152602001600020600601546009600085815260200190815260200160002060090154604051610fc993929190613817565b60405180910390a150565b60075481565b6008602052816000526040600020602052806000526040600020600091509150508060000160009054906101000a900473ffffffffffffffffffffffffffffffffffffffff16908060010154908060020154908060030160009054906101000a900460ff16908060030160019054906101000a900460ff16905085565b60065434101561109c576040517f08c379a0000000000000000000000000000000000000000000000000000000008152600401611093906137bc565b60405180910390fd5b6000821180156110b557506110b16001612b76565b8211155b6110f4576040517f08c379a00000000000000000000000000000000000000000000000000000000081526004016110eb9061375c565b60405180910390fd5b6000600281111561110857611107613c8d565b5b60096000848152602001908152602001600020600c0160009054906101000a900460ff16600281111561113e5761113d613c8d565b5b1461117e576040517f08c379a0000000000000000000000000000000000000000000000000000000008152600401611175906137dc565b60405180910390fd5b60006008600084815260200190815260200160002060003373ffffffffffffffffffffffffffffffffffffffff1673ffffffffffffffffffffffffffffffffffffffff16815260200190815260200160002060030160019054906101000a900460ff1690508015611224576040517f08c379a000000000000000000000000000000000000000000000000000000000815260040161121b9061379c565b60405180910390fd5b81156114305760096000848152602001908152602001600020600401600081548092919061125190613be6565b91905055503460096000858152602001908152602001600020600701600082825461127c9190613988565b9250508190555060096000848152602001908152602001600020600a01339080600181540180825580915050600190039060005260206000200160009091909190916101000a81548173ffffffffffffffffffffffffffffffffffffffff021916908373ffffffffffffffffffffffffffffffffffffffff1602179055506040518060a001604052803373ffffffffffffffffffffffffffffffffffffffff168152602001348152602001600081526020018315158152602001600115158152506008600085815260200190815260200160002060003373ffffffffffffffffffffffffffffffffffffffff1673ffffffffffffffffffffffffffffffffffffffff16815260200190815260200160002060008201518160000160006101000a81548173ffffffffffffffffffffffffffffffffffffffff021916908373ffffffffffffffffffffffffffffffffffffffff160217905550602082015181600101556040820151816002015560608201518160030160006101000a81548160ff02191690831515021790555060808201518160030160016101000a81548160ff021916908315150217905550905050611632565b60096000848152602001908152602001600020600501600081548092919061145790613be6565b9190505550346009600085815260200190815260200160002060080160008282546114829190613988565b9250508190555060096000848152602001908152602001600020600b01339080600181540180825580915050600190039060005260206000200160009091909190916101000a81548173ffffffffffffffffffffffffffffffffffffffff021916908373ffffffffffffffffffffffffffffffffffffffff1602179055506040518060a001604052803373ffffffffffffffffffffffffffffffffffffffff168152602001348152602001600081526020018315158152602001600115158152506008600085815260200190815260200160002060003373ffffffffffffffffffffffffffffffffffffffff1673ffffffffffffffffffffffffffffffffffffffff16815260200190815260200160002060008201518160000160006101000a81548173ffffffffffffffffffffffffffffffffffffffff021916908373ffffffffffffffffffffffffffffffffffffffff160217905550602082015181600101556040820151816002015560608201518160030160006101000a81548160ff02191690831515021790555060808201518160030160016101000a81548160ff0219169083151502179055509050505b346009600085815260200190815260200160002060090160008282546116589190613988565b9250508190555034600760008282546116719190613988565b9250508190555060096000848152602001908152602001600020600601600081548092919061169f90613be6565b91905055507ff65f7034a12cc6c6d06f601377ca835ec29d13f0f16c2e3b31a14bf5a6b7e5263384346009600088815260200190815260200160002060090154600960008981526020019081526020016000206006015460075460405161170b9695949392919061352d565b60405180910390a1505050565b60048060000154905081565b60008054906101000a900473ffffffffffffffffffffffffffffffffffffffff1673ffffffffffffffffffffffffffffffffffffffff163373ffffffffffffffffffffffffffffffffffffffff16146117b2576040517f08c379a00000000000000000000000000000000000000000000000000000000081526004016117a9906136fc565b60405180910390fd5b600160028111156117c6576117c5613c8d565b5b60096000848152602001908152602001600020600c0160009054906101000a900460ff1660028111156117fc576117fb613c8d565b5b1461183c576040517f08c379a0000000000000000000000000000000000000000000000000000000008152600401611833906136dc565b60405180910390fd5b60008211801561185557506118516001612b76565b8211155b611894576040517f08c379a000000000000000000000000000000000000000000000000000000000815260040161188b9061375c565b60405180910390fd5b600060096000848152602001908152602001600020600901549050478111156118f2576040517f08c379a00000000000000000000000000000000000000000000000000000000081526004016118e99061373c565b60405180910390fd5b600061190082600554612bf6565b9050808261190e9190613a69565b915060008054906101000a900473ffffffffffffffffffffffffffffffffffffffff1673ffffffffffffffffffffffffffffffffffffffff166108fc829081150290604051600060405180830381858888f19350505050158015611976573d6000803e3d6000fd5b508215611c5757600060096000868152602001908152602001600020600c0160016101000a81548160ff021916908360028111156119b7576119b6613c8d565b5b021790555060006009600086815260200190815260200160002060070154905060006009600087815260200190815260200160002060040154905060005b81811015611c4f57600060096000898152602001908152602001600020600a018281548110611a2757611a26613ceb565b5b9060005260206000200160009054906101000a900473ffffffffffffffffffffffffffffffffffffffff1690506000600860008a815260200190815260200160002060008373ffffffffffffffffffffffffffffffffffffffff1673ffffffffffffffffffffffffffffffffffffffff1681526020019081526020016000206040518060a00160405290816000820160009054906101000a900473ffffffffffffffffffffffffffffffffffffffff1673ffffffffffffffffffffffffffffffffffffffff1673ffffffffffffffffffffffffffffffffffffffff16815260200160018201548152602001600282015481526020016003820160009054906101000a900460ff161515151581526020016003820160019054906101000a900460ff16151515158152505090506000856127108360200151611b689190613a0f565b611b7291906139de565b90506000612710828a611b859190613a0f565b611b8f91906139de565b905080600860008d81526020019081526020016000206000856000015173ffffffffffffffffffffffffffffffffffffffff1673ffffffffffffffffffffffffffffffffffffffff16815260200190815260200160002060020181905550826000015173ffffffffffffffffffffffffffffffffffffffff166108fc829081150290604051600060405180830381858888f19350505050158015611c37573d6000803e3d6000fd5b50505050508080611c4790613be6565b9150506119f5565b505050611f2d565b600160096000868152602001908152602001600020600c0160016101000a81548160ff02191690836002811115611c9157611c90613c8d565b5b021790555060006009600086815260200190815260200160002060080154905060006009600087815260200190815260200160002060050154905060005b81811015611f2957600060096000898152602001908152602001600020600b018281548110611d0157611d00613ceb565b5b9060005260206000200160009054906101000a900473ffffffffffffffffffffffffffffffffffffffff1690506000600860008a815260200190815260200160002060008373ffffffffffffffffffffffffffffffffffffffff1673ffffffffffffffffffffffffffffffffffffffff1681526020019081526020016000206040518060a00160405290816000820160009054906101000a900473ffffffffffffffffffffffffffffffffffffffff1673ffffffffffffffffffffffffffffffffffffffff1673ffffffffffffffffffffffffffffffffffffffff16815260200160018201548152602001600282015481526020016003820160009054906101000a900460ff161515151581526020016003820160019054906101000a900460ff16151515158152505090506000856127108360200151611e429190613a0f565b611e4c91906139de565b90506000612710828a611e5f9190613a0f565b611e6991906139de565b905080600860008d81526020019081526020016000206000856000015173ffffffffffffffffffffffffffffffffffffffff1673ffffffffffffffffffffffffffffffffffffffff16815260200190815260200160002060020181905550826000015173ffffffffffffffffffffffffffffffffffffffff166108fc829081150290604051600060405180830381858888f19350505050158015611f11573d6000803e3d6000fd5b50505050508080611f2190613be6565b915050611ccf565b5050505b600260096000868152602001908152602001600020600c0160006101000a81548160ff02191690836002811115611f6757611f66613c8d565b5b0217905550611f766003612b84565b611f806004612be0565b7ffd9d3061bf0953e48f5daae7cccf06773195282d01730c4a782822bb24700c00846009600087815260200190815260200160002060060154600960008881526020019081526020016000206009015460096000898152602001908152602001600020600c0160019054906101000a900460ff16604051612004949392919061384e565b60405180910390a150505050565b60008054906101000a900473ffffffffffffffffffffffffffffffffffffffff1673ffffffffffffffffffffffffffffffffffffffff163373ffffffffffffffffffffffffffffffffffffffff16146120a0576040517f08c379a0000000000000000000000000000000000000000000000000000000008152600401612097906136fc565b60405180910390fd5b6120aa6001612be0565b6120b46002612be0565b60006120c06001612b76565b90506060604051806101c0016040528085815260200183815260200142815260200184426120ee9190613988565b81526020016000815260200160008152602001600081526020016000815260200160008152602001600081526020018281526020018281526020016000600281111561213d5761213c613c8d565b5b815260200160028081111561215557612154613c8d565b5b815250600960008481526020019081526020016000206000820151816000019080519060200190612187929190612d0c565b506020820151816001015560408201518160020155606082015181600301556080820151816004015560a0820151816005015560c0820151816006015560e082015181600701556101008201518160080155610120820151816009015561014082015181600a019080519060200190612201929190612d92565b5061016082015181600b01908051906020019061221f929190612d92565b5061018082015181600c0160006101000a81548160ff0219169083600281111561224c5761224b613c8d565b5b02179055506101a082015181600c0160016101000a81548160ff0219169083600281111561227d5761227c613c8d565b5b02179055509050507fc8b7b4904be00e7e66e02f25b9223456d0fd68d58b30bfdd0af0aad3449a3f2a84836040516122b69291906135cb565b60405180910390a150505050565b60038060000154905081565b606060006122de6001612b76565b905060006122ec6004612b76565b90506000808267ffffffffffffffff81111561230b5761230a613d1a565b5b60405190808252806020026020018201604052801561234457816020015b612331612c79565b8152602001906001900390816123295790505b5090506000600190505b848111612693576000819050600060028081111561236f5761236e613c8d565b5b60096000848152602001908152602001600020600c0160009054906101000a900460ff1660028111156123a5576123a4613c8d565b5b149050801561267e57600060096000848152602001908152602001600020604051806101c00160405290816000820180546123df90613b83565b80601f016020809104026020016040519081016040528092919081815260200182805461240b90613b83565b80156124585780601f1061242d57610100808354040283529160200191612458565b820191906000526020600020905b81548152906001019060200180831161243b57829003601f168201915b50505050508152602001600182015481526020016002820154815260200160038201548152602001600482015481526020016005820154815260200160068201548152602001600782015481526020016008820154815260200160098201548152602001600a820180548060200260200160405190810160405280929190818152602001828054801561254057602002820191906000526020600020905b8160009054906101000a900473ffffffffffffffffffffffffffffffffffffffff1673ffffffffffffffffffffffffffffffffffffffff16815260200190600101908083116124f6575b50505050508152602001600b82018054806020026020016040519081016040528092919081815260200182805480156125ce57602002820191906000526020600020905b8160009054906101000a900473ffffffffffffffffffffffffffffffffffffffff1673ffffffffffffffffffffffffffffffffffffffff1681526020019060010190808311612584575b50505050508152602001600c820160009054906101000a900460ff1660028111156125fc576125fb613c8d565b5b600281111561260e5761260d613c8d565b5b8152602001600c820160019054906101000a900460ff16600281111561263757612636613c8d565b5b600281111561264957612648613c8d565b5b8152505090508085878151811061266357612662613ceb565b5b6020026020010181905250858061267990613be6565b965050505b5050808061268b90613be6565b91505061234e565b508094505050505090565b60008060009054906101000a900473ffffffffffffffffffffffffffffffffffffffff1673ffffffffffffffffffffffffffffffffffffffff163373ffffffffffffffffffffffffffffffffffffffff161461272f576040517f08c379a0000000000000000000000000000000000000000000000000000000008152600401612726906136fc565b60405180910390fd5b816000806101000a81548173ffffffffffffffffffffffffffffffffffffffff021916908373ffffffffffffffffffffffffffffffffffffffff16021790555060019050919050565b60008054906101000a900473ffffffffffffffffffffffffffffffffffffffff1681565b60018060000154905081565b606060006127b66002612b76565b905060006127c46001612b76565b90506000808367ffffffffffffffff8111156127e3576127e2613d1a565b5b60405190808252806020026020018201604052801561281c57816020015b612809612c79565b8152602001906001900390816128015790505b5090506000600190505b838111612b6b576000819050600080600281111561284757612846613c8d565b5b60096000848152602001908152602001600020600c0160009054906101000a900460ff16600281111561287d5761287c613c8d565b5b1490508015612b5657600060096000848152602001908152602001600020604051806101c00160405290816000820180546128b790613b83565b80601f01602080910402602001604051908101604052809291908181526020018280546128e390613b83565b80156129305780601f1061290557610100808354040283529160200191612930565b820191906000526020600020905b81548152906001019060200180831161291357829003601f168201915b50505050508152602001600182015481526020016002820154815260200160038201548152602001600482015481526020016005820154815260200160068201548152602001600782015481526020016008820154815260200160098201548152602001600a8201805480602002602001604051908101604052809291908181526020018280548015612a1857602002820191906000526020600020905b8160009054906101000a900473ffffffffffffffffffffffffffffffffffffffff1673ffffffffffffffffffffffffffffffffffffffff16815260200190600101908083116129ce575b50505050508152602001600b8201805480602002602001604051908101604052809291908181526020018280548015612aa657602002820191906000526020600020905b8160009054906101000a900473ffffffffffffffffffffffffffffffffffffffff1673ffffffffffffffffffffffffffffffffffffffff1681526020019060010190808311612a5c575b50505050508152602001600c820160009054906101000a900460ff166002811115612ad457612ad3613c8d565b5b6002811115612ae657612ae5613c8d565b5b8152602001600c820160019054906101000a900460ff166002811115612b0f57612b0e613c8d565b5b6002811115612b2157612b20613c8d565b5b81525050905080858781518110612b3b57612b3a613ceb565b5b60200260200101819052508580612b5190613be6565b965050505b50508080612b6390613be6565b915050612826565b508094505050505090565b600081600001549050919050565b60008160000154905060008111612bd0576040517f08c379a0000000000000000000000000000000000000000000000000000000008152600401612bc7906136bc565b60405180910390fd5b6001810382600001819055505050565b6001816000016000828254019250508190555050565b6000826127108085612c0891906139de565b612c129190613a0f565b14612c52576040517f08c379a0000000000000000000000000000000000000000000000000000000008152600401612c499061371c565b60405180910390fd5b60006127108385612c639190613a0f565b612c6d91906139de565b90508091505092915050565b604051806101c0016040528060608152602001600081526020016000815260200160008152602001600081526020016000815260200160008152602001600081526020016000815260200160008152602001606081526020016060815260200160006002811115612ced57612cec613c8d565b5b815260200160006002811115612d0657612d05613c8d565b5b81525090565b828054612d1890613b83565b90600052602060002090601f016020900481019282612d3a5760008555612d81565b82601f10612d5357805160ff1916838001178555612d81565b82800160010185558215612d81579182015b82811115612d80578251825591602001919060010190612d65565b5b509050612d8e9190612e1c565b5090565b828054828255906000526020600020908101928215612e0b579160200282015b82811115612e0a5782518260006101000a81548173ffffffffffffffffffffffffffffffffffffffff021916908373ffffffffffffffffffffffffffffffffffffffff16021790555091602001919060010190612db2565b5b509050612e189190612e1c565b5090565b5b80821115612e35576000816000905550600101612e1d565b5090565b6000612e4c612e47846138b8565b613893565b905082815260208101848484011115612e6857612e67613d4e565b5b612e73848285613b41565b509392505050565b600081359050612e8a81613fa2565b92915050565b600081359050612e9f81613fb9565b92915050565b600082601f830112612eba57612eb9613d49565b5b8135612eca848260208601612e39565b91505092915050565b600081359050612ee281613fd0565b92915050565b600060208284031215612efe57612efd613d58565b5b6000612f0c84828501612e7b565b91505092915050565b60008060408385031215612f2c57612f2b613d58565b5b600083013567ffffffffffffffff811115612f4a57612f49613d53565b5b612f5685828601612ea5565b9250506020612f6785828601612ed3565b9150509250929050565b600060208284031215612f8757612f86613d58565b5b6000612f9584828501612ed3565b91505092915050565b60008060408385031215612fb557612fb4613d58565b5b6000612fc385828601612ed3565b9250506020612fd485828601612e7b565b9150509250929050565b60008060408385031215612ff557612ff4613d58565b5b600061300385828601612ed3565b925050602061301485828601612e90565b9150509250929050565b600061302a8383613059565b60208301905092915050565b60006130428383613365565b905092915050565b61305381613aaf565b82525050565b61306281613a9d565b82525050565b61307181613a9d565b82525050565b600061308282613909565b61308c8185613944565b9350613097836138e9565b8060005b838110156130c85781516130af888261301e565b97506130ba8361392a565b92505060018101905061309b565b5085935050505092915050565b60006130e082613914565b6130ea8185613955565b9350836020820285016130fc856138f9565b8060005b8581101561313857848403895281516131198582613036565b945061312483613937565b925060208a01995050600181019050613100565b50829750879550505050505092915050565b61315381613ac1565b82525050565b61316281613b1d565b82525050565b61317181613b1d565b82525050565b61318081613b2f565b82525050565b61318f81613b2f565b82525050565b60006131a08261391f565b6131aa8185613966565b93506131ba818560208601613b50565b6131c381613d5d565b840191505092915050565b60006131d98261391f565b6131e38185613977565b93506131f3818560208601613b50565b6131fc81613d5d565b840191505092915050565b6000613214601b83613977565b915061321f82613d6e565b602082019050919050565b6000613237601d83613977565b915061324282613d97565b602082019050919050565b600061325a601583613977565b915061326582613dc0565b602082019050919050565b600061327d600983613977565b915061328882613de9565b602082019050919050565b60006132a0602d83613977565b91506132ab82613e12565b604082019050919050565b60006132c3601683613977565b91506132ce82613e61565b602082019050919050565b60006132e6601d83613977565b91506132f182613e8a565b602082019050919050565b6000613309602683613977565b915061331482613eb3565b604082019050919050565b600061332c603283613977565b915061333782613f02565b604082019050919050565b600061334f601683613977565b915061335a82613f51565b602082019050919050565b60006101c08301600083015184820360008601526133838282613195565b915050602083015161339860208601826134a1565b5060408301516133ab60408601826134a1565b5060608301516133be60608601826134a1565b5060808301516133d160808601826134a1565b5060a08301516133e460a08601826134a1565b5060c08301516133f760c08601826134a1565b5060e083015161340a60e08601826134a1565b5061010083015161341f6101008601826134a1565b506101208301516134346101208601826134a1565b5061014083015184820361014086015261344e8282613077565b91505061016083015184820361016086015261346a8282613077565b915050610180830151613481610180860182613177565b506101a08301516134966101a0860182613159565b508091505092915050565b6134aa81613b13565b82525050565b6134b981613b13565b82525050565b60006020820190506134d4600083018461304a565b92915050565b600060a0820190506134ef600083018861304a565b6134fc60208301876134b0565b61350960408301866134b0565b613516606083018561314a565b613523608083018461314a565b9695505050505050565b600060c0820190506135426000830189613068565b61354f60208301886134b0565b61355c60408301876134b0565b61356960608301866134b0565b61357660808301856134b0565b61358360a08301846134b0565b979650505050505050565b600060208201905081810360008301526135a881846130d5565b905092915050565b60006020820190506135c5600083018461314a565b92915050565b600060408201905081810360008301526135e581856131ce565b90506135f460208301846134b0565b9392505050565b6000610180820190508181036000830152613616818f6131ce565b9050613625602083018e6134b0565b613632604083018d6134b0565b61363f606083018c6134b0565b61364c608083018b6134b0565b61365960a083018a6134b0565b61366660c08301896134b0565b61367360e08301886134b0565b6136816101008301876134b0565b61368f6101208301866134b0565b61369d610140830185613186565b6136ab610160830184613168565b9d9c50505050505050505050505050565b600060208201905081810360008301526136d581613207565b9050919050565b600060208201905081810360008301526136f58161322a565b9050919050565b600060208201905081810360008301526137158161324d565b9050919050565b6000602082019050818103600083015261373581613270565b9050919050565b6000602082019050818103600083015261375581613293565b9050919050565b60006020820190508181036000830152613775816132b6565b9050919050565b60006020820190508181036000830152613795816132d9565b9050919050565b600060208201905081810360008301526137b5816132fc565b9050919050565b600060208201905081810360008301526137d58161331f565b9050919050565b600060208201905081810360008301526137f581613342565b9050919050565b600060208201905061381160008301846134b0565b92915050565b600060608201905061382c60008301866134b0565b61383960208301856134b0565b61384660408301846134b0565b949350505050565b600060808201905061386360008301876134b0565b61387060208301866134b0565b61387d60408301856134b0565b61388a6060830184613168565b95945050505050565b600061389d6138ae565b90506138a98282613bb5565b919050565b6000604051905090565b600067ffffffffffffffff8211156138d3576138d2613d1a565b5b6138dc82613d5d565b9050602081019050919050565b6000819050602082019050919050565b6000819050602082019050919050565b600081519050919050565b600081519050919050565b600081519050919050565b6000602082019050919050565b6000602082019050919050565b600082825260208201905092915050565b600082825260208201905092915050565b600082825260208201905092915050565b600082825260208201905092915050565b600061399382613b13565b915061399e83613b13565b9250827fffffffffffffffffffffffffffffffffffffffffffffffffffffffffffffffff038211156139d3576139d2613c2f565b5b828201905092915050565b60006139e982613b13565b91506139f483613b13565b925082613a0457613a03613c5e565b5b828204905092915050565b6000613a1a82613b13565b9150613a2583613b13565b9250817fffffffffffffffffffffffffffffffffffffffffffffffffffffffffffffffff0483118215151615613a5e57613a5d613c2f565b5b828202905092915050565b6000613a7482613b13565b9150613a7f83613b13565b925082821015613a9257613a91613c2f565b5b828203905092915050565b6000613aa882613af3565b9050919050565b6000613aba82613af3565b9050919050565b60008115159050919050565b6000819050613adb82613f7a565b919050565b6000819050613aee82613f8e565b919050565b600073ffffffffffffffffffffffffffffffffffffffff82169050919050565b6000819050919050565b6000613b2882613acd565b9050919050565b6000613b3a82613ae0565b9050919050565b82818337600083830152505050565b60005b83811015613b6e578082015181840152602081019050613b53565b83811115613b7d576000848401525b50505050565b60006002820490506001821680613b9b57607f821691505b60208210811415613baf57613bae613cbc565b5b50919050565b613bbe82613d5d565b810181811067ffffffffffffffff82111715613bdd57613bdc613d1a565b5b80604052505050565b6000613bf182613b13565b91507fffffffffffffffffffffffffffffffffffffffffffffffffffffffffffffffff821415613c2457613c23613c2f565b5b600182019050919050565b7f4e487b7100000000000000000000000000000000000000000000000000000000600052601160045260246000fd5b7f4e487b7100000000000000000000000000000000000000000000000000000000600052601260045260246000fd5b7f4e487b7100000000000000000000000000000000000000000000000000000000600052602160045260246000fd5b7f4e487b7100000000000000000000000000000000000000000000000000000000600052602260045260246000fd5b7f4e487b7100000000000000000000000000000000000000000000000000000000600052603260045260246000fd5b7f4e487b7100000000000000000000000000000000000000000000000000000000600052604160045260246000fd5b600080fd5b600080fd5b600080fd5b600080fd5b6000601f19601f8301169050919050565b7f436f756e7465723a2064656372656d656e74206f766572666c6f770000000000600082015250565b7f70726564696374696f6e206d61726b6574206e6f7420636c6f7365642e000000600082015250565b7f796f75206d757374206265207468652061646d696e0000000000000000000000600082015250565b7f746f6f20736d616c6c0000000000000000000000000000000000000000000000600082015250565b7f74686520636f6e747261637420646f65736e2774206861766520656e6f75676860008201527f20666f72207061796f7574732e00000000000000000000000000000000000000602082015250565b7f696e76616c69642070726564696374696f6e2049442e00000000000000000000600082015250565b7f70726564696374696f6e206d61726b6574206e6f74204143544956452e000000600082015250565b7f796f75206861766520616c7265616479206d61646520796f757220707265646960008201527f6374696f6e2e0000000000000000000000000000000000000000000000000000602082015250565b7f6d7573742073656e6420612076616c75652067726561746572207468616e206d60008201527f696e50726564696374696f6e56616c75652e0000000000000000000000000000602082015250565b7f70726564696374696f6e206e6f74204143544956452e00000000000000000000600082015250565b60038110613f8b57613f8a613c8d565b5b50565b60038110613f9f57613f9e613c8d565b5b50565b613fab81613a9d565b8114613fb657600080fd5b50565b613fc281613ac1565b8114613fcd57600080fd5b50565b613fd981613b13565b8114613fe457600080fd5b5056fea26469706673582212202c7027eb4f1645856514853f3c351e729e41cb7f0013b2524d7cb8a63731509564736f6c63430008070033",
  "immutableReferences": {},
  "source": "// SPDX-License-Identifier: DO NOT COPY WITH OUT WRITTEN CONSENT.\r\n\r\n// issue with calc fee at times.\r\n\r\npragma solidity 0.8.7;\r\n\r\n\r\nimport \"@openzeppelin/contracts/utils/Counters.sol\";\r\n\r\n\r\ncontract PredictionPREWITHDRAWAL {\r\n    using Counters for Counters.Counter;\r\n\r\n\r\n    address payable public admin;\r\n\r\n    Counters.Counter public totalPredictionMarkets;\r\n    Counters.Counter public totalActivePredictionMarkets;\r\n    Counters.Counter public totalClosedPredictionMarkets;\r\n    Counters.Counter public totalSettledPredictionMarkets;\r\n\r\n    // basis points\r\n    uint256 public predictionMarketFee;\r\n    uint256 public minPredictionValue;\r\n\r\n    uint256 public totalPredictionVolume;\r\n\r\n    enum Status{\r\n        Active,\r\n        Closed,\r\n        Settled\r\n    }\r\n    enum Settlement{\r\n        Yes,\r\n        No,\r\n        Active\r\n    }\r\n\r\n    struct UserPrediction{\r\n        address payable predictor;\r\n        uint256 predictionAmount;\r\n        uint256 payoutAmount;\r\n        bool prediction;\r\n        bool hasPredicted;\r\n    }\r\n\r\n    struct PredictionData{\r\n        string predictionPhrase;\r\n        uint256 id;\r\n        uint256 startBlock;\r\n        uint256 endBlock;\r\n        uint256 yesUserNumber;\r\n        uint256 noUserNumber;\r\n        uint256 totalUserNumber;\r\n        uint256 yesBalance;\r\n        uint256 noBalance;\r\n        uint256 totalBalance;\r\n        address[] yesAddresses;\r\n        address[] noAddresses;\r\n        Status status;\r\n        Settlement settlement;\r\n    }\r\n\r\n    event PredictionMarketActive(\r\n        string phrase,\r\n        uint256 id\r\n    );\r\n\r\n    event PredictionMade(\r\n        address predictor,\r\n        uint256 id,\r\n        uint256 predictionValue,\r\n        uint256 predictionTotalValue,\r\n        uint256 predictionsMade,\r\n        uint256 totalPredictionVolume\r\n    );\r\n\r\n    event PredictionClosed(\r\n        uint256 id,\r\n        uint256 totalUserNumber,\r\n        uint256 totalBalance\r\n    );\r\n\r\n    event PredictionSettled(\r\n        uint256 id,\r\n        uint256 totalUserNumber,\r\n        uint256 totalBalance,\r\n        Settlement Settlement\r\n    );\r\n\r\n\r\n    //Prediction ID -> user address -> user prediction data set\r\n    mapping(uint256 => mapping(address => UserPrediction)) public userPredictions;\r\n\r\n    // Prediction ID -> prediction data\r\n    mapping(uint256 => PredictionData) public predictions;\r\n\r\n    constructor() {\r\n        admin = payable(msg.sender);\r\n        predictionMarketFee = 250;\r\n        minPredictionValue = 10000000000000000;\r\n    }\r\n\r\n    modifier onlyAdmin {\r\n        require(msg.sender == admin, \"you must be the admin\");\r\n        _;\r\n    }\r\n\r\n    function createPredictionMarket(string memory _predictionPhrase, uint256 _activeSeconds) public onlyAdmin {\r\n        // require(bytes32(_predictionPhrase) > 0, \"must enter vaid prediction phrase.\");\r\n        totalPredictionMarkets.increment();\r\n        totalActivePredictionMarkets.increment();\r\n        uint256 predictionMarketID = totalPredictionMarkets.current();\r\n        address[] memory emptyAdressList;\r\n\r\n        predictions[predictionMarketID] = PredictionData(\r\n                _predictionPhrase,\r\n                predictionMarketID, block.timestamp, block.timestamp + _activeSeconds,\r\n                0, 0, 0, 0, 0, 0, emptyAdressList, emptyAdressList, Status.Active, Settlement.Active\r\n            );\r\n        // create event\r\n        emit PredictionMarketActive(_predictionPhrase, predictionMarketID);\r\n    }\r\n\r\n    function makePrediction(uint256 _predictionID, bool _prediction) public payable {\r\n        require(msg.value >= minPredictionValue, \"must send a value greater than minPredictionValue.\");\r\n        require(_predictionID > 0 && _predictionID <= totalPredictionMarkets.current(), \"invalid prediction ID.\");\r\n        require(predictions[_predictionID].status == Status.Active, \"prediction not ACTIVE.\");\r\n        bool _userHasPredicted = userPredictions[_predictionID][msg.sender].hasPredicted;\r\n        require(!_userHasPredicted, \"you have already made your prediction.\");\r\n        if(_prediction) {\r\n            predictions[_predictionID].yesUserNumber++;\r\n            predictions[_predictionID].yesBalance += msg.value;\r\n            predictions[_predictionID].yesAddresses.push(msg.sender);\r\n            userPredictions[_predictionID][msg.sender] = UserPrediction(payable(msg.sender), msg.value, 0, _prediction, true);\r\n        } else {\r\n            predictions[_predictionID].noUserNumber++;\r\n            predictions[_predictionID].noBalance += msg.value;\r\n            predictions[_predictionID].noAddresses.push(msg.sender);\r\n            userPredictions[_predictionID][msg.sender] = UserPrediction(payable(msg.sender), msg.value, 0, _prediction, true);\r\n        }\r\n        predictions[_predictionID].totalBalance += msg.value;\r\n        totalPredictionVolume += msg.value;\r\n        predictions[_predictionID].totalUserNumber++;\r\n\r\n        emit PredictionMade(\r\n                msg.sender,\r\n                _predictionID,\r\n                msg.value,\r\n                predictions[_predictionID].totalBalance,\r\n                predictions[_predictionID].totalUserNumber,\r\n                totalPredictionVolume\r\n                );\r\n    }\r\n\r\n    function setllePrediction(uint256 _predictionID, bool _settlement) public payable onlyAdmin {\r\n        require(predictions[_predictionID].status == Status.Closed, \"prediction market not closed.\");\r\n        require(_predictionID > 0 && _predictionID <= totalPredictionMarkets.current(), \"invalid prediction ID.\");\r\n        uint256 _predictionBalance = predictions[_predictionID].totalBalance;\r\n        require(_predictionBalance <= (address(this).balance), \"the contract doesn't have enough for payouts.\");\r\n\r\n        uint256 _adminFee = calcFee(_predictionBalance, predictionMarketFee);\r\n        _predictionBalance -= _adminFee;\r\n        admin.transfer(_adminFee);\r\n        if(_settlement) {\r\n            predictions[_predictionID].settlement = Settlement.Yes;\r\n            uint256 endYesBalance = predictions[_predictionID].yesBalance;\r\n            uint256 _usersToPay = predictions[_predictionID].yesUserNumber;\r\n            for(uint256 i = 0; i < _usersToPay; i++) {\r\n                address _currentUser = predictions[_predictionID].yesAddresses[i];\r\n                UserPrediction memory _user = userPredictions[_predictionID][_currentUser];\r\n                uint256 _payoutBP = (_user.predictionAmount * 10000) / endYesBalance;\r\n                uint256 _payout = (_predictionBalance * _payoutBP) / 10000;\r\n\r\n                userPredictions[_predictionID][_user.predictor].payoutAmount = _payout;\r\n                _user.predictor.transfer(_payout);\r\n\r\n            }\r\n\r\n        } else {\r\n            predictions[_predictionID].settlement = Settlement.No;\r\n            uint256 endNoBalance = predictions[_predictionID].noBalance;\r\n            uint256 _usersToPay = predictions[_predictionID].noUserNumber;\r\n            for(uint256 i = 0; i < _usersToPay; i++) {\r\n                address _currentUser = predictions[_predictionID].noAddresses[i];\r\n                UserPrediction memory _user = userPredictions[_predictionID][_currentUser];\r\n                uint256 _payoutBP = (_user.predictionAmount * 10000) / endNoBalance;\r\n                uint256 _payout = (_predictionBalance * _payoutBP) / 10000;\r\n\r\n                userPredictions[_predictionID][_user.predictor].payoutAmount = _payout;\r\n                _user.predictor.transfer(_payout);\r\n                \r\n\r\n            }\r\n        }\r\n        predictions[_predictionID].status = Status.Settled;\r\n        totalClosedPredictionMarkets.decrement();\r\n        totalSettledPredictionMarkets.increment();\r\n        emit PredictionSettled(\r\n                _predictionID,\r\n                predictions[_predictionID].totalUserNumber,\r\n                predictions[_predictionID].totalBalance,\r\n                predictions[_predictionID].settlement\r\n            );\r\n    }\r\n\r\n    function closePrediction(uint256 _predictionID) public onlyAdmin {\r\n        require(_predictionID > 0 && _predictionID <= totalPredictionMarkets.current(), \"invalid prediction ID.\");\r\n        require(predictions[_predictionID].status == Status.Active, \"prediction market not ACTIVE.\");\r\n        predictions[_predictionID].status = Status.Closed;\r\n        totalActivePredictionMarkets.decrement();\r\n        totalClosedPredictionMarkets.increment();\r\n        emit PredictionClosed(_predictionID, predictions[_predictionID].totalUserNumber, predictions[_predictionID].totalBalance );\r\n    }\r\n\r\n    function fetchAllMarkets() public view returns (PredictionData[] memory) {\r\n        uint256 totalMarkets = totalPredictionMarkets.current();\r\n        uint256 _currentIndex = 0;\r\n        PredictionData[] memory _result = new PredictionData[](totalMarkets);\r\n        for(uint256 i = 1; i <= totalMarkets; i++) {\r\n            uint256 _predictionID = i;\r\n            PredictionData memory _currentPredictionData = predictions[_predictionID];\r\n            _result[_currentIndex] = _currentPredictionData;\r\n            _currentIndex++;\r\n        }\r\n        return _result;\r\n    }\r\n\r\n    function fetchAllActiveMarkets() public view returns (PredictionData[] memory) {\r\n        uint256 activeMarkets = totalActivePredictionMarkets.current();\r\n        uint256 totalMarkets = totalPredictionMarkets.current();\r\n        \r\n        uint256 _currentIndex = 0;\r\n        PredictionData[] memory _result = new PredictionData[](activeMarkets);\r\n        for(uint256 i = 1; i <= totalMarkets; i++) {\r\n            uint256 _predictionID = i;\r\n            bool _active = predictions[_predictionID].status == Status.Active;\r\n            if(_active) {\r\n                PredictionData memory _currentPredictionData = predictions[_predictionID];\r\n                _result[_currentIndex] = _currentPredictionData;\r\n                _currentIndex++;\r\n            }\r\n        }\r\n        return _result;\r\n    }\r\n    function fetchAllClosedMarkets() public view returns (PredictionData[] memory) {\r\n        uint256 totalMarkets = totalPredictionMarkets.current();\r\n        uint256 closedMarkets = totalClosedPredictionMarkets.current();\r\n        uint256 _currentIndex = 0;\r\n        PredictionData[] memory _result = new PredictionData[](closedMarkets);\r\n        for(uint256 i = 1; i <= totalMarkets; i++) {\r\n            uint256 _predictionID = i;\r\n            bool _closed = predictions[_predictionID].status == Status.Closed;\r\n            if(_closed) {\r\n                PredictionData memory _currentPredictionData = predictions[_predictionID];\r\n                _result[_currentIndex] = _currentPredictionData;\r\n                _currentIndex++;\r\n            }\r\n        }\r\n        return _result;\r\n    }\r\n    function fetchAllSettledMarkets() public view returns (PredictionData[] memory) {\r\n        uint256 totalMarkets = totalPredictionMarkets.current();\r\n        uint256 settledMarkets = totalSettledPredictionMarkets.current();\r\n        uint256 _currentIndex = 0;\r\n        PredictionData[] memory _result = new PredictionData[](settledMarkets);\r\n        for(uint256 i = 1; i <= totalMarkets; i++) {\r\n            uint256 _predictionID = i;\r\n            bool _Settled = predictions[_predictionID].status == Status.Settled;\r\n            if(_Settled) {\r\n                PredictionData memory _currentPredictionData = predictions[_predictionID];\r\n                _result[_currentIndex] = _currentPredictionData;\r\n                _currentIndex++;\r\n            }\r\n        }\r\n        return _result;\r\n    }\r\n\r\n    function updateAdmin(address _newAdmin) public onlyAdmin returns (bool){\r\n        admin = payable(_newAdmin);\r\n        return true;\r\n    }\r\n    function updatePredictionMarketFee(uint256 _newPredictionMarketFee) public onlyAdmin returns (bool){\r\n        predictionMarketFee = _newPredictionMarketFee;\r\n        return true;\r\n    }\r\n\r\n    function calcFee(uint256 _amountValue, uint256 _fee) internal pure returns(uint256) {\r\n        require((_amountValue / 10000) * 10000 == _amountValue, \"too small\");\r\n        _amountValue = _amountValue;\r\n        uint256 fee = _amountValue * _fee / 10000;\r\n        return fee;\r\n    }\r\n}",
  "sourcePath": "C:\\Users\\mttca\\coinopolis\\cryptalballz\\src\\backEnd\\contracts\\PredictionsPREWithdrawal.sol",
  "compiler": {
    "name": "solc",
    "version": "0.8.7+commit.e28d00a7.Emscripten.clang"
  },
  "schemaVersion": "3.4.4",
  "updatedAt": "2022-05-24T20:29:06.132Z",
  "devdoc": {
    "kind": "dev",
    "methods": {},
    "version": 1
  },
  "userdoc": {
    "kind": "user",
    "methods": {},
    "version": 1
  }
}