{
  "contractName": "Prediction",
  "abi": [
    {
      "inputs": [],
      "stateMutability": "nonpayable",
      "type": "constructor"
    },
    {
      "anonymous": false,
      "inputs": [
        {
          "indexed": false,
          "internalType": "uint256",
          "name": "id",
          "type": "uint256"
        },
        {
          "indexed": false,
          "internalType": "uint256",
          "name": "totalUsersNumber",
          "type": "uint256"
        },
        {
          "indexed": false,
          "internalType": "uint256",
          "name": "totalBalance",
          "type": "uint256"
        }
      ],
      "name": "EmergencyWithdrawalActive",
      "type": "event"
    },
    {
      "anonymous": false,
      "inputs": [
        {
          "indexed": false,
          "internalType": "uint256",
          "name": "id",
          "type": "uint256"
        },
        {
          "indexed": false,
          "internalType": "uint256",
          "name": "totalUserNumber",
          "type": "uint256"
        },
        {
          "indexed": false,
          "internalType": "uint256",
          "name": "totalBalance",
          "type": "uint256"
        }
      ],
      "name": "PredictionClosed",
      "type": "event"
    },
    {
      "anonymous": false,
      "inputs": [
        {
          "indexed": false,
          "internalType": "address",
          "name": "predictor",
          "type": "address"
        },
        {
          "indexed": false,
          "internalType": "uint256",
          "name": "id",
          "type": "uint256"
        },
        {
          "indexed": false,
          "internalType": "uint256",
          "name": "predictionValue",
          "type": "uint256"
        },
        {
          "indexed": false,
          "internalType": "uint256",
          "name": "predictionTotalValue",
          "type": "uint256"
        },
        {
          "indexed": false,
          "internalType": "uint256",
          "name": "predictionsMade",
          "type": "uint256"
        },
        {
          "indexed": false,
          "internalType": "uint256",
          "name": "totalPredictionVolume",
          "type": "uint256"
        }
      ],
      "name": "PredictionMade",
      "type": "event"
    },
    {
      "anonymous": false,
      "inputs": [
        {
          "indexed": false,
          "internalType": "string",
          "name": "phrase",
          "type": "string"
        },
        {
          "indexed": false,
          "internalType": "uint256",
          "name": "id",
          "type": "uint256"
        }
      ],
      "name": "PredictionMarketActive",
      "type": "event"
    },
    {
      "anonymous": false,
      "inputs": [
        {
          "indexed": false,
          "internalType": "uint256",
          "name": "id",
          "type": "uint256"
        },
        {
          "indexed": false,
          "internalType": "uint256",
          "name": "totalUserNumber",
          "type": "uint256"
        },
        {
          "indexed": false,
          "internalType": "uint256",
          "name": "totalBalance",
          "type": "uint256"
        },
        {
          "indexed": false,
          "internalType": "enum Prediction.Settlement",
          "name": "Settlement",
          "type": "uint8"
        }
      ],
      "name": "PredictionSettled",
      "type": "event"
    },
    {
      "anonymous": false,
      "inputs": [
        {
          "indexed": false,
          "internalType": "uint256",
          "name": "id",
          "type": "uint256"
        },
        {
          "indexed": false,
          "internalType": "uint256",
          "name": "totalBalance",
          "type": "uint256"
        }
      ],
      "name": "UserWithdrawal",
      "type": "event"
    },
    {
      "inputs": [],
      "name": "admin",
      "outputs": [
        {
          "internalType": "address payable",
          "name": "",
          "type": "address"
        }
      ],
      "stateMutability": "view",
      "type": "function"
    },
    {
      "inputs": [],
      "name": "minPredictionValue",
      "outputs": [
        {
          "internalType": "uint256",
          "name": "",
          "type": "uint256"
        }
      ],
      "stateMutability": "view",
      "type": "function"
    },
    {
      "inputs": [],
      "name": "predictionMarketFee",
      "outputs": [
        {
          "internalType": "uint256",
          "name": "",
          "type": "uint256"
        }
      ],
      "stateMutability": "view",
      "type": "function"
    },
    {
      "inputs": [
        {
          "internalType": "uint256",
          "name": "",
          "type": "uint256"
        }
      ],
      "name": "predictions",
      "outputs": [
        {
          "internalType": "string",
          "name": "predictionPhrase",
          "type": "string"
        },
        {
          "internalType": "uint256",
          "name": "id",
          "type": "uint256"
        },
        {
          "internalType": "uint256",
          "name": "endBlock",
          "type": "uint256"
        },
        {
          "internalType": "uint256",
          "name": "yesUserNumber",
          "type": "uint256"
        },
        {
          "internalType": "uint256",
          "name": "noUserNumber",
          "type": "uint256"
        },
        {
          "internalType": "uint256",
          "name": "totalUserNumber",
          "type": "uint256"
        },
        {
          "internalType": "uint256",
          "name": "yesBalance",
          "type": "uint256"
        },
        {
          "internalType": "uint256",
          "name": "noBalance",
          "type": "uint256"
        },
        {
          "internalType": "uint256",
          "name": "totalBalance",
          "type": "uint256"
        },
        {
          "internalType": "uint256",
          "name": "totalPaidOut",
          "type": "uint256"
        },
        {
          "internalType": "enum Prediction.Status",
          "name": "status",
          "type": "uint8"
        },
        {
          "internalType": "enum Prediction.Settlement",
          "name": "settlement",
          "type": "uint8"
        }
      ],
      "stateMutability": "view",
      "type": "function"
    },
    {
      "inputs": [],
      "name": "totalActivePredictionMarkets",
      "outputs": [
        {
          "internalType": "uint256",
          "name": "_value",
          "type": "uint256"
        }
      ],
      "stateMutability": "view",
      "type": "function"
    },
    {
      "inputs": [],
      "name": "totalClosedPredictionMarkets",
      "outputs": [
        {
          "internalType": "uint256",
          "name": "_value",
          "type": "uint256"
        }
      ],
      "stateMutability": "view",
      "type": "function"
    },
    {
      "inputs": [],
      "name": "totalEmergencyWithdrawPredictionMarkets",
      "outputs": [
        {
          "internalType": "uint256",
          "name": "_value",
          "type": "uint256"
        }
      ],
      "stateMutability": "view",
      "type": "function"
    },
    {
      "inputs": [],
      "name": "totalPredictionMarkets",
      "outputs": [
        {
          "internalType": "uint256",
          "name": "_value",
          "type": "uint256"
        }
      ],
      "stateMutability": "view",
      "type": "function"
    },
    {
      "inputs": [],
      "name": "totalPredictionVolume",
      "outputs": [
        {
          "internalType": "uint256",
          "name": "",
          "type": "uint256"
        }
      ],
      "stateMutability": "view",
      "type": "function"
    },
    {
      "inputs": [],
      "name": "totalSettledPredictionMarkets",
      "outputs": [
        {
          "internalType": "uint256",
          "name": "_value",
          "type": "uint256"
        }
      ],
      "stateMutability": "view",
      "type": "function"
    },
    {
      "inputs": [
        {
          "internalType": "uint256",
          "name": "",
          "type": "uint256"
        },
        {
          "internalType": "address",
          "name": "",
          "type": "address"
        }
      ],
      "name": "userPredictions",
      "outputs": [
        {
          "internalType": "address payable",
          "name": "predictor",
          "type": "address"
        },
        {
          "internalType": "uint256",
          "name": "predictionAmount",
          "type": "uint256"
        },
        {
          "internalType": "uint256",
          "name": "payoutAmount",
          "type": "uint256"
        },
        {
          "internalType": "uint256",
          "name": "emergencyWithdrawAmount",
          "type": "uint256"
        },
        {
          "internalType": "bool",
          "name": "prediction",
          "type": "bool"
        },
        {
          "internalType": "bool",
          "name": "hasPredicted",
          "type": "bool"
        },
        {
          "internalType": "bool",
          "name": "paidOut",
          "type": "bool"
        },
        {
          "internalType": "bool",
          "name": "emergecyWithdraw",
          "type": "bool"
        }
      ],
      "stateMutability": "view",
      "type": "function"
    },
    {
      "inputs": [],
      "name": "userWithdrawADMINFee",
      "outputs": [
        {
          "internalType": "uint256",
          "name": "",
          "type": "uint256"
        }
      ],
      "stateMutability": "view",
      "type": "function"
    },
    {
      "inputs": [],
      "name": "userWithdrawPOOLFee",
      "outputs": [
        {
          "internalType": "uint256",
          "name": "",
          "type": "uint256"
        }
      ],
      "stateMutability": "view",
      "type": "function"
    },
    {
      "inputs": [
        {
          "internalType": "string",
          "name": "_predictionPhrase",
          "type": "string"
        },
        {
          "internalType": "uint256",
          "name": "_activeSeconds",
          "type": "uint256"
        }
      ],
      "name": "createPredictionMarket",
      "outputs": [],
      "stateMutability": "nonpayable",
      "type": "function"
    },
    {
      "inputs": [
        {
          "internalType": "uint256",
          "name": "_predictionID",
          "type": "uint256"
        },
        {
          "internalType": "bool",
          "name": "_prediction",
          "type": "bool"
        }
      ],
      "name": "makePrediction",
      "outputs": [],
      "stateMutability": "payable",
      "type": "function"
    },
    {
      "inputs": [
        {
          "internalType": "uint256",
          "name": "_predictionID",
          "type": "uint256"
        },
        {
          "internalType": "bool",
          "name": "_settlement",
          "type": "bool"
        }
      ],
      "name": "setllePrediction",
      "outputs": [],
      "stateMutability": "nonpayable",
      "type": "function"
    },
    {
      "inputs": [
        {
          "internalType": "uint256",
          "name": "_predictionID",
          "type": "uint256"
        }
      ],
      "name": "claim",
      "outputs": [
        {
          "internalType": "uint256",
          "name": "_payout",
          "type": "uint256"
        }
      ],
      "stateMutability": "payable",
      "type": "function"
    },
    {
      "inputs": [
        {
          "internalType": "uint256",
          "name": "_predictionID",
          "type": "uint256"
        }
      ],
      "name": "closePrediction",
      "outputs": [],
      "stateMutability": "nonpayable",
      "type": "function"
    },
    {
      "inputs": [],
      "name": "fetchAllMarkets",
      "outputs": [
        {
          "components": [
            {
              "internalType": "string",
              "name": "predictionPhrase",
              "type": "string"
            },
            {
              "internalType": "uint256",
              "name": "id",
              "type": "uint256"
            },
            {
              "internalType": "uint256",
              "name": "endBlock",
              "type": "uint256"
            },
            {
              "internalType": "uint256",
              "name": "yesUserNumber",
              "type": "uint256"
            },
            {
              "internalType": "uint256",
              "name": "noUserNumber",
              "type": "uint256"
            },
            {
              "internalType": "uint256",
              "name": "totalUserNumber",
              "type": "uint256"
            },
            {
              "internalType": "uint256",
              "name": "yesBalance",
              "type": "uint256"
            },
            {
              "internalType": "uint256",
              "name": "noBalance",
              "type": "uint256"
            },
            {
              "internalType": "uint256",
              "name": "totalBalance",
              "type": "uint256"
            },
            {
              "internalType": "uint256",
              "name": "totalPaidOut",
              "type": "uint256"
            },
            {
              "internalType": "enum Prediction.Status",
              "name": "status",
              "type": "uint8"
            },
            {
              "internalType": "enum Prediction.Settlement",
              "name": "settlement",
              "type": "uint8"
            }
          ],
          "internalType": "struct Prediction.PredictionData[]",
          "name": "",
          "type": "tuple[]"
        }
      ],
      "stateMutability": "view",
      "type": "function"
    },
    {
      "inputs": [],
      "name": "fetchAllActiveMarkets",
      "outputs": [
        {
          "components": [
            {
              "internalType": "string",
              "name": "predictionPhrase",
              "type": "string"
            },
            {
              "internalType": "uint256",
              "name": "id",
              "type": "uint256"
            },
            {
              "internalType": "uint256",
              "name": "endBlock",
              "type": "uint256"
            },
            {
              "internalType": "uint256",
              "name": "yesUserNumber",
              "type": "uint256"
            },
            {
              "internalType": "uint256",
              "name": "noUserNumber",
              "type": "uint256"
            },
            {
              "internalType": "uint256",
              "name": "totalUserNumber",
              "type": "uint256"
            },
            {
              "internalType": "uint256",
              "name": "yesBalance",
              "type": "uint256"
            },
            {
              "internalType": "uint256",
              "name": "noBalance",
              "type": "uint256"
            },
            {
              "internalType": "uint256",
              "name": "totalBalance",
              "type": "uint256"
            },
            {
              "internalType": "uint256",
              "name": "totalPaidOut",
              "type": "uint256"
            },
            {
              "internalType": "enum Prediction.Status",
              "name": "status",
              "type": "uint8"
            },
            {
              "internalType": "enum Prediction.Settlement",
              "name": "settlement",
              "type": "uint8"
            }
          ],
          "internalType": "struct Prediction.PredictionData[]",
          "name": "",
          "type": "tuple[]"
        }
      ],
      "stateMutability": "view",
      "type": "function"
    },
    {
      "inputs": [],
      "name": "fetchAllClosedMarkets",
      "outputs": [
        {
          "components": [
            {
              "internalType": "string",
              "name": "predictionPhrase",
              "type": "string"
            },
            {
              "internalType": "uint256",
              "name": "id",
              "type": "uint256"
            },
            {
              "internalType": "uint256",
              "name": "endBlock",
              "type": "uint256"
            },
            {
              "internalType": "uint256",
              "name": "yesUserNumber",
              "type": "uint256"
            },
            {
              "internalType": "uint256",
              "name": "noUserNumber",
              "type": "uint256"
            },
            {
              "internalType": "uint256",
              "name": "totalUserNumber",
              "type": "uint256"
            },
            {
              "internalType": "uint256",
              "name": "yesBalance",
              "type": "uint256"
            },
            {
              "internalType": "uint256",
              "name": "noBalance",
              "type": "uint256"
            },
            {
              "internalType": "uint256",
              "name": "totalBalance",
              "type": "uint256"
            },
            {
              "internalType": "uint256",
              "name": "totalPaidOut",
              "type": "uint256"
            },
            {
              "internalType": "enum Prediction.Status",
              "name": "status",
              "type": "uint8"
            },
            {
              "internalType": "enum Prediction.Settlement",
              "name": "settlement",
              "type": "uint8"
            }
          ],
          "internalType": "struct Prediction.PredictionData[]",
          "name": "",
          "type": "tuple[]"
        }
      ],
      "stateMutability": "view",
      "type": "function"
    },
    {
      "inputs": [],
      "name": "fetchAllSettledMarkets",
      "outputs": [
        {
          "components": [
            {
              "internalType": "string",
              "name": "predictionPhrase",
              "type": "string"
            },
            {
              "internalType": "uint256",
              "name": "id",
              "type": "uint256"
            },
            {
              "internalType": "uint256",
              "name": "endBlock",
              "type": "uint256"
            },
            {
              "internalType": "uint256",
              "name": "yesUserNumber",
              "type": "uint256"
            },
            {
              "internalType": "uint256",
              "name": "noUserNumber",
              "type": "uint256"
            },
            {
              "internalType": "uint256",
              "name": "totalUserNumber",
              "type": "uint256"
            },
            {
              "internalType": "uint256",
              "name": "yesBalance",
              "type": "uint256"
            },
            {
              "internalType": "uint256",
              "name": "noBalance",
              "type": "uint256"
            },
            {
              "internalType": "uint256",
              "name": "totalBalance",
              "type": "uint256"
            },
            {
              "internalType": "uint256",
              "name": "totalPaidOut",
              "type": "uint256"
            },
            {
              "internalType": "enum Prediction.Status",
              "name": "status",
              "type": "uint8"
            },
            {
              "internalType": "enum Prediction.Settlement",
              "name": "settlement",
              "type": "uint8"
            }
          ],
          "internalType": "struct Prediction.PredictionData[]",
          "name": "",
          "type": "tuple[]"
        }
      ],
      "stateMutability": "view",
      "type": "function"
    },
    {
      "inputs": [
        {
          "internalType": "address",
          "name": "_newAdmin",
          "type": "address"
        }
      ],
      "name": "updateAdmin",
      "outputs": [
        {
          "internalType": "bool",
          "name": "",
          "type": "bool"
        }
      ],
      "stateMutability": "nonpayable",
      "type": "function"
    },
    {
      "inputs": [
        {
          "internalType": "uint256",
          "name": "_newPredictionMarketFee",
          "type": "uint256"
        }
      ],
      "name": "updatePredictionMarketFee",
      "outputs": [
        {
          "internalType": "bool",
          "name": "",
          "type": "bool"
        }
      ],
      "stateMutability": "nonpayable",
      "type": "function"
    },
    {
      "inputs": [
        {
          "internalType": "uint256",
          "name": "_predictionID",
          "type": "uint256"
        }
      ],
      "name": "emergencyWithdrawal",
      "outputs": [
        {
          "internalType": "uint256",
          "name": "_amount",
          "type": "uint256"
        }
      ],
      "stateMutability": "payable",
      "type": "function"
    },
    {
      "inputs": [
        {
          "internalType": "uint256",
          "name": "_predictionID",
          "type": "uint256"
        }
      ],
      "name": "enableEmergencyWithdraw",
      "outputs": [],
      "stateMutability": "nonpayable",
      "type": "function"
    },
    {
      "inputs": [
        {
          "internalType": "uint256",
          "name": "_predictionID",
          "type": "uint256"
        }
      ],
      "name": "userWithdraw",
      "outputs": [],
      "stateMutability": "payable",
      "type": "function"
    }
  ],
  "bytecode": "0x608060405234801561001057600080fd5b50336000806101000a81548173ffffffffffffffffffffffffffffffffffffffff021916908373ffffffffffffffffffffffffffffffffffffffff16021790555060fa6006819055506102bc6007819055506101f4600881905550662386f26fc10000600981905550614c74806100886000396000f3fe60806040526004361061019a5760003560e01c80638b7c0484116100ec578063d0fe57741161008a578063e2f273bd11610064578063e2f273bd146105a8578063f851a440146105e5578063f9b56fd914610610578063f9c1717e1461063b5761019a565b8063d0fe577414610529578063d2c7b1d514610552578063d56636821461057d5761019a565b8063a1ac6d0a116100c6578063a1ac6d0a1461048e578063b0d6f59c146104b9578063ba3637fe146104d5578063c6479990146105005761019a565b80638b7c0484146103f65780638c79791e1461041f57806398a57b1f1461044a5761019a565b80633b9056bf1161015957806360b677031161013357806360b677031461034c57806367a3144a146103775780636b959fe1146103a2578063897871e3146103cd5761019a565b80633b9056bf146102c857806353797101146102e45780635c0543511461030f5761019a565b806239522c1461019f5780624fbbb0146101cf5780630da11f201461021757806320c72ab914610242578063355fcb331461026d578063379607f514610298575b600080fd5b6101b960048036038101906101b491906137b0565b610666565b6040516101c691906141c1565b60405180910390f35b3480156101db57600080fd5b506101f660048036038101906101f191906137b0565b6109ed565b60405161020e9c9b9a99989796959493929190613ec0565b60405180910390f35b34801561022357600080fd5b5061022c610aef565b60405161023991906141c1565b60405180910390f35b34801561024e57600080fd5b50610257610af5565b6040516102649190613e53565b60405180910390f35b34801561027957600080fd5b50610282610d42565b60405161028f91906141c1565b60405180910390f35b6102b260048036038101906102ad91906137b0565b610d48565b6040516102bf91906141c1565b60405180910390f35b6102e260048036038101906102dd91906137b0565b6112e5565b005b3480156102f057600080fd5b506102f96118f0565b60405161030691906141c1565b60405180910390f35b34801561031b57600080fd5b50610336600480360381019061033191906137b0565b6118f6565b6040516103439190613e75565b60405180910390f35b34801561035857600080fd5b50610361611997565b60405161036e91906141c1565b60405180910390f35b34801561038357600080fd5b5061038c6119a3565b6040516103999190613e53565b60405180910390f35b3480156103ae57600080fd5b506103b7611c56565b6040516103c491906141c1565b60405180910390f35b3480156103d957600080fd5b506103f460048036038101906103ef91906137b0565b611c62565b005b34801561040257600080fd5b5061041d600480360381019061041891906137b0565b611e8f565b005b34801561042b57600080fd5b506104346120ad565b60405161044191906141c1565b60405180910390f35b34801561045657600080fd5b50610471600480360381019061046c91906137dd565b6120b3565b604051610485989796959493929190613d74565b60405180910390f35b34801561049a57600080fd5b506104a361215c565b6040516104b091906141c1565b60405180910390f35b6104d360048036038101906104ce919061381d565b612162565b005b3480156104e157600080fd5b506104ea6127fd565b6040516104f791906141c1565b60405180910390f35b34801561050c57600080fd5b506105276004803603810190610522919061381d565b612809565b005b34801561053557600080fd5b50610550600480360381019061054b9190613754565b612b9f565b005b34801561055e57600080fd5b50610567612e08565b60405161057491906141c1565b60405180910390f35b34801561058957600080fd5b50610592612e14565b60405161059f9190613e53565b60405180910390f35b3480156105b457600080fd5b506105cf60048036038101906105ca9190613727565b6130c7565b6040516105dc9190613e75565b60405180910390f35b3480156105f157600080fd5b506105fa6131a1565b6040516106079190613d59565b60405180910390f35b34801561061c57600080fd5b506106256131c5565b60405161063291906141c1565b60405180910390f35b34801561064757600080fd5b506106506131d1565b60405161065d9190613e53565b60405180910390f35b600060038081111561067b5761067a61466c565b5b600c6000848152602001908152602001600020600a0160009054906101000a900460ff1660038111156106b1576106b061466c565b5b146106f1576040517f08c379a00000000000000000000000000000000000000000000000000000000081526004016106e890613f81565b60405180910390fd5b60001515600b600084815260200190815260200160002060003373ffffffffffffffffffffffffffffffffffffffff1673ffffffffffffffffffffffffffffffffffffffff16815260200190815260200160002060040160039054906101000a900460ff16151514610798576040517f08c379a000000000000000000000000000000000000000000000000000000000815260040161078f90614181565b60405180910390fd5b6001600b600084815260200190815260200160002060003373ffffffffffffffffffffffffffffffffffffffff1673ffffffffffffffffffffffffffffffffffffffff16815260200190815260200160002060040160036101000a81548160ff021916908315150217905550600b600083815260200190815260200160002060003373ffffffffffffffffffffffffffffffffffffffff1673ffffffffffffffffffffffffffffffffffffffff1681526020019081526020016000206001015490506000600b600084815260200190815260200160002060003373ffffffffffffffffffffffffffffffffffffffff1673ffffffffffffffffffffffffffffffffffffffff168152602001908152602001600020600101819055506000600b600084815260200190815260200160002060003373ffffffffffffffffffffffffffffffffffffffff1673ffffffffffffffffffffffffffffffffffffffff1681526020019081526020016000206003015414610949576040517f08c379a0000000000000000000000000000000000000000000000000000000008152600401610940906140e1565b60405180910390fd5b80600b600084815260200190815260200160002060003373ffffffffffffffffffffffffffffffffffffffff1673ffffffffffffffffffffffffffffffffffffffff168152602001908152602001600020600301819055503373ffffffffffffffffffffffffffffffffffffffff166108fc829081150290604051600060405180830381858888f193505050501580156109e7573d6000803e3d6000fd5b50919050565b600c602052806000526040600020600091509050806000018054610a1090614562565b80601f0160208091040260200160405190810160405280929190818152602001828054610a3c90614562565b8015610a895780601f10610a5e57610100808354040283529160200191610a89565b820191906000526020600020905b815481529060010190602001808311610a6c57829003601f168201915b50505050509080600101549080600201549080600301549080600401549080600501549080600601549080600701549080600801549080600901549080600a0160009054906101000a900460ff169080600a0160019054906101000a900460ff1690508c565b60065481565b60606000610b036001613483565b90506000808267ffffffffffffffff811115610b2257610b216146f9565b5b604051908082528060200260200182016040528015610b5b57816020015b610b48613550565b815260200190600190039081610b405790505b5090506000600190505b838111610d385760008190506000600c600083815260200190815260200160002060405180610180016040529081600082018054610ba290614562565b80601f0160208091040260200160405190810160405280929190818152602001828054610bce90614562565b8015610c1b5780601f10610bf057610100808354040283529160200191610c1b565b820191906000526020600020905b815481529060010190602001808311610bfe57829003601f168201915b50505050508152602001600182015481526020016002820154815260200160038201548152602001600482015481526020016005820154815260200160068201548152602001600782015481526020016008820154815260200160098201548152602001600a820160009054906101000a900460ff166003811115610ca357610ca261466c565b5b6003811115610cb557610cb461466c565b5b8152602001600a820160019054906101000a900460ff166003811115610cde57610cdd61466c565b5b6003811115610cf057610cef61466c565b5b81525050905080848681518110610d0a57610d096146ca565b5b60200260200101819052508480610d20906145c5565b95505050508080610d30906145c5565b915050610b65565b5080935050505090565b60095481565b600060026003811115610d5e57610d5d61466c565b5b600c6000848152602001908152602001600020600a0160009054906101000a900460ff166003811115610d9457610d9361466c565b5b14610dd4576040517f08c379a0000000000000000000000000000000000000000000000000000000008152600401610dcb90614161565b60405180910390fd5b6000806003811115610de957610de861466c565b5b600c6000858152602001908152602001600020600a0160019054906101000a900460ff166003811115610e1f57610e1e61466c565b5b149050801515600b600085815260200190815260200160002060003373ffffffffffffffffffffffffffffffffffffffff1673ffffffffffffffffffffffffffffffffffffffff16815260200190815260200160002060040160009054906101000a900460ff16151514610ec8576040517f08c379a0000000000000000000000000000000000000000000000000000000008152600401610ebf90614141565b60405180910390fd5b600b600084815260200190815260200160002060003373ffffffffffffffffffffffffffffffffffffffff1673ffffffffffffffffffffffffffffffffffffffff16815260200190815260200160002060040160019054906101000a900460ff16610f68576040517f08c379a0000000000000000000000000000000000000000000000000000000008152600401610f5f90614081565b60405180910390fd5b600b600084815260200190815260200160002060003373ffffffffffffffffffffffffffffffffffffffff1673ffffffffffffffffffffffffffffffffffffffff16815260200190815260200160002060040160029054906101000a900460ff1615611009576040517f08c379a0000000000000000000000000000000000000000000000000000000008152600401611000906140a1565b60405180910390fd5b6001600b600085815260200190815260200160002060003373ffffffffffffffffffffffffffffffffffffffff1673ffffffffffffffffffffffffffffffffffffffff16815260200190815260200160002060040160026101000a81548160ff0219169083151502179055506000600c6000858152602001908152602001600020600801549050600061109e82600654613491565b9050600081836110ae919061441e565b90506000846110d357600c6000888152602001908152602001600020600701546110eb565b600c6000888152602001908152602001600020600601545b9050600081612710600b60008b815260200190815260200160002060003373ffffffffffffffffffffffffffffffffffffffff1673ffffffffffffffffffffffffffffffffffffffff1681526020019081526020016000206001015461115191906143c4565b61115b9190614393565b9050612710818461116c91906143c4565b6111769190614393565b965086600c60008a8152602001908152602001600020600901600082825461119e919061433d565b9250508190555050505050506000600b600085815260200190815260200160002060003373ffffffffffffffffffffffffffffffffffffffff1673ffffffffffffffffffffffffffffffffffffffff1681526020019081526020016000206002015414611240576040517f08c379a0000000000000000000000000000000000000000000000000000000008152600401611237906140a1565b60405180910390fd5b81600b600085815260200190815260200160002060003373ffffffffffffffffffffffffffffffffffffffff1673ffffffffffffffffffffffffffffffffffffffff168152602001908152602001600020600201819055503373ffffffffffffffffffffffffffffffffffffffff166108fc839081150290604051600060405180830381858888f193505050501580156112de573d6000803e3d6000fd5b5050919050565b6000811180156112fe57506112fa6001613483565b8111155b61133d576040517f08c379a000000000000000000000000000000000000000000000000000000000815260040161133490614041565b60405180910390fd5b600060038111156113515761135061466c565b5b600c6000838152602001908152602001600020600a0160009054906101000a900460ff1660038111156113875761138661466c565b5b146113c7576040517f08c379a00000000000000000000000000000000000000000000000000000000081526004016113be906141a1565b60405180910390fd5b6000600b600083815260200190815260200160002060003373ffffffffffffffffffffffffffffffffffffffff1673ffffffffffffffffffffffffffffffffffffffff1681526020019081526020016000206001015490506000600b600084815260200190815260200160002060003373ffffffffffffffffffffffffffffffffffffffff1673ffffffffffffffffffffffffffffffffffffffff168152602001908152602001600020600101549050600061148583600754613491565b9050600061149584600854613491565b9050600081836114a5919061433d565b905080856114b3919061441e565b945060008054906101000a900473ffffffffffffffffffffffffffffffffffffffff1673ffffffffffffffffffffffffffffffffffffffff166108fc849081150290604051600060405180830381858888f1935050505015801561151b573d6000803e3d6000fd5b506000600b600088815260200190815260200160002060003373ffffffffffffffffffffffffffffffffffffffff1673ffffffffffffffffffffffffffffffffffffffff16815260200190815260200160002060040160019054906101000a900460ff169050806115c1576040517f08c379a00000000000000000000000000000000000000000000000000000000081526004016115b890614001565b60405180910390fd5b60008611611604576040517f08c379a00000000000000000000000000000000000000000000000000000000081526004016115fb90614021565b60405180910390fd5b6000600b600089815260200190815260200160002060003373ffffffffffffffffffffffffffffffffffffffff1673ffffffffffffffffffffffffffffffffffffffff168152602001908152602001600020600101819055506000600b600089815260200190815260200160002060003373ffffffffffffffffffffffffffffffffffffffff1673ffffffffffffffffffffffffffffffffffffffff16815260200190815260200160002060040160016101000a81548160ff0219169083151502179055503373ffffffffffffffffffffffffffffffffffffffff166108fc879081150290604051600060405180830381858888f1935050505015801561170f573d6000803e3d6000fd5b506000848761171e919061433d565b905080600c60008a81526020019081526020016000206008016000828254611746919061441e565b92505081905550600b600089815260200190815260200160002060003373ffffffffffffffffffffffffffffffffffffffff1673ffffffffffffffffffffffffffffffffffffffff16815260200190815260200160002060040160009054906101000a900460ff16156118115785600c60008a815260200190815260200160002060060160008282546117d9919061441e565b92505081905550600c6000898152602001908152602001600020600301600081548092919061180790614538565b919050555061186b565b85600c60008a81526020019081526020016000206007016000828254611837919061441e565b92505081905550600c6000898152602001908152602001600020600401600081548092919061186590614538565b91905055505b600c6000898152602001908152602001600020600501600081548092919061189290614538565b91905055507f1adca21f9cd7ce0d42e86da154f61d9ace5bc419c2549655fea1d3e432693c1288600c60008b8152602001908152602001600020600801546040516118de9291906141dc565b60405180910390a15050505050505050565b60085481565b60008060009054906101000a900473ffffffffffffffffffffffffffffffffffffffff1673ffffffffffffffffffffffffffffffffffffffff163373ffffffffffffffffffffffffffffffffffffffff1614611987576040517f08c379a000000000000000000000000000000000000000000000000000000000815260040161197e90613fe1565b60405180910390fd5b8160068190555060019050919050565b60058060000154905081565b606060006119b16001613483565b905060006119bf6003613483565b90506000808267ffffffffffffffff8111156119de576119dd6146f9565b5b604051908082528060200260200182016040528015611a1757816020015b611a04613550565b8152602001906001900390816119fc5790505b5090506000600190505b848111611c4b576000819050600060016003811115611a4357611a4261466c565b5b600c6000848152602001908152602001600020600a0160009054906101000a900460ff166003811115611a7957611a7861466c565b5b1490508015611c36576000600c600084815260200190815260200160002060405180610180016040529081600082018054611ab390614562565b80601f0160208091040260200160405190810160405280929190818152602001828054611adf90614562565b8015611b2c5780601f10611b0157610100808354040283529160200191611b2c565b820191906000526020600020905b815481529060010190602001808311611b0f57829003601f168201915b50505050508152602001600182015481526020016002820154815260200160038201548152602001600482015481526020016005820154815260200160068201548152602001600782015481526020016008820154815260200160098201548152602001600a820160009054906101000a900460ff166003811115611bb457611bb361466c565b5b6003811115611bc657611bc561466c565b5b8152602001600a820160019054906101000a900460ff166003811115611bef57611bee61466c565b5b6003811115611c0157611c0061466c565b5b81525050905080858781518110611c1b57611c1a6146ca565b5b60200260200101819052508580611c31906145c5565b965050505b50508080611c43906145c5565b915050611a21565b508094505050505090565b60028060000154905081565b60008054906101000a900473ffffffffffffffffffffffffffffffffffffffff1673ffffffffffffffffffffffffffffffffffffffff163373ffffffffffffffffffffffffffffffffffffffff1614611cf0576040517f08c379a0000000000000000000000000000000000000000000000000000000008152600401611ce790613fe1565b60405180910390fd5b600081118015611d095750611d056001613483565b8111155b611d48576040517f08c379a0000000000000000000000000000000000000000000000000000000008152600401611d3f90614041565b60405180910390fd5b60006003811115611d5c57611d5b61466c565b5b600c6000838152602001908152602001600020600a0160009054906101000a900460ff166003811115611d9257611d9161466c565b5b14611dd2576040517f08c379a0000000000000000000000000000000000000000000000000000000008152600401611dc990614061565b60405180910390fd5b6001600c6000838152602001908152602001600020600a0160006101000a81548160ff02191690836003811115611e0c57611e0b61466c565b5b0217905550611e1b60026134de565b611e25600361353a565b7f4a3e735ded174d015bbec19944ddf306c07f34a070f33ec1809d87e4e46b623781600c600084815260200190815260200160002060050154600c600085815260200190815260200160002060080154604051611e8493929190614205565b60405180910390a150565b60008054906101000a900473ffffffffffffffffffffffffffffffffffffffff1673ffffffffffffffffffffffffffffffffffffffff163373ffffffffffffffffffffffffffffffffffffffff1614611f1d576040517f08c379a0000000000000000000000000000000000000000000000000000000008152600401611f1490613fe1565b60405180910390fd5b60016003811115611f3157611f3061466c565b5b600c6000838152602001908152602001600020600a0160009054906101000a900460ff166003811115611f6757611f6661466c565b5b14611fa7576040517f08c379a0000000000000000000000000000000000000000000000000000000008152600401611f9e906140c1565b60405180910390fd5b611fb160036134de565b611fbb600561353a565b611fc5600461353a565b6002600c6000838152602001908152602001600020600a0160006101000a81548160ff02191690836003811115611fff57611ffe61466c565b5b02179055506003600c6000838152602001908152602001600020600a0160016101000a81548160ff0219169083600381111561203e5761203d61466c565b5b02179055507ff3479941586cf63c92613d25614342359d963c74e2b896c2c6fceb167c8b0b3d81600c600084815260200190815260200160002060050154600c6000858152602001908152602001600020600801546040516120a293929190614205565b60405180910390a150565b600a5481565b600b602052816000526040600020602052806000526040600020600091509150508060000160009054906101000a900473ffffffffffffffffffffffffffffffffffffffff16908060010154908060020154908060030154908060040160009054906101000a900460ff16908060040160019054906101000a900460ff16908060040160029054906101000a900460ff16908060040160039054906101000a900460ff16905088565b60075481565b6009543410156121a7576040517f08c379a000000000000000000000000000000000000000000000000000000000815260040161219e90614121565b60405180910390fd5b6000821180156121c057506121bc6001613483565b8211155b6121ff576040517f08c379a00000000000000000000000000000000000000000000000000000000081526004016121f690614041565b60405180910390fd5b600060038111156122135761221261466c565b5b600c6000848152602001908152602001600020600a0160009054906101000a900460ff1660038111156122495761224861466c565b5b14612289576040517f08c379a0000000000000000000000000000000000000000000000000000000008152600401612280906141a1565b60405180910390fd5b6000600b600084815260200190815260200160002060003373ffffffffffffffffffffffffffffffffffffffff1673ffffffffffffffffffffffffffffffffffffffff16815260200190815260200160002060040160019054906101000a900460ff169050801561232f576040517f08c379a000000000000000000000000000000000000000000000000000000000815260040161232690614101565b60405180910390fd5b81156125285734600c6000858152602001908152602001600020600601600082825461235b919061433d565b92505081905550600c60008481526020019081526020016000206003016000815480929190612389906145c5565b91905055506040518061010001604052803373ffffffffffffffffffffffffffffffffffffffff1681526020013481526020016000815260200160008152602001831515815260200160011515815260200160001515815260200160001515815250600b600085815260200190815260200160002060003373ffffffffffffffffffffffffffffffffffffffff1673ffffffffffffffffffffffffffffffffffffffff16815260200190815260200160002060008201518160000160006101000a81548173ffffffffffffffffffffffffffffffffffffffff021916908373ffffffffffffffffffffffffffffffffffffffff16021790555060208201518160010155604082015181600201556060820151816003015560808201518160040160006101000a81548160ff02191690831515021790555060a08201518160040160016101000a81548160ff02191690831515021790555060c08201518160040160026101000a81548160ff02191690831515021790555060e08201518160040160036101000a81548160ff021916908315150217905550905050612717565b34600c6000858152602001908152602001600020600701600082825461254e919061433d565b92505081905550600c6000848152602001908152602001600020600401600081548092919061257c906145c5565b91905055506040518061010001604052803373ffffffffffffffffffffffffffffffffffffffff1681526020013481526020016000815260200160008152602001831515815260200160011515815260200160001515815260200160001515815250600b600085815260200190815260200160002060003373ffffffffffffffffffffffffffffffffffffffff1673ffffffffffffffffffffffffffffffffffffffff16815260200190815260200160002060008201518160000160006101000a81548173ffffffffffffffffffffffffffffffffffffffff021916908373ffffffffffffffffffffffffffffffffffffffff16021790555060208201518160010155604082015181600201556060820151816003015560808201518160040160006101000a81548160ff02191690831515021790555060a08201518160040160016101000a81548160ff02191690831515021790555060c08201518160040160026101000a81548160ff02191690831515021790555060e08201518160040160036101000a81548160ff0219169083151502179055509050505b600c6000848152602001908152602001600020600501600081548092919061273e906145c5565b919050555034600c60008581526020019081526020016000206008016000828254612769919061433d565b9250508190555034600a6000828254612782919061433d565b925050819055507ff65f7034a12cc6c6d06f601377ca835ec29d13f0f16c2e3b31a14bf5a6b7e526338434600c600088815260200190815260200160002060080154600c600089815260200190815260200160002060050154600a546040516127f096959493929190613df2565b60405180910390a1505050565b60048060000154905081565b60008054906101000a900473ffffffffffffffffffffffffffffffffffffffff1673ffffffffffffffffffffffffffffffffffffffff163373ffffffffffffffffffffffffffffffffffffffff1614612897576040517f08c379a000000000000000000000000000000000000000000000000000000000815260040161288e90613fe1565b60405180910390fd5b600160038111156128ab576128aa61466c565b5b600c6000848152602001908152602001600020600a0160009054906101000a900460ff1660038111156128e1576128e061466c565b5b14612921576040517f08c379a000000000000000000000000000000000000000000000000000000000815260040161291890613fc1565b60405180910390fd5b60008211801561293a57506129366001613483565b8211155b612979576040517f08c379a000000000000000000000000000000000000000000000000000000000815260040161297090614041565b60405180910390fd5b600061299d600c600085815260200190815260200160002060080154600654613491565b905080600c600085815260200190815260200160002060090160008282546129c5919061433d565b9250508190555060008054906101000a900473ffffffffffffffffffffffffffffffffffffffff1673ffffffffffffffffffffffffffffffffffffffff166108fc829081150290604051600060405180830381858888f19350505050158015612a32573d6000803e3d6000fd5b5081612a7b576001600c6000858152602001908152602001600020600a0160016101000a81548160ff02191690836003811115612a7257612a7161466c565b5b02179055612aba565b6000600c6000858152602001908152602001600020600a0160016101000a81548160ff02191690836003811115612ab557612ab461466c565b5b021790555b506002600c6000858152602001908152602001600020600a0160006101000a81548160ff02191690836003811115612af557612af461466c565b5b0217905550612b0460036134de565b612b0e600461353a565b7ffd9d3061bf0953e48f5daae7cccf06773195282d01730c4a782822bb24700c0083600c600086815260200190815260200160002060050154600c600087815260200190815260200160002060080154600c6000888152602001908152602001600020600a0160019054906101000a900460ff16604051612b92949392919061423c565b60405180910390a1505050565b60008054906101000a900473ffffffffffffffffffffffffffffffffffffffff1673ffffffffffffffffffffffffffffffffffffffff163373ffffffffffffffffffffffffffffffffffffffff1614612c2d576040517f08c379a0000000000000000000000000000000000000000000000000000000008152600401612c2490613fe1565b60405180910390fd5b612c37600161353a565b612c41600261353a565b6000612c4d6001613483565b90506040518061018001604052808481526020018281526020018342612c73919061433d565b81526020016000815260200160008152602001600081526020016000815260200160008152602001600081526020016000815260200160006003811115612cbd57612cbc61466c565b5b815260200160026003811115612cd657612cd561466c565b5b815250600c60008381526020019081526020016000206000820151816000019080519060200190612d089291906135d5565b506020820151816001015560408201518160020155606082015181600301556080820151816004015560a0820151816005015560c0820151816006015560e082015181600701556101008201518160080155610120820151816009015561014082015181600a0160006101000a81548160ff02191690836003811115612d9157612d9061466c565b5b021790555061016082015181600a0160016101000a81548160ff02191690836003811115612dc257612dc161466c565b5b02179055509050507fc8b7b4904be00e7e66e02f25b9223456d0fd68d58b30bfdd0af0aad3449a3f2a8382604051612dfb929190613e90565b60405180910390a1505050565b60038060000154905081565b60606000612e226001613483565b90506000612e306004613483565b90506000808267ffffffffffffffff811115612e4f57612e4e6146f9565b5b604051908082528060200260200182016040528015612e8857816020015b612e75613550565b815260200190600190039081612e6d5790505b5090506000600190505b8481116130bc576000819050600060026003811115612eb457612eb361466c565b5b600c6000848152602001908152602001600020600a0160009054906101000a900460ff166003811115612eea57612ee961466c565b5b14905080156130a7576000600c600084815260200190815260200160002060405180610180016040529081600082018054612f2490614562565b80601f0160208091040260200160405190810160405280929190818152602001828054612f5090614562565b8015612f9d5780601f10612f7257610100808354040283529160200191612f9d565b820191906000526020600020905b815481529060010190602001808311612f8057829003601f168201915b50505050508152602001600182015481526020016002820154815260200160038201548152602001600482015481526020016005820154815260200160068201548152602001600782015481526020016008820154815260200160098201548152602001600a820160009054906101000a900460ff1660038111156130255761302461466c565b5b60038111156130375761303661466c565b5b8152602001600a820160019054906101000a900460ff1660038111156130605761305f61466c565b5b60038111156130725761307161466c565b5b8152505090508085878151811061308c5761308b6146ca565b5b602002602001018190525085806130a2906145c5565b965050505b505080806130b4906145c5565b915050612e92565b508094505050505090565b60008060009054906101000a900473ffffffffffffffffffffffffffffffffffffffff1673ffffffffffffffffffffffffffffffffffffffff163373ffffffffffffffffffffffffffffffffffffffff1614613158576040517f08c379a000000000000000000000000000000000000000000000000000000000815260040161314f90613fe1565b60405180910390fd5b816000806101000a81548173ffffffffffffffffffffffffffffffffffffffff021916908373ffffffffffffffffffffffffffffffffffffffff16021790555060019050919050565b60008054906101000a900473ffffffffffffffffffffffffffffffffffffffff1681565b60018060000154905081565b606060006131df6002613483565b905060006131ed6001613483565b90506000808367ffffffffffffffff81111561320c5761320b6146f9565b5b60405190808252806020026020018201604052801561324557816020015b613232613550565b81526020019060019003908161322a5790505b5090506000600190505b83811161347857600081905060008060038111156132705761326f61466c565b5b600c6000848152602001908152602001600020600a0160009054906101000a900460ff1660038111156132a6576132a561466c565b5b1490508015613463576000600c6000848152602001908152602001600020604051806101800160405290816000820180546132e090614562565b80601f016020809104026020016040519081016040528092919081815260200182805461330c90614562565b80156133595780601f1061332e57610100808354040283529160200191613359565b820191906000526020600020905b81548152906001019060200180831161333c57829003601f168201915b50505050508152602001600182015481526020016002820154815260200160038201548152602001600482015481526020016005820154815260200160068201548152602001600782015481526020016008820154815260200160098201548152602001600a820160009054906101000a900460ff1660038111156133e1576133e061466c565b5b60038111156133f3576133f261466c565b5b8152602001600a820160019054906101000a900460ff16600381111561341c5761341b61466c565b5b600381111561342e5761342d61466c565b5b81525050905080858781518110613448576134476146ca565b5b6020026020010181905250858061345e906145c5565b965050505b50508080613470906145c5565b91505061324f565b508094505050505090565b600081600001549050919050565b600080600090508361271080866134a89190614393565b6134b291906143c4565b14156134d45761271083856134c791906143c4565b6134d19190614393565b90505b8091505092915050565b6000816000015490506000811161352a576040517f08c379a000000000000000000000000000000000000000000000000000000000815260040161352190613fa1565b60405180910390fd5b6001810382600001819055505050565b6001816000016000828254019250508190555050565b60405180610180016040528060608152602001600081526020016000815260200160008152602001600081526020016000815260200160008152602001600081526020016000815260200160008152602001600060038111156135b6576135b561466c565b5b8152602001600060038111156135cf576135ce61466c565b5b81525090565b8280546135e190614562565b90600052602060002090601f016020900481019282613603576000855561364a565b82601f1061361c57805160ff191683800117855561364a565b8280016001018555821561364a579182015b8281111561364957825182559160200191906001019061362e565b5b509050613657919061365b565b5090565b5b8082111561367457600081600090555060010161365c565b5090565b600061368b613686846142a6565b614281565b9050828152602081018484840111156136a7576136a661472d565b5b6136b28482856144f6565b509392505050565b6000813590506136c981614bf9565b92915050565b6000813590506136de81614c10565b92915050565b600082601f8301126136f9576136f8614728565b5b8135613709848260208601613678565b91505092915050565b60008135905061372181614c27565b92915050565b60006020828403121561373d5761373c614737565b5b600061374b848285016136ba565b91505092915050565b6000806040838503121561376b5761376a614737565b5b600083013567ffffffffffffffff81111561378957613788614732565b5b613795858286016136e4565b92505060206137a685828601613712565b9150509250929050565b6000602082840312156137c6576137c5614737565b5b60006137d484828501613712565b91505092915050565b600080604083850312156137f4576137f3614737565b5b600061380285828601613712565b9250506020613813858286016136ba565b9150509250929050565b6000806040838503121561383457613833614737565b5b600061384285828601613712565b9250506020613853858286016136cf565b9150509250929050565b60006138698383613c37565b905092915050565b61387a81614464565b82525050565b61388981614452565b82525050565b600061389a826142e7565b6138a4818561430a565b9350836020820285016138b6856142d7565b8060005b858110156138f257848403895281516138d3858261385d565b94506138de836142fd565b925060208a019950506001810190506138ba565b50829750879550505050505092915050565b61390d81614476565b82525050565b61391c816144d2565b82525050565b61392b816144d2565b82525050565b61393a816144e4565b82525050565b613949816144e4565b82525050565b600061395a826142f2565b613964818561431b565b9350613974818560208601614505565b61397d8161473c565b840191505092915050565b6000613993826142f2565b61399d818561432c565b93506139ad818560208601614505565b6139b68161473c565b840191505092915050565b60006139ce602f8361432c565b91506139d98261474d565b604082019050919050565b60006139f1601b8361432c565b91506139fc8261479c565b602082019050919050565b6000613a14601d8361432c565b9150613a1f826147c5565b602082019050919050565b6000613a3760158361432c565b9150613a42826147ee565b602082019050919050565b6000613a5a603a8361432c565b9150613a6582614817565b604082019050919050565b6000613a7d60258361432c565b9150613a8882614866565b604082019050919050565b6000613aa060168361432c565b9150613aab826148b5565b602082019050919050565b6000613ac3601d8361432c565b9150613ace826148de565b602082019050919050565b6000613ae660448361432c565b9150613af182614907565b606082019050919050565b6000613b09601f8361432c565b9150613b148261497c565b602082019050919050565b6000613b2c60218361432c565b9150613b37826149a5565b604082019050919050565b6000613b4f602d8361432c565b9150613b5a826149f4565b604082019050919050565b6000613b7260268361432c565b9150613b7d82614a43565b604082019050919050565b6000613b9560328361432c565b9150613ba082614a92565b604082019050919050565b6000613bb860288361432c565b9150613bc382614ae1565b604082019050919050565b6000613bdb601c8361432c565b9150613be682614b30565b602082019050919050565b6000613bfe602c8361432c565b9150613c0982614b59565b604082019050919050565b6000613c2160168361432c565b9150613c2c82614ba8565b602082019050919050565b6000610180830160008301518482036000860152613c55828261394f565b9150506020830151613c6a6020860182613d3b565b506040830151613c7d6040860182613d3b565b506060830151613c906060860182613d3b565b506080830151613ca36080860182613d3b565b5060a0830151613cb660a0860182613d3b565b5060c0830151613cc960c0860182613d3b565b5060e0830151613cdc60e0860182613d3b565b50610100830151613cf1610100860182613d3b565b50610120830151613d06610120860182613d3b565b50610140830151613d1b610140860182613931565b50610160830151613d30610160860182613913565b508091505092915050565b613d44816144c8565b82525050565b613d53816144c8565b82525050565b6000602082019050613d6e6000830184613871565b92915050565b600061010082019050613d8a600083018b613871565b613d97602083018a613d4a565b613da46040830189613d4a565b613db16060830188613d4a565b613dbe6080830187613904565b613dcb60a0830186613904565b613dd860c0830185613904565b613de560e0830184613904565b9998505050505050505050565b600060c082019050613e076000830189613880565b613e146020830188613d4a565b613e216040830187613d4a565b613e2e6060830186613d4a565b613e3b6080830185613d4a565b613e4860a0830184613d4a565b979650505050505050565b60006020820190508181036000830152613e6d818461388f565b905092915050565b6000602082019050613e8a6000830184613904565b92915050565b60006040820190508181036000830152613eaa8185613988565b9050613eb96020830184613d4a565b9392505050565b6000610180820190508181036000830152613edb818f613988565b9050613eea602083018e613d4a565b613ef7604083018d613d4a565b613f04606083018c613d4a565b613f11608083018b613d4a565b613f1e60a083018a613d4a565b613f2b60c0830189613d4a565b613f3860e0830188613d4a565b613f46610100830187613d4a565b613f54610120830186613d4a565b613f62610140830185613940565b613f70610160830184613922565b9d9c50505050505050505050505050565b60006020820190508181036000830152613f9a816139c1565b9050919050565b60006020820190508181036000830152613fba816139e4565b9050919050565b60006020820190508181036000830152613fda81613a07565b9050919050565b60006020820190508181036000830152613ffa81613a2a565b9050919050565b6000602082019050818103600083015261401a81613a4d565b9050919050565b6000602082019050818103600083015261403a81613a70565b9050919050565b6000602082019050818103600083015261405a81613a93565b9050919050565b6000602082019050818103600083015261407a81613ab6565b9050919050565b6000602082019050818103600083015261409a81613ad9565b9050919050565b600060208201905081810360008301526140ba81613afc565b9050919050565b600060208201905081810360008301526140da81613b1f565b9050919050565b600060208201905081810360008301526140fa81613b42565b9050919050565b6000602082019050818103600083015261411a81613b65565b9050919050565b6000602082019050818103600083015261413a81613b88565b9050919050565b6000602082019050818103600083015261415a81613bab565b9050919050565b6000602082019050818103600083015261417a81613bce565b9050919050565b6000602082019050818103600083015261419a81613bf1565b9050919050565b600060208201905081810360008301526141ba81613c14565b9050919050565b60006020820190506141d66000830184613d4a565b92915050565b60006040820190506141f16000830185613d4a565b6141fe6020830184613d4a565b9392505050565b600060608201905061421a6000830186613d4a565b6142276020830185613d4a565b6142346040830184613d4a565b949350505050565b60006080820190506142516000830187613d4a565b61425e6020830186613d4a565b61426b6040830185613d4a565b6142786060830184613922565b95945050505050565b600061428b61429c565b90506142978282614594565b919050565b6000604051905090565b600067ffffffffffffffff8211156142c1576142c06146f9565b5b6142ca8261473c565b9050602081019050919050565b6000819050602082019050919050565b600081519050919050565b600081519050919050565b6000602082019050919050565b600082825260208201905092915050565b600082825260208201905092915050565b600082825260208201905092915050565b6000614348826144c8565b9150614353836144c8565b9250827fffffffffffffffffffffffffffffffffffffffffffffffffffffffffffffffff038211156143885761438761460e565b5b828201905092915050565b600061439e826144c8565b91506143a9836144c8565b9250826143b9576143b861463d565b5b828204905092915050565b60006143cf826144c8565b91506143da836144c8565b9250817fffffffffffffffffffffffffffffffffffffffffffffffffffffffffffffffff04831182151516156144135761441261460e565b5b828202905092915050565b6000614429826144c8565b9150614434836144c8565b9250828210156144475761444661460e565b5b828203905092915050565b600061445d826144a8565b9050919050565b600061446f826144a8565b9050919050565b60008115159050919050565b600081905061449082614bd1565b919050565b60008190506144a382614be5565b919050565b600073ffffffffffffffffffffffffffffffffffffffff82169050919050565b6000819050919050565b60006144dd82614482565b9050919050565b60006144ef82614495565b9050919050565b82818337600083830152505050565b60005b83811015614523578082015181840152602081019050614508565b83811115614532576000848401525b50505050565b6000614543826144c8565b915060008214156145575761455661460e565b5b600182039050919050565b6000600282049050600182168061457a57607f821691505b6020821081141561458e5761458d61469b565b5b50919050565b61459d8261473c565b810181811067ffffffffffffffff821117156145bc576145bb6146f9565b5b80604052505050565b60006145d0826144c8565b91507fffffffffffffffffffffffffffffffffffffffffffffffffffffffffffffffff8214156146035761460261460e565b5b600182019050919050565b7f4e487b7100000000000000000000000000000000000000000000000000000000600052601160045260246000fd5b7f4e487b7100000000000000000000000000000000000000000000000000000000600052601260045260246000fd5b7f4e487b7100000000000000000000000000000000000000000000000000000000600052602160045260246000fd5b7f4e487b7100000000000000000000000000000000000000000000000000000000600052602260045260246000fd5b7f4e487b7100000000000000000000000000000000000000000000000000000000600052603260045260246000fd5b7f4e487b7100000000000000000000000000000000000000000000000000000000600052604160045260246000fd5b600080fd5b600080fd5b600080fd5b600080fd5b6000601f19601f8301169050919050565b7f70726564696374696f6e206d7573742062652073657420617320456d6572676560008201527f6e6379205769746864726177616c2e0000000000000000000000000000000000602082015250565b7f436f756e7465723a2064656372656d656e74206f766572666c6f770000000000600082015250565b7f70726564696374696f6e206d61726b6574206e6f7420636c6f7365642e000000600082015250565b7f796f75206d757374206265207468652061646d696e0000000000000000000000600082015250565b7f796f752063616e206f6e6c7920776974686472617720696620796f752068617660008201527f65206d61646520616e206f70656e2070726564696374696f6e2e000000000000602082015250565b7f796f7520646f6e2774206861766520616e792066756e647320746f207769746860008201527f647261772e000000000000000000000000000000000000000000000000000000602082015250565b7f696e76616c69642070726564696374696f6e2049442e00000000000000000000600082015250565b7f70726564696374696f6e206d61726b6574206e6f74204143544956452e000000600082015250565b7f796f7520656974686572206469646e2774206d616b652061207072656469637460008201527f696f6e206f7220796f7520776974686472657720796f7572207072656469637460208201527f696f6e2e00000000000000000000000000000000000000000000000000000000604082015250565b7f796f75206861766520616c7265616479206265656e2070616964206f75742e00600082015250565b7f70726564696374696f6e206d7573742062652073657420746f20636c6f73656460008201527f2e00000000000000000000000000000000000000000000000000000000000000602082015250565b7f596f75206861766520616c726561647920646f6e6520616e6420656d6572676560008201527f6e63792077697468647261772e00000000000000000000000000000000000000602082015250565b7f796f75206861766520616c7265616479206d61646520796f757220707265646960008201527f6374696f6e2e0000000000000000000000000000000000000000000000000000602082015250565b7f6d7573742073656e6420612076616c75652067726561746572207468616e206d60008201527f696e50726564696374696f6e56616c75652e0000000000000000000000000000602082015250565b7f70726564696374696f6e20646964206e6f7420736574746c6520696e20796f7560008201527f72206661766f722e000000000000000000000000000000000000000000000000602082015250565b7f70726564696374696f6e206973206e6f7420636c61696d61626c652e00000000600082015250565b7f796f75206861766520616c726561647920646f6e6520616e20656d657267656e60008201527f63792077697468647261772e0000000000000000000000000000000000000000602082015250565b7f70726564696374696f6e206e6f74204143544956452e00000000000000000000600082015250565b60048110614be257614be161466c565b5b50565b60048110614bf657614bf561466c565b5b50565b614c0281614452565b8114614c0d57600080fd5b50565b614c1981614476565b8114614c2457600080fd5b50565b614c30816144c8565b8114614c3b57600080fd5b5056fea264697066735822122035a5a90ce5df34a674dec5a13666a3d64996758fb99158cb4211d70fd55b069464736f6c63430008070033",
  "immutableReferences": {},
  "source": "// SPDX-License-Identifier: DO NOT COPY WITH OUT WRITTEN CONSENT.\r\n\r\npragma solidity ^0.8.0;\r\n\r\n\r\nimport \"@openzeppelin/contracts/utils/Counters.sol\";\r\n\r\n\r\ncontract Prediction {\r\n    using Counters for Counters.Counter;\r\n\r\n\r\n    address payable public admin;\r\n\r\n    Counters.Counter public totalPredictionMarkets;\r\n    Counters.Counter public totalActivePredictionMarkets;\r\n    Counters.Counter public totalClosedPredictionMarkets;\r\n    Counters.Counter public totalSettledPredictionMarkets;\r\n    Counters.Counter public totalEmergencyWithdrawPredictionMarkets;\r\n\r\n    // basis points\r\n    uint256 public predictionMarketFee;\r\n    uint256 public userWithdrawADMINFee;\r\n    uint256 public userWithdrawPOOLFee;\r\n    uint256 public minPredictionValue;\r\n\r\n    uint256 public totalPredictionVolume;\r\n\r\n    enum Status{\r\n        Active,\r\n        Closed,\r\n        Settled,\r\n        EmergencyWithdraw\r\n    }\r\n    enum Settlement{\r\n        Yes,\r\n        No,\r\n        Active,\r\n        EmergencyWithdraw\r\n    }\r\n\r\n    struct UserPrediction{\r\n        address payable predictor;\r\n        // uint256 predictorID;\r\n        uint256 predictionAmount;\r\n        uint256 payoutAmount;\r\n        uint256 emergencyWithdrawAmount;\r\n        bool prediction;\r\n        bool hasPredicted;\r\n        bool paidOut;\r\n        bool emergecyWithdraw;\r\n    }\r\n\r\n    struct PredictionData{\r\n        string predictionPhrase;\r\n        uint256 id;\r\n        // uint256 startBlock;\r\n        uint256 endBlock;\r\n        uint256 yesUserNumber;\r\n        uint256 noUserNumber;\r\n        uint256 totalUserNumber;\r\n        uint256 yesBalance;\r\n        uint256 noBalance;\r\n        uint256 totalBalance;\r\n        uint256 totalPaidOut;\r\n        // address[] yesAddresses;\r\n        // address[] noAddresses;\r\n        Status status;\r\n        Settlement settlement;\r\n    }\r\n\r\n    event PredictionMarketActive(\r\n        string phrase,\r\n        uint256 id\r\n    );\r\n\r\n    event PredictionMade(\r\n        address predictor,\r\n        uint256 id,\r\n        uint256 predictionValue,\r\n        uint256 predictionTotalValue,\r\n        uint256 predictionsMade,\r\n        uint256 totalPredictionVolume\r\n    );\r\n\r\n    event PredictionClosed(\r\n        uint256 id,\r\n        uint256 totalUserNumber,\r\n        uint256 totalBalance\r\n    );\r\n\r\n    event PredictionSettled(\r\n        uint256 id,\r\n        uint256 totalUserNumber,\r\n        uint256 totalBalance,\r\n        Settlement Settlement\r\n    );\r\n\r\n    event EmergencyWithdrawalActive(\r\n        uint256 id,\r\n        uint256 totalUsersNumber,\r\n        uint256 totalBalance\r\n    );\r\n\r\n    event UserWithdrawal(\r\n        uint256 id,\r\n        uint256 totalBalance\r\n    );\r\n\r\n\r\n    //Prediction ID -> user address -> user prediction data set\r\n    mapping(uint256 => mapping(address => UserPrediction)) public userPredictions;\r\n\r\n    // Prediction ID -> prediction data\r\n    mapping(uint256 => PredictionData) public predictions;\r\n\r\n    constructor() {\r\n        admin = payable(msg.sender);\r\n        predictionMarketFee = 250;\r\n        userWithdrawADMINFee = 700;\r\n        userWithdrawPOOLFee = 500;\r\n        minPredictionValue = 10000000000000000;\r\n    }\r\n\r\n    modifier onlyAdmin {\r\n        require(msg.sender == admin, \"you must be the admin\");\r\n        _;\r\n    }\r\n\r\n    function createPredictionMarket(string memory _predictionPhrase, uint256 _activeSeconds) public onlyAdmin {\r\n        // require(bytes32(_predictionPhrase) > 0, \"must enter vaid prediction phrase.\");\r\n        totalPredictionMarkets.increment();\r\n        totalActivePredictionMarkets.increment();\r\n        uint256 predictionMarketID = totalPredictionMarkets.current();\r\n        // address[] memory emptyAdressList;\r\n\r\n\r\n        predictions[predictionMarketID] = PredictionData(\r\n                _predictionPhrase,\r\n                predictionMarketID, block.timestamp + _activeSeconds,\r\n                0, 0, 0, 0, 0, 0, 0, Status.Active, Settlement.Active\r\n            );\r\n        // create event\r\n        emit PredictionMarketActive(_predictionPhrase, predictionMarketID);\r\n    }\r\n\r\n    function makePrediction(uint256 _predictionID, bool _prediction) external payable {\r\n        require(msg.value >= minPredictionValue, \"must send a value greater than minPredictionValue.\");\r\n        require(_predictionID > 0 && _predictionID <= totalPredictionMarkets.current(), \"invalid prediction ID.\");\r\n        require(predictions[_predictionID].status == Status.Active, \"prediction not ACTIVE.\");\r\n        bool _userHasPredicted = userPredictions[_predictionID][msg.sender].hasPredicted;\r\n        require(!_userHasPredicted, \"you have already made your prediction.\");\r\n\r\n        if(_prediction) {\r\n            predictions[_predictionID].yesBalance += msg.value;\r\n            predictions[_predictionID].yesUserNumber++;\r\n            userPredictions[_predictionID][msg.sender] = UserPrediction(payable(msg.sender), msg.value, 0, 0, _prediction, true, false, false);\r\n        } else {\r\n            predictions[_predictionID].noBalance += msg.value;\r\n            predictions[_predictionID].noUserNumber++;            \r\n            userPredictions[_predictionID][msg.sender] = UserPrediction(payable(msg.sender), msg.value, 0, 0, _prediction, true, false, false);\r\n        }\r\n\r\n        predictions[_predictionID].totalUserNumber++;\r\n        predictions[_predictionID].totalBalance += msg.value;\r\n        totalPredictionVolume += msg.value;\r\n        \r\n\r\n        emit PredictionMade(\r\n                msg.sender,\r\n                _predictionID,\r\n                msg.value,\r\n                predictions[_predictionID].totalBalance,\r\n                predictions[_predictionID].totalUserNumber,\r\n                totalPredictionVolume\r\n                );\r\n    }\r\n\r\n    function setllePrediction(uint256 _predictionID, bool _settlement) external onlyAdmin {\r\n        {\r\n            require(predictions[_predictionID].status == Status.Closed, \"prediction market not closed.\");\r\n            require(_predictionID > 0 && _predictionID <= totalPredictionMarkets.current(), \"invalid prediction ID.\");\r\n        }\r\n        // uint256 _predictionBalance = predictions[_predictionID].totalBalance;\r\n        // require(_predictionBalance <= (address(this).balance), \"the contract doesn't have enough for payouts.\");\r\n\r\n        uint256 _adminFee = calcFee(predictions[_predictionID].totalBalance, predictionMarketFee);\r\n        // uint256 _payoutSent = 0;\r\n        // _predictionBalance -= _adminFee;\r\n\r\n        predictions[_predictionID].totalPaidOut += _adminFee;\r\n\r\n        admin.transfer(_adminFee);\r\n\r\n        _settlement\r\n            ? predictions[_predictionID].settlement = Settlement.Yes\r\n            : predictions[_predictionID].settlement = Settlement.No;\r\n\r\n        predictions[_predictionID].status = Status.Settled;\r\n        totalClosedPredictionMarkets.decrement();\r\n        totalSettledPredictionMarkets.increment();\r\n\r\n        emit PredictionSettled(\r\n                _predictionID,\r\n                predictions[_predictionID].totalUserNumber,\r\n                predictions[_predictionID].totalBalance,\r\n                predictions[_predictionID].settlement\r\n            );\r\n    }\r\n\r\n    function claim(uint256 _predictionID) external payable returns(uint256 _payout) {\r\n        {\r\n            require(predictions[_predictionID].status == Status.Settled, \"prediction is not claimable.\");\r\n        }\r\n        bool _settlement = predictions[_predictionID].settlement == Settlement.Yes;\r\n        {   \r\n            require(userPredictions[_predictionID][msg.sender].prediction == _settlement, \"prediction did not settle in your favor.\");\r\n\r\n            require(userPredictions[_predictionID][msg.sender].hasPredicted, \"you either didn't make a prediction or you withdrew your prediction.\");\r\n\r\n            require(!userPredictions[_predictionID][msg.sender].paidOut, \"you have already been paid out.\");\r\n        }\r\n\r\n        userPredictions[_predictionID][msg.sender].paidOut = true;\r\n\r\n        // userPredictions[_predictionID][msg.sender];\r\n\r\n        {\r\n            uint256 _predictionBalance = predictions[_predictionID].totalBalance;\r\n            uint256 _adminFee = calcFee(_predictionBalance, predictionMarketFee);\r\n            uint256 _balMinusFee = _predictionBalance - _adminFee;\r\n\r\n            uint256 userBal = _settlement ? (predictions[_predictionID].yesBalance) : (predictions[_predictionID].noBalance);\r\n\r\n            uint256 _payoutBP = (userPredictions[_predictionID][msg.sender].predictionAmount * 10000) / userBal;\r\n            _payout = (_balMinusFee * _payoutBP) / 10000;\r\n\r\n            predictions[_predictionID].totalPaidOut += _payout;\r\n        }\r\n\r\n        {\r\n            require(userPredictions[_predictionID][msg.sender].payoutAmount == 0, \"you have already been paid out.\");\r\n        }\r\n        userPredictions[_predictionID][msg.sender].payoutAmount = _payout;\r\n        payable(msg.sender).transfer(_payout);\r\n\r\n    }\r\n\r\n    function closePrediction(uint256 _predictionID) public onlyAdmin {\r\n        require(_predictionID > 0 && _predictionID <= totalPredictionMarkets.current(), \"invalid prediction ID.\");\r\n        require(predictions[_predictionID].status == Status.Active, \"prediction market not ACTIVE.\");\r\n        predictions[_predictionID].status = Status.Closed;\r\n        totalActivePredictionMarkets.decrement();\r\n        totalClosedPredictionMarkets.increment();\r\n        emit PredictionClosed(_predictionID, predictions[_predictionID].totalUserNumber, predictions[_predictionID].totalBalance );\r\n    }\r\n\r\n    function fetchAllMarkets() public view returns (PredictionData[] memory) {\r\n        uint256 totalMarkets = totalPredictionMarkets.current();\r\n        uint256 _currentIndex = 0;\r\n        PredictionData[] memory _result = new PredictionData[](totalMarkets);\r\n        for(uint256 i = 1; i <= totalMarkets; i++) {\r\n            uint256 _predictionID = i;\r\n            PredictionData memory _currentPredictionData = predictions[_predictionID];\r\n            _result[_currentIndex] = _currentPredictionData;\r\n            _currentIndex++;\r\n        }\r\n        return _result;\r\n    }\r\n\r\n    function fetchAllActiveMarkets() public view returns (PredictionData[] memory) {\r\n        uint256 activeMarkets = totalActivePredictionMarkets.current();\r\n        uint256 totalMarkets = totalPredictionMarkets.current();\r\n        \r\n        uint256 _currentIndex = 0;\r\n        PredictionData[] memory _result = new PredictionData[](activeMarkets);\r\n        for(uint256 i = 1; i <= totalMarkets; i++) {\r\n            uint256 _predictionID = i;\r\n            bool _active = predictions[_predictionID].status == Status.Active;\r\n            if(_active) {\r\n                PredictionData memory _currentPredictionData = predictions[_predictionID];\r\n                _result[_currentIndex] = _currentPredictionData;\r\n                _currentIndex++;\r\n            }\r\n        }\r\n        return _result;\r\n    }\r\n    function fetchAllClosedMarkets() public view returns (PredictionData[] memory) {\r\n        uint256 totalMarkets = totalPredictionMarkets.current();\r\n        uint256 closedMarkets = totalClosedPredictionMarkets.current();\r\n        uint256 _currentIndex = 0;\r\n        PredictionData[] memory _result = new PredictionData[](closedMarkets);\r\n        for(uint256 i = 1; i <= totalMarkets; i++) {\r\n            uint256 _predictionID = i;\r\n            bool _closed = predictions[_predictionID].status == Status.Closed;\r\n            if(_closed) {\r\n                PredictionData memory _currentPredictionData = predictions[_predictionID];\r\n                _result[_currentIndex] = _currentPredictionData;\r\n                _currentIndex++;\r\n            }\r\n        }\r\n        return _result;\r\n    }\r\n    function fetchAllSettledMarkets() public view returns (PredictionData[] memory) {\r\n        uint256 totalMarkets = totalPredictionMarkets.current();\r\n        uint256 settledMarkets = totalSettledPredictionMarkets.current();\r\n        uint256 _currentIndex = 0;\r\n        PredictionData[] memory _result = new PredictionData[](settledMarkets);\r\n        for(uint256 i = 1; i <= totalMarkets; i++) {\r\n            uint256 _predictionID = i;\r\n            bool _Settled = predictions[_predictionID].status == Status.Settled;\r\n            if(_Settled) {\r\n                PredictionData memory _currentPredictionData = predictions[_predictionID];\r\n                _result[_currentIndex] = _currentPredictionData;\r\n                _currentIndex++;\r\n            }\r\n        }\r\n        return _result;\r\n    }\r\n\r\n    function updateAdmin(address _newAdmin) public onlyAdmin returns (bool){\r\n        admin = payable(_newAdmin);\r\n        return true;\r\n    }\r\n    function updatePredictionMarketFee(uint256 _newPredictionMarketFee) public onlyAdmin returns (bool){\r\n        predictionMarketFee = _newPredictionMarketFee;\r\n        return true;\r\n    }\r\n\r\n    function calcFee(uint256 _amountValue, uint256 _fee) internal pure returns(uint256) {\r\n        // require((_amountValue / 10000) * 10000 == _amountValue, \"too small\");\r\n        uint256 fee = 0;\r\n        if((_amountValue / 10000) * 10000 == _amountValue) {\r\n            _amountValue = _amountValue;\r\n            fee = _amountValue * _fee / 10000;\r\n        }\r\n        return fee;\r\n    }\r\n\r\n    function emergencyWithdrawal(uint256 _predictionID) external payable returns(uint256 _amount) {\r\n        require(predictions[_predictionID].status == Status.EmergencyWithdraw, \"prediction must be set as Emergency Withdrawal.\");\r\n        require(userPredictions[_predictionID][msg.sender].emergecyWithdraw == false, \"you have already done an emergency withdraw.\");\r\n        userPredictions[_predictionID][msg.sender].emergecyWithdraw = true;\r\n    \r\n        _amount = userPredictions[_predictionID][msg.sender].predictionAmount;\r\n        userPredictions[_predictionID][msg.sender].predictionAmount = 0;\r\n\r\n        require(userPredictions[_predictionID][msg.sender].emergencyWithdrawAmount == 0, \"You have already done and emergency withdraw.\");\r\n\r\n        userPredictions[_predictionID][msg.sender].emergencyWithdrawAmount = _amount;\r\n\r\n\r\n        payable(msg.sender).transfer(_amount);\r\n    }\r\n\r\n    function enableEmergencyWithdraw(uint256 _predictionID) external onlyAdmin {\r\n        require(predictions[_predictionID].status == Status.Closed, \"prediction must be set to closed.\");\r\n        \r\n        totalClosedPredictionMarkets.decrement();\r\n        totalEmergencyWithdrawPredictionMarkets.increment();\r\n        totalSettledPredictionMarkets.increment();\r\n\r\n        predictions[_predictionID].status = Status.Settled;\r\n        predictions[_predictionID].settlement = Settlement.EmergencyWithdraw;\r\n\r\n        emit EmergencyWithdrawalActive(\r\n                _predictionID,\r\n                predictions[_predictionID].totalUserNumber,\r\n                predictions[_predictionID].totalBalance\r\n            );\r\n\r\n    }\r\n    \r\n    function userWithdraw(uint256 _predictionID) external payable {\r\n        {\r\n            require(_predictionID > 0 && _predictionID <= totalPredictionMarkets.current(), \"invalid prediction ID.\");\r\n            require(predictions[_predictionID].status == Status.Active, \"prediction not ACTIVE.\");\r\n        }\r\n        uint256 _userPredictionAmount = userPredictions[_predictionID][msg.sender].predictionAmount;\r\n        uint256 _userOriginalAmount = userPredictions[_predictionID][msg.sender].predictionAmount;\r\n        uint256 _adminFee = calcFee(_userPredictionAmount, userWithdrawADMINFee);\r\n        uint256 _poolFee = calcFee(_userPredictionAmount, userWithdrawPOOLFee);\r\n        uint256 _totalFees = _adminFee + _poolFee;\r\n\r\n\r\n        _userPredictionAmount -= _totalFees;\r\n\r\n        admin.transfer(_adminFee);\r\n\r\n        bool _userHasPredicted = userPredictions[_predictionID][msg.sender].hasPredicted;\r\n        {\r\n            require(_userHasPredicted, \"you can only withdraw if you have made an open prediction.\");\r\n        }\r\n        \r\n        require(_userPredictionAmount > 0, \"you don't have any funds to withdraw.\");\r\n        userPredictions[_predictionID][msg.sender].predictionAmount = 0;\r\n        userPredictions[_predictionID][msg.sender].hasPredicted = false;\r\n        payable(msg.sender).transfer(_userPredictionAmount);\r\n\r\n\r\n        uint256 _deductionFromTotalBalance = _userPredictionAmount + _adminFee;\r\n        predictions[_predictionID].totalBalance -= _deductionFromTotalBalance;\r\n\r\n        if(userPredictions[_predictionID][msg.sender].prediction) {\r\n            // predictions[_predictionID].yesBalance -= _deductionFromTotalBalance;\r\n            predictions[_predictionID].yesBalance -= _userOriginalAmount;\r\n            predictions[_predictionID].yesUserNumber--;\r\n        } else {\r\n            // predictions[_predictionID].noBalance -= _deductionFromTotalBalance;\r\n            predictions[_predictionID].noBalance -= _userOriginalAmount;\r\n            predictions[_predictionID].noUserNumber--;\r\n        }\r\n        predictions[_predictionID].totalUserNumber--;\r\n\r\n        emit UserWithdrawal(_predictionID, predictions[_predictionID].totalBalance);\r\n    }\r\n}\r\n",
  "sourcePath": "C:/Users/mttca/coinopolis/cryptalballz/src/backEnd/contracts/Prediction.sol",
  "compiler": {
    "name": "solc",
    "version": "0.8.7+commit.e28d00a7.Emscripten.clang"
  },
  "schemaVersion": "3.3.3",
  "updatedAt": "2023-05-18T17:44:29.801Z",
  "devdoc": {
    "kind": "dev",
    "methods": {},
    "version": 1
  },
  "userdoc": {
    "kind": "user",
    "methods": {},
    "version": 1
  }
}