{
  "contractName": "PredictionOld",
  "abi": [
    {
      "inputs": [],
      "stateMutability": "nonpayable",
      "type": "constructor"
    },
    {
      "anonymous": false,
      "inputs": [
        {
          "indexed": false,
          "internalType": "uint256",
          "name": "id",
          "type": "uint256"
        },
        {
          "indexed": false,
          "internalType": "uint256",
          "name": "totalUsersNumber",
          "type": "uint256"
        },
        {
          "indexed": false,
          "internalType": "uint256",
          "name": "totalBalance",
          "type": "uint256"
        }
      ],
      "name": "EmergencyWithdrawal",
      "type": "event"
    },
    {
      "anonymous": false,
      "inputs": [
        {
          "indexed": false,
          "internalType": "uint256",
          "name": "id",
          "type": "uint256"
        },
        {
          "indexed": false,
          "internalType": "uint256",
          "name": "totalUserNumber",
          "type": "uint256"
        },
        {
          "indexed": false,
          "internalType": "uint256",
          "name": "totalBalance",
          "type": "uint256"
        }
      ],
      "name": "PredictionClosed",
      "type": "event"
    },
    {
      "anonymous": false,
      "inputs": [
        {
          "indexed": false,
          "internalType": "address",
          "name": "predictor",
          "type": "address"
        },
        {
          "indexed": false,
          "internalType": "uint256",
          "name": "id",
          "type": "uint256"
        },
        {
          "indexed": false,
          "internalType": "uint256",
          "name": "predictionValue",
          "type": "uint256"
        },
        {
          "indexed": false,
          "internalType": "uint256",
          "name": "predictionTotalValue",
          "type": "uint256"
        },
        {
          "indexed": false,
          "internalType": "uint256",
          "name": "predictionsMade",
          "type": "uint256"
        },
        {
          "indexed": false,
          "internalType": "uint256",
          "name": "totalPredictionVolume",
          "type": "uint256"
        }
      ],
      "name": "PredictionMade",
      "type": "event"
    },
    {
      "anonymous": false,
      "inputs": [
        {
          "indexed": false,
          "internalType": "string",
          "name": "phrase",
          "type": "string"
        },
        {
          "indexed": false,
          "internalType": "uint256",
          "name": "id",
          "type": "uint256"
        }
      ],
      "name": "PredictionMarketActive",
      "type": "event"
    },
    {
      "anonymous": false,
      "inputs": [
        {
          "indexed": false,
          "internalType": "uint256",
          "name": "id",
          "type": "uint256"
        },
        {
          "indexed": false,
          "internalType": "uint256",
          "name": "totalUserNumber",
          "type": "uint256"
        },
        {
          "indexed": false,
          "internalType": "uint256",
          "name": "totalBalance",
          "type": "uint256"
        },
        {
          "indexed": false,
          "internalType": "enum PredictionOld.Settlement",
          "name": "Settlement",
          "type": "uint8"
        }
      ],
      "name": "PredictionSettled",
      "type": "event"
    },
    {
      "anonymous": false,
      "inputs": [
        {
          "indexed": false,
          "internalType": "uint256",
          "name": "id",
          "type": "uint256"
        },
        {
          "indexed": false,
          "internalType": "uint256",
          "name": "totalBalance",
          "type": "uint256"
        }
      ],
      "name": "UserWithdrawal",
      "type": "event"
    },
    {
      "inputs": [],
      "name": "admin",
      "outputs": [
        {
          "internalType": "address payable",
          "name": "",
          "type": "address"
        }
      ],
      "stateMutability": "view",
      "type": "function"
    },
    {
      "inputs": [],
      "name": "minPredictionValue",
      "outputs": [
        {
          "internalType": "uint256",
          "name": "",
          "type": "uint256"
        }
      ],
      "stateMutability": "view",
      "type": "function"
    },
    {
      "inputs": [],
      "name": "predictionMarketFee",
      "outputs": [
        {
          "internalType": "uint256",
          "name": "",
          "type": "uint256"
        }
      ],
      "stateMutability": "view",
      "type": "function"
    },
    {
      "inputs": [
        {
          "internalType": "uint256",
          "name": "",
          "type": "uint256"
        }
      ],
      "name": "predictions",
      "outputs": [
        {
          "internalType": "string",
          "name": "predictionPhrase",
          "type": "string"
        },
        {
          "internalType": "uint256",
          "name": "id",
          "type": "uint256"
        },
        {
          "internalType": "uint256",
          "name": "startBlock",
          "type": "uint256"
        },
        {
          "internalType": "uint256",
          "name": "endBlock",
          "type": "uint256"
        },
        {
          "internalType": "uint256",
          "name": "yesUserNumber",
          "type": "uint256"
        },
        {
          "internalType": "uint256",
          "name": "noUserNumber",
          "type": "uint256"
        },
        {
          "internalType": "uint256",
          "name": "totalUserNumber",
          "type": "uint256"
        },
        {
          "internalType": "uint256",
          "name": "yesBalance",
          "type": "uint256"
        },
        {
          "internalType": "uint256",
          "name": "noBalance",
          "type": "uint256"
        },
        {
          "internalType": "uint256",
          "name": "totalBalance",
          "type": "uint256"
        },
        {
          "internalType": "enum PredictionOld.Status",
          "name": "status",
          "type": "uint8"
        },
        {
          "internalType": "enum PredictionOld.Settlement",
          "name": "settlement",
          "type": "uint8"
        }
      ],
      "stateMutability": "view",
      "type": "function"
    },
    {
      "inputs": [],
      "name": "totalActivePredictionMarkets",
      "outputs": [
        {
          "internalType": "uint256",
          "name": "_value",
          "type": "uint256"
        }
      ],
      "stateMutability": "view",
      "type": "function"
    },
    {
      "inputs": [],
      "name": "totalClosedPredictionMarkets",
      "outputs": [
        {
          "internalType": "uint256",
          "name": "_value",
          "type": "uint256"
        }
      ],
      "stateMutability": "view",
      "type": "function"
    },
    {
      "inputs": [],
      "name": "totalEmergencyWithdrawPredictionMarkets",
      "outputs": [
        {
          "internalType": "uint256",
          "name": "_value",
          "type": "uint256"
        }
      ],
      "stateMutability": "view",
      "type": "function"
    },
    {
      "inputs": [],
      "name": "totalPredictionMarkets",
      "outputs": [
        {
          "internalType": "uint256",
          "name": "_value",
          "type": "uint256"
        }
      ],
      "stateMutability": "view",
      "type": "function"
    },
    {
      "inputs": [],
      "name": "totalPredictionVolume",
      "outputs": [
        {
          "internalType": "uint256",
          "name": "",
          "type": "uint256"
        }
      ],
      "stateMutability": "view",
      "type": "function"
    },
    {
      "inputs": [],
      "name": "totalSettledPredictionMarkets",
      "outputs": [
        {
          "internalType": "uint256",
          "name": "_value",
          "type": "uint256"
        }
      ],
      "stateMutability": "view",
      "type": "function"
    },
    {
      "inputs": [
        {
          "internalType": "uint256",
          "name": "",
          "type": "uint256"
        },
        {
          "internalType": "address",
          "name": "",
          "type": "address"
        }
      ],
      "name": "userPredictions",
      "outputs": [
        {
          "internalType": "address payable",
          "name": "predictor",
          "type": "address"
        },
        {
          "internalType": "uint256",
          "name": "predictionAmount",
          "type": "uint256"
        },
        {
          "internalType": "uint256",
          "name": "payoutAmount",
          "type": "uint256"
        },
        {
          "internalType": "bool",
          "name": "prediction",
          "type": "bool"
        },
        {
          "internalType": "bool",
          "name": "hasPredicted",
          "type": "bool"
        }
      ],
      "stateMutability": "view",
      "type": "function"
    },
    {
      "inputs": [],
      "name": "userWithdrawADMINFee",
      "outputs": [
        {
          "internalType": "uint256",
          "name": "",
          "type": "uint256"
        }
      ],
      "stateMutability": "view",
      "type": "function"
    },
    {
      "inputs": [],
      "name": "userWithdrawPOOLFee",
      "outputs": [
        {
          "internalType": "uint256",
          "name": "",
          "type": "uint256"
        }
      ],
      "stateMutability": "view",
      "type": "function"
    },
    {
      "inputs": [
        {
          "internalType": "string",
          "name": "_predictionPhrase",
          "type": "string"
        },
        {
          "internalType": "uint256",
          "name": "_activeSeconds",
          "type": "uint256"
        }
      ],
      "name": "createPredictionMarket",
      "outputs": [],
      "stateMutability": "nonpayable",
      "type": "function"
    },
    {
      "inputs": [
        {
          "internalType": "uint256",
          "name": "_predictionID",
          "type": "uint256"
        },
        {
          "internalType": "bool",
          "name": "_prediction",
          "type": "bool"
        }
      ],
      "name": "makePrediction",
      "outputs": [],
      "stateMutability": "payable",
      "type": "function"
    },
    {
      "inputs": [
        {
          "internalType": "uint256",
          "name": "_predictionID",
          "type": "uint256"
        },
        {
          "internalType": "bool",
          "name": "_settlement",
          "type": "bool"
        }
      ],
      "name": "setllePrediction",
      "outputs": [],
      "stateMutability": "payable",
      "type": "function"
    },
    {
      "inputs": [
        {
          "internalType": "uint256",
          "name": "_predictionID",
          "type": "uint256"
        }
      ],
      "name": "closePrediction",
      "outputs": [],
      "stateMutability": "nonpayable",
      "type": "function"
    },
    {
      "inputs": [],
      "name": "fetchAllMarkets",
      "outputs": [
        {
          "components": [
            {
              "internalType": "string",
              "name": "predictionPhrase",
              "type": "string"
            },
            {
              "internalType": "uint256",
              "name": "id",
              "type": "uint256"
            },
            {
              "internalType": "uint256",
              "name": "startBlock",
              "type": "uint256"
            },
            {
              "internalType": "uint256",
              "name": "endBlock",
              "type": "uint256"
            },
            {
              "internalType": "uint256",
              "name": "yesUserNumber",
              "type": "uint256"
            },
            {
              "internalType": "uint256",
              "name": "noUserNumber",
              "type": "uint256"
            },
            {
              "internalType": "uint256",
              "name": "totalUserNumber",
              "type": "uint256"
            },
            {
              "internalType": "uint256",
              "name": "yesBalance",
              "type": "uint256"
            },
            {
              "internalType": "uint256",
              "name": "noBalance",
              "type": "uint256"
            },
            {
              "internalType": "uint256",
              "name": "totalBalance",
              "type": "uint256"
            },
            {
              "internalType": "address[]",
              "name": "yesAddresses",
              "type": "address[]"
            },
            {
              "internalType": "address[]",
              "name": "noAddresses",
              "type": "address[]"
            },
            {
              "internalType": "enum PredictionOld.Status",
              "name": "status",
              "type": "uint8"
            },
            {
              "internalType": "enum PredictionOld.Settlement",
              "name": "settlement",
              "type": "uint8"
            }
          ],
          "internalType": "struct PredictionOld.PredictionData[]",
          "name": "",
          "type": "tuple[]"
        }
      ],
      "stateMutability": "view",
      "type": "function"
    },
    {
      "inputs": [],
      "name": "fetchAllActiveMarkets",
      "outputs": [
        {
          "components": [
            {
              "internalType": "string",
              "name": "predictionPhrase",
              "type": "string"
            },
            {
              "internalType": "uint256",
              "name": "id",
              "type": "uint256"
            },
            {
              "internalType": "uint256",
              "name": "startBlock",
              "type": "uint256"
            },
            {
              "internalType": "uint256",
              "name": "endBlock",
              "type": "uint256"
            },
            {
              "internalType": "uint256",
              "name": "yesUserNumber",
              "type": "uint256"
            },
            {
              "internalType": "uint256",
              "name": "noUserNumber",
              "type": "uint256"
            },
            {
              "internalType": "uint256",
              "name": "totalUserNumber",
              "type": "uint256"
            },
            {
              "internalType": "uint256",
              "name": "yesBalance",
              "type": "uint256"
            },
            {
              "internalType": "uint256",
              "name": "noBalance",
              "type": "uint256"
            },
            {
              "internalType": "uint256",
              "name": "totalBalance",
              "type": "uint256"
            },
            {
              "internalType": "address[]",
              "name": "yesAddresses",
              "type": "address[]"
            },
            {
              "internalType": "address[]",
              "name": "noAddresses",
              "type": "address[]"
            },
            {
              "internalType": "enum PredictionOld.Status",
              "name": "status",
              "type": "uint8"
            },
            {
              "internalType": "enum PredictionOld.Settlement",
              "name": "settlement",
              "type": "uint8"
            }
          ],
          "internalType": "struct PredictionOld.PredictionData[]",
          "name": "",
          "type": "tuple[]"
        }
      ],
      "stateMutability": "view",
      "type": "function"
    },
    {
      "inputs": [],
      "name": "fetchAllClosedMarkets",
      "outputs": [
        {
          "components": [
            {
              "internalType": "string",
              "name": "predictionPhrase",
              "type": "string"
            },
            {
              "internalType": "uint256",
              "name": "id",
              "type": "uint256"
            },
            {
              "internalType": "uint256",
              "name": "startBlock",
              "type": "uint256"
            },
            {
              "internalType": "uint256",
              "name": "endBlock",
              "type": "uint256"
            },
            {
              "internalType": "uint256",
              "name": "yesUserNumber",
              "type": "uint256"
            },
            {
              "internalType": "uint256",
              "name": "noUserNumber",
              "type": "uint256"
            },
            {
              "internalType": "uint256",
              "name": "totalUserNumber",
              "type": "uint256"
            },
            {
              "internalType": "uint256",
              "name": "yesBalance",
              "type": "uint256"
            },
            {
              "internalType": "uint256",
              "name": "noBalance",
              "type": "uint256"
            },
            {
              "internalType": "uint256",
              "name": "totalBalance",
              "type": "uint256"
            },
            {
              "internalType": "address[]",
              "name": "yesAddresses",
              "type": "address[]"
            },
            {
              "internalType": "address[]",
              "name": "noAddresses",
              "type": "address[]"
            },
            {
              "internalType": "enum PredictionOld.Status",
              "name": "status",
              "type": "uint8"
            },
            {
              "internalType": "enum PredictionOld.Settlement",
              "name": "settlement",
              "type": "uint8"
            }
          ],
          "internalType": "struct PredictionOld.PredictionData[]",
          "name": "",
          "type": "tuple[]"
        }
      ],
      "stateMutability": "view",
      "type": "function"
    },
    {
      "inputs": [],
      "name": "fetchAllSettledMarkets",
      "outputs": [
        {
          "components": [
            {
              "internalType": "string",
              "name": "predictionPhrase",
              "type": "string"
            },
            {
              "internalType": "uint256",
              "name": "id",
              "type": "uint256"
            },
            {
              "internalType": "uint256",
              "name": "startBlock",
              "type": "uint256"
            },
            {
              "internalType": "uint256",
              "name": "endBlock",
              "type": "uint256"
            },
            {
              "internalType": "uint256",
              "name": "yesUserNumber",
              "type": "uint256"
            },
            {
              "internalType": "uint256",
              "name": "noUserNumber",
              "type": "uint256"
            },
            {
              "internalType": "uint256",
              "name": "totalUserNumber",
              "type": "uint256"
            },
            {
              "internalType": "uint256",
              "name": "yesBalance",
              "type": "uint256"
            },
            {
              "internalType": "uint256",
              "name": "noBalance",
              "type": "uint256"
            },
            {
              "internalType": "uint256",
              "name": "totalBalance",
              "type": "uint256"
            },
            {
              "internalType": "address[]",
              "name": "yesAddresses",
              "type": "address[]"
            },
            {
              "internalType": "address[]",
              "name": "noAddresses",
              "type": "address[]"
            },
            {
              "internalType": "enum PredictionOld.Status",
              "name": "status",
              "type": "uint8"
            },
            {
              "internalType": "enum PredictionOld.Settlement",
              "name": "settlement",
              "type": "uint8"
            }
          ],
          "internalType": "struct PredictionOld.PredictionData[]",
          "name": "",
          "type": "tuple[]"
        }
      ],
      "stateMutability": "view",
      "type": "function"
    },
    {
      "inputs": [
        {
          "internalType": "address",
          "name": "_newAdmin",
          "type": "address"
        }
      ],
      "name": "updateAdmin",
      "outputs": [
        {
          "internalType": "bool",
          "name": "",
          "type": "bool"
        }
      ],
      "stateMutability": "nonpayable",
      "type": "function"
    },
    {
      "inputs": [
        {
          "internalType": "uint256",
          "name": "_newPredictionMarketFee",
          "type": "uint256"
        }
      ],
      "name": "updatePredictionMarketFee",
      "outputs": [
        {
          "internalType": "bool",
          "name": "",
          "type": "bool"
        }
      ],
      "stateMutability": "nonpayable",
      "type": "function"
    },
    {
      "inputs": [
        {
          "internalType": "uint256",
          "name": "_predictionID",
          "type": "uint256"
        }
      ],
      "name": "emergencyWithdrawal",
      "outputs": [],
      "stateMutability": "payable",
      "type": "function"
    },
    {
      "inputs": [
        {
          "internalType": "uint256",
          "name": "_predictionID",
          "type": "uint256"
        }
      ],
      "name": "userWithdraw",
      "outputs": [],
      "stateMutability": "payable",
      "type": "function"
    }
  ],
  "bytecode": "0x608060405234801561001057600080fd5b50336000806101000a81548173ffffffffffffffffffffffffffffffffffffffff021916908373ffffffffffffffffffffffffffffffffffffffff16021790555060fa6006819055506102bc6007819055506101f4600881905550662386f26fc100006009819055506150b1806100886000396000f3fe6080604052600436106101645760003560e01c80638c79791e116100d1578063d0fe57741161008a578063e2f273bd11610064578063e2f273bd146104f5578063f851a44014610532578063f9b56fd91461055d578063f9c1717e1461058857610164565b8063d0fe577414610476578063d2c7b1d51461049f578063d5663682146104ca57610164565b80638c79791e1461037c57806398a57b1f146103a7578063a1ac6d0a146103e8578063b0d6f59c14610413578063ba3637fe1461042f578063c64799901461045a57610164565b80635379710111610123578063537971011461026a5780635c0543511461029557806360b67703146102d257806367a3144a146102fd5780636b959fe114610328578063897871e31461035357610164565b806239522c146101695780624fbbb0146101855780630da11f20146101cd57806320c72ab9146101f8578063355fcb33146102235780633b9056bf1461024e575b600080fd5b610183600480360381019061017e9190613f4a565b6105b3565b005b34801561019157600080fd5b506101ac60048036038101906101a79190613f4a565b610cc9565b6040516101c49c9b9a999897969594939291906145f7565b60405180910390f35b3480156101d957600080fd5b506101e2610dcb565b6040516101ef9190614818565b60405180910390f35b34801561020457600080fd5b5061020d610dd1565b60405161021a919061458a565b60405180910390f35b34801561022f57600080fd5b5061023861113a565b6040516102459190614818565b60405180910390f35b61026860048036038101906102639190613f4a565b611140565b005b34801561027657600080fd5b5061027f611684565b60405161028c9190614818565b60405180910390f35b3480156102a157600080fd5b506102bc60048036038101906102b79190613f4a565b61168a565b6040516102c991906145ac565b60405180910390f35b3480156102de57600080fd5b506102e761172b565b6040516102f49190614818565b60405180910390f35b34801561030957600080fd5b50610312611737565b60405161031f919061458a565b60405180910390f35b34801561033457600080fd5b5061033d611b06565b60405161034a9190614818565b60405180910390f35b34801561035f57600080fd5b5061037a60048036038101906103759190613f4a565b611b12565b005b34801561038857600080fd5b50610391611d3f565b60405161039e9190614818565b60405180910390f35b3480156103b357600080fd5b506103ce60048036038101906103c99190613f77565b611d45565b6040516103df9594939291906144d6565b60405180910390f35b3480156103f457600080fd5b506103fd611dc2565b60405161040a9190614818565b60405180910390f35b61042d60048036038101906104289190613fb7565b611dc8565b005b34801561043b57600080fd5b5061044461264a565b6040516104519190614818565b60405180910390f35b610474600480360381019061046f9190613fb7565b612656565b005b34801561048257600080fd5b5061049d60048036038101906104989190613eee565b61301f565b005b3480156104ab57600080fd5b506104b46132d2565b6040516104c19190614818565b60405180910390f35b3480156104d657600080fd5b506104df6132de565b6040516104ec919061458a565b60405180910390f35b34801561050157600080fd5b5061051c60048036038101906105179190613ec1565b6136ad565b60405161052991906145ac565b60405180910390f35b34801561053e57600080fd5b50610547613787565b60405161055491906144bb565b60405180910390f35b34801561056957600080fd5b506105726137ab565b60405161057f9190614818565b60405180910390f35b34801561059457600080fd5b5061059d6137b7565b6040516105aa919061458a565b60405180910390f35b60008054906101000a900473ffffffffffffffffffffffffffffffffffffffff1673ffffffffffffffffffffffffffffffffffffffff163373ffffffffffffffffffffffffffffffffffffffff1614610641576040517f08c379a0000000000000000000000000000000000000000000000000000000008152600401610638906146f8565b60405180910390fd5b6001600381111561065557610654614cd2565b5b600c6000838152602001908152602001600020600c0160009054906101000a900460ff16600381111561068b5761068a614cd2565b5b146106cb576040517f08c379a00000000000000000000000000000000000000000000000000000000081526004016106c290614778565b60405180910390fd5b6000600c600083815260200190815260200160002060040154905060005b8181101561091c576000600c6000858152602001908152602001600020600a01828154811061071b5761071a614d30565b5b9060005260206000200160009054906101000a900473ffffffffffffffffffffffffffffffffffffffff1690506000600b600086815260200190815260200160002060008373ffffffffffffffffffffffffffffffffffffffff1673ffffffffffffffffffffffffffffffffffffffff1681526020019081526020016000206040518060a00160405290816000820160009054906101000a900473ffffffffffffffffffffffffffffffffffffffff1673ffffffffffffffffffffffffffffffffffffffff1673ffffffffffffffffffffffffffffffffffffffff16815260200160018201548152602001600282015481526020016003820160009054906101000a900460ff161515151581526020016003820160019054906101000a900460ff161515151581525050905080608001518015610859575080606001515b1561090757806000015173ffffffffffffffffffffffffffffffffffffffff166108fc82602001519081150290604051600060405180830381858888f193505050501580156108ac573d6000803e3d6000fd5b506000600b600087815260200190815260200160002060008473ffffffffffffffffffffffffffffffffffffffff1673ffffffffffffffffffffffffffffffffffffffff168152602001908152602001600020600101819055505b5050808061091490614c2b565b9150506106e9565b506000600c600084815260200190815260200160002060050154905060005b81811015610b6f576000600c6000868152602001908152602001600020600b01828154811061096d5761096c614d30565b5b9060005260206000200160009054906101000a900473ffffffffffffffffffffffffffffffffffffffff1690506000600b600087815260200190815260200160002060008373ffffffffffffffffffffffffffffffffffffffff1673ffffffffffffffffffffffffffffffffffffffff1681526020019081526020016000206040518060a00160405290816000820160009054906101000a900473ffffffffffffffffffffffffffffffffffffffff1673ffffffffffffffffffffffffffffffffffffffff1673ffffffffffffffffffffffffffffffffffffffff16815260200160018201548152602001600282015481526020016003820160009054906101000a900460ff161515151581526020016003820160019054906101000a900460ff161515151581525050905080608001518015610aac57508060600151155b15610b5a57806000015173ffffffffffffffffffffffffffffffffffffffff166108fc82602001519081150290604051600060405180830381858888f19350505050158015610aff573d6000803e3d6000fd5b506000600b600088815260200190815260200160002060008473ffffffffffffffffffffffffffffffffffffffff1673ffffffffffffffffffffffffffffffffffffffff168152602001908152602001600020600101819055505b50508080610b6790614c2b565b91505061093b565b5060016003811115610b8457610b83614cd2565b5b600c6000858152602001908152602001600020600c0160009054906101000a900460ff166003811115610bba57610bb9614cd2565b5b1415610bcb57610bca6003613b85565b5b610bd56005613be1565b610bdf6004613be1565b6002600c6000858152602001908152602001600020600c0160006101000a81548160ff02191690836003811115610c1957610c18614cd2565b5b02179055506003600c6000858152602001908152602001600020600c0160016101000a81548160ff02191690836003811115610c5857610c57614cd2565b5b02179055507f19d44093e59025ce1f17f63d4e03b163b9676f3f34683e432730ea0e4c0be89083600c600086815260200190815260200160002060060154600c600087815260200190815260200160002060090154604051610cbc9392919061485c565b60405180910390a1505050565b600c602052806000526040600020600091509050806000018054610cec90614bc8565b80601f0160208091040260200160405190810160405280929190818152602001828054610d1890614bc8565b8015610d655780601f10610d3a57610100808354040283529160200191610d65565b820191906000526020600020905b815481529060010190602001808311610d4857829003601f168201915b50505050509080600101549080600201549080600301549080600401549080600501549080600601549080600701549080600801549080600901549080600c0160009054906101000a900460ff169080600c0160019054906101000a900460ff1690508c565b60065481565b60606000610ddf6001613bf7565b90506000808267ffffffffffffffff811115610dfe57610dfd614d5f565b5b604051908082528060200260200182016040528015610e3757816020015b610e24613c52565b815260200190600190039081610e1c5790505b5090506000600190505b8381116111305760008190506000600c6000838152602001908152602001600020604051806101c0016040529081600082018054610e7e90614bc8565b80601f0160208091040260200160405190810160405280929190818152602001828054610eaa90614bc8565b8015610ef75780601f10610ecc57610100808354040283529160200191610ef7565b820191906000526020600020905b815481529060010190602001808311610eda57829003601f168201915b50505050508152602001600182015481526020016002820154815260200160038201548152602001600482015481526020016005820154815260200160068201548152602001600782015481526020016008820154815260200160098201548152602001600a8201805480602002602001604051908101604052809291908181526020018280548015610fdf57602002820191906000526020600020905b8160009054906101000a900473ffffffffffffffffffffffffffffffffffffffff1673ffffffffffffffffffffffffffffffffffffffff1681526020019060010190808311610f95575b50505050508152602001600b820180548060200260200160405190810160405280929190818152602001828054801561106d57602002820191906000526020600020905b8160009054906101000a900473ffffffffffffffffffffffffffffffffffffffff1673ffffffffffffffffffffffffffffffffffffffff1681526020019060010190808311611023575b50505050508152602001600c820160009054906101000a900460ff16600381111561109b5761109a614cd2565b5b60038111156110ad576110ac614cd2565b5b8152602001600c820160019054906101000a900460ff1660038111156110d6576110d5614cd2565b5b60038111156110e8576110e7614cd2565b5b8152505090508084868151811061110257611101614d30565b5b6020026020010181905250848061111890614c2b565b9550505050808061112890614c2b565b915050610e41565b5080935050505090565b60095481565b60008111801561115957506111556001613bf7565b8111155b611198576040517f08c379a000000000000000000000000000000000000000000000000000000000815260040161118f90614758565b60405180910390fd5b600060038111156111ac576111ab614cd2565b5b600c6000838152602001908152602001600020600c0160009054906101000a900460ff1660038111156111e2576111e1614cd2565b5b14611222576040517f08c379a0000000000000000000000000000000000000000000000000000000008152600401611219906147f8565b60405180910390fd5b6000600b600083815260200190815260200160002060003373ffffffffffffffffffffffffffffffffffffffff1673ffffffffffffffffffffffffffffffffffffffff16815260200190815260200160002060030160019054906101000a900460ff169050806112c7576040517f08c379a00000000000000000000000000000000000000000000000000000000081526004016112be90614718565b60405180910390fd5b6000600b600084815260200190815260200160002060003373ffffffffffffffffffffffffffffffffffffffff1673ffffffffffffffffffffffffffffffffffffffff1681526020019081526020016000206001015490506000600b600085815260200190815260200160002060003373ffffffffffffffffffffffffffffffffffffffff1673ffffffffffffffffffffffffffffffffffffffff168152602001908152602001600020600101549050600061138583600754613c05565b9050600061139584600854613c05565b9050600081836113a591906149cd565b905080856113b39190614aae565b945060008054906101000a900473ffffffffffffffffffffffffffffffffffffffff1673ffffffffffffffffffffffffffffffffffffffff166108fc849081150290604051600060405180830381858888f1935050505015801561141b573d6000803e3d6000fd5b503373ffffffffffffffffffffffffffffffffffffffff166108fc869081150290604051600060405180830381858888f19350505050158015611462573d6000803e3d6000fd5b506000600b600089815260200190815260200160002060003373ffffffffffffffffffffffffffffffffffffffff1673ffffffffffffffffffffffffffffffffffffffff168152602001908152602001600020600101819055506000600b600089815260200190815260200160002060003373ffffffffffffffffffffffffffffffffffffffff1673ffffffffffffffffffffffffffffffffffffffff16815260200190815260200160002060030160016101000a81548160ff0219169083151502179055506000838661153691906149cd565b905080600c60008a8152602001908152602001600020600901600082825461155e9190614aae565b92505081905550600b600089815260200190815260200160002060003373ffffffffffffffffffffffffffffffffffffffff1673ffffffffffffffffffffffffffffffffffffffff16815260200190815260200160002060030160009054906101000a900460ff16156115fd5784600c60008a815260200190815260200160002060070160008282546115f19190614aae565b9250508190555061162b565b84600c60008a815260200190815260200160002060080160008282546116239190614aae565b925050819055505b7f1adca21f9cd7ce0d42e86da154f61d9ace5bc419c2549655fea1d3e432693c1288600c60008b815260200190815260200160002060090154604051611672929190614833565b60405180910390a15050505050505050565b60085481565b60008060009054906101000a900473ffffffffffffffffffffffffffffffffffffffff1673ffffffffffffffffffffffffffffffffffffffff163373ffffffffffffffffffffffffffffffffffffffff161461171b576040517f08c379a0000000000000000000000000000000000000000000000000000000008152600401611712906146f8565b60405180910390fd5b8160068190555060019050919050565b60058060000154905081565b606060006117456001613bf7565b905060006117536003613bf7565b90506000808267ffffffffffffffff81111561177257611771614d5f565b5b6040519080825280602002602001820160405280156117ab57816020015b611798613c52565b8152602001906001900390816117905790505b5090506000600190505b848111611afb5760008190506000600160038111156117d7576117d6614cd2565b5b600c6000848152602001908152602001600020600c0160009054906101000a900460ff16600381111561180d5761180c614cd2565b5b1490508015611ae6576000600c6000848152602001908152602001600020604051806101c001604052908160008201805461184790614bc8565b80601f016020809104026020016040519081016040528092919081815260200182805461187390614bc8565b80156118c05780601f10611895576101008083540402835291602001916118c0565b820191906000526020600020905b8154815290600101906020018083116118a357829003601f168201915b50505050508152602001600182015481526020016002820154815260200160038201548152602001600482015481526020016005820154815260200160068201548152602001600782015481526020016008820154815260200160098201548152602001600a82018054806020026020016040519081016040528092919081815260200182805480156119a857602002820191906000526020600020905b8160009054906101000a900473ffffffffffffffffffffffffffffffffffffffff1673ffffffffffffffffffffffffffffffffffffffff168152602001906001019080831161195e575b50505050508152602001600b8201805480602002602001604051908101604052809291908181526020018280548015611a3657602002820191906000526020600020905b8160009054906101000a900473ffffffffffffffffffffffffffffffffffffffff1673ffffffffffffffffffffffffffffffffffffffff16815260200190600101908083116119ec575b50505050508152602001600c820160009054906101000a900460ff166003811115611a6457611a63614cd2565b5b6003811115611a7657611a75614cd2565b5b8152602001600c820160019054906101000a900460ff166003811115611a9f57611a9e614cd2565b5b6003811115611ab157611ab0614cd2565b5b81525050905080858781518110611acb57611aca614d30565b5b60200260200101819052508580611ae190614c2b565b965050505b50508080611af390614c2b565b9150506117b5565b508094505050505090565b60028060000154905081565b60008054906101000a900473ffffffffffffffffffffffffffffffffffffffff1673ffffffffffffffffffffffffffffffffffffffff163373ffffffffffffffffffffffffffffffffffffffff1614611ba0576040517f08c379a0000000000000000000000000000000000000000000000000000000008152600401611b97906146f8565b60405180910390fd5b600081118015611bb95750611bb56001613bf7565b8111155b611bf8576040517f08c379a0000000000000000000000000000000000000000000000000000000008152600401611bef90614758565b60405180910390fd5b60006003811115611c0c57611c0b614cd2565b5b600c6000838152602001908152602001600020600c0160009054906101000a900460ff166003811115611c4257611c41614cd2565b5b14611c82576040517f08c379a0000000000000000000000000000000000000000000000000000000008152600401611c7990614798565b60405180910390fd5b6001600c6000838152602001908152602001600020600c0160006101000a81548160ff02191690836003811115611cbc57611cbb614cd2565b5b0217905550611ccb6002613b85565b611cd56003613be1565b7f4a3e735ded174d015bbec19944ddf306c07f34a070f33ec1809d87e4e46b623781600c600084815260200190815260200160002060060154600c600085815260200190815260200160002060090154604051611d349392919061485c565b60405180910390a150565b600a5481565b600b602052816000526040600020602052806000526040600020600091509150508060000160009054906101000a900473ffffffffffffffffffffffffffffffffffffffff16908060010154908060020154908060030160009054906101000a900460ff16908060030160019054906101000a900460ff16905085565b60075481565b600954341015611e0d576040517f08c379a0000000000000000000000000000000000000000000000000000000008152600401611e04906147d8565b60405180910390fd5b600082118015611e265750611e226001613bf7565b8211155b611e65576040517f08c379a0000000000000000000000000000000000000000000000000000000008152600401611e5c90614758565b60405180910390fd5b60006003811115611e7957611e78614cd2565b5b600c6000848152602001908152602001600020600c0160009054906101000a900460ff166003811115611eaf57611eae614cd2565b5b14611eef576040517f08c379a0000000000000000000000000000000000000000000000000000000008152600401611ee6906147f8565b60405180910390fd5b6000600b600084815260200190815260200160002060003373ffffffffffffffffffffffffffffffffffffffff1673ffffffffffffffffffffffffffffffffffffffff16815260200190815260200160002060030160019054906101000a900460ff1690508015611f95576040517f08c379a0000000000000000000000000000000000000000000000000000000008152600401611f8c906147b8565b60405180910390fd5b600082156122985734600c60008681526020019081526020016000206007016000828254611fc391906149cd565b9250508190555060005b600c6000868152602001908152602001600020600a018054905081101561208c573373ffffffffffffffffffffffffffffffffffffffff16600c6000878152602001908152602001600020600a01828154811061202d5761202c614d30565b5b9060005260206000200160009054906101000a900473ffffffffffffffffffffffffffffffffffffffff1673ffffffffffffffffffffffffffffffffffffffff16141561207957600191505b808061208490614c2b565b915050611fcd565b508061216257600c6000858152602001908152602001600020600a01339080600181540180825580915050600190039060005260206000200160009091909190916101000a81548173ffffffffffffffffffffffffffffffffffffffff021916908373ffffffffffffffffffffffffffffffffffffffff160217905550600c6000858152602001908152602001600020600401600081548092919061213090614c2b565b9190505550600c6000858152602001908152602001600020600601600081548092919061215c90614c2b565b91905055505b6040518060a001604052803373ffffffffffffffffffffffffffffffffffffffff16815260200134815260200160008152602001841515815260200160011515815250600b600086815260200190815260200160002060003373ffffffffffffffffffffffffffffffffffffffff1673ffffffffffffffffffffffffffffffffffffffff16815260200190815260200160002060008201518160000160006101000a81548173ffffffffffffffffffffffffffffffffffffffff021916908373ffffffffffffffffffffffffffffffffffffffff160217905550602082015181600101556040820151816002015560608201518160030160006101000a81548160ff02191690831515021790555060808201518160030160016101000a81548160ff02191690831515021790555090505061258f565b34600c600086815260200190815260200160002060080160008282546122be91906149cd565b9250508190555060005b600c6000868152602001908152602001600020600b0180549050811015612387573373ffffffffffffffffffffffffffffffffffffffff16600c6000878152602001908152602001600020600b01828154811061232857612327614d30565b5b9060005260206000200160009054906101000a900473ffffffffffffffffffffffffffffffffffffffff1673ffffffffffffffffffffffffffffffffffffffff16141561237457600191505b808061237f90614c2b565b9150506122c8565b508061245d57600c6000858152602001908152602001600020600b01339080600181540180825580915050600190039060005260206000200160009091909190916101000a81548173ffffffffffffffffffffffffffffffffffffffff021916908373ffffffffffffffffffffffffffffffffffffffff160217905550600c6000858152602001908152602001600020600501600081548092919061242b90614c2b565b9190505550600c6000858152602001908152602001600020600601600081548092919061245790614c2b565b91905055505b6040518060a001604052803373ffffffffffffffffffffffffffffffffffffffff16815260200134815260200160008152602001841515815260200160011515815250600b600086815260200190815260200160002060003373ffffffffffffffffffffffffffffffffffffffff1673ffffffffffffffffffffffffffffffffffffffff16815260200190815260200160002060008201518160000160006101000a81548173ffffffffffffffffffffffffffffffffffffffff021916908373ffffffffffffffffffffffffffffffffffffffff160217905550602082015181600101556040820151816002015560608201518160030160006101000a81548160ff02191690831515021790555060808201518160030160016101000a81548160ff0219169083151502179055509050505b34600c600086815260200190815260200160002060090160008282546125b591906149cd565b9250508190555034600a60008282546125ce91906149cd565b925050819055507ff65f7034a12cc6c6d06f601377ca835ec29d13f0f16c2e3b31a14bf5a6b7e526338534600c600089815260200190815260200160002060090154600c60008a815260200190815260200160002060060154600a5460405161263c96959493929190614529565b60405180910390a150505050565b60048060000154905081565b60008054906101000a900473ffffffffffffffffffffffffffffffffffffffff1673ffffffffffffffffffffffffffffffffffffffff163373ffffffffffffffffffffffffffffffffffffffff16146126e4576040517f08c379a00000000000000000000000000000000000000000000000000000000081526004016126db906146f8565b60405180910390fd5b600160038111156126f8576126f7614cd2565b5b600c6000848152602001908152602001600020600c0160009054906101000a900460ff16600381111561272e5761272d614cd2565b5b1461276e576040517f08c379a0000000000000000000000000000000000000000000000000000000008152600401612765906146d8565b60405180910390fd5b60008211801561278757506127836001613bf7565b8211155b6127c6576040517f08c379a00000000000000000000000000000000000000000000000000000000081526004016127bd90614758565b60405180910390fd5b6000600c600084815260200190815260200160002060090154905047811115612824576040517f08c379a000000000000000000000000000000000000000000000000000000000815260040161281b90614738565b60405180910390fd5b600061283282600654613c05565b9050600081836128429190614aae565b925060008054906101000a900473ffffffffffffffffffffffffffffffffffffffff1673ffffffffffffffffffffffffffffffffffffffff166108fc839081150290604051600060405180830381858888f193505050501580156128aa573d6000803e3d6000fd5b508315612bb1576000600c6000878152602001908152602001600020600c0160016101000a81548160ff021916908360038111156128eb576128ea614cd2565b5b02179055506000600c60008781526020019081526020016000206007015490506000600c600088815260200190815260200160002060040154905060005b81811015612ba9576000600c60008a8152602001908152602001600020600a01828154811061295b5761295a614d30565b5b9060005260206000200160009054906101000a900473ffffffffffffffffffffffffffffffffffffffff1690506000600b60008b815260200190815260200160002060008373ffffffffffffffffffffffffffffffffffffffff1673ffffffffffffffffffffffffffffffffffffffff1681526020019081526020016000206040518060a00160405290816000820160009054906101000a900473ffffffffffffffffffffffffffffffffffffffff1673ffffffffffffffffffffffffffffffffffffffff1673ffffffffffffffffffffffffffffffffffffffff16815260200160018201548152602001600282015481526020016003820160009054906101000a900460ff161515151581526020016003820160019054906101000a900460ff161515151581525050905080608001518015612a99575080606001515b15612b94576000856127108360200151612ab39190614a54565b612abd9190614a23565b90506000612710828b612ad09190614a54565b612ada9190614a23565b905080600b60008e81526020019081526020016000206000856000015173ffffffffffffffffffffffffffffffffffffffff1673ffffffffffffffffffffffffffffffffffffffff168152602001908152602001600020600201819055508088612b4491906149cd565b9750826000015173ffffffffffffffffffffffffffffffffffffffff166108fc829081150290604051600060405180830381858888f19350505050158015612b90573d6000803e3d6000fd5b5050505b50508080612ba190614c2b565b915050612929565b505050612eae565b6001600c6000878152602001908152602001600020600c0160016101000a81548160ff02191690836003811115612beb57612bea614cd2565b5b02179055506000600c60008781526020019081526020016000206008015490506000600c600088815260200190815260200160002060050154905060005b81811015612eaa576000600c60008a8152602001908152602001600020600b018281548110612c5b57612c5a614d30565b5b9060005260206000200160009054906101000a900473ffffffffffffffffffffffffffffffffffffffff1690506000600b60008b815260200190815260200160002060008373ffffffffffffffffffffffffffffffffffffffff1673ffffffffffffffffffffffffffffffffffffffff1681526020019081526020016000206040518060a00160405290816000820160009054906101000a900473ffffffffffffffffffffffffffffffffffffffff1673ffffffffffffffffffffffffffffffffffffffff1673ffffffffffffffffffffffffffffffffffffffff16815260200160018201548152602001600282015481526020016003820160009054906101000a900460ff161515151581526020016003820160019054906101000a900460ff161515151581525050905080608001518015612d9a57508060600151155b15612e95576000856127108360200151612db49190614a54565b612dbe9190614a23565b90506000612710828b612dd19190614a54565b612ddb9190614a23565b905080600b60008e81526020019081526020016000206000856000015173ffffffffffffffffffffffffffffffffffffffff1673ffffffffffffffffffffffffffffffffffffffff168152602001908152602001600020600201819055508088612e4591906149cd565b9750826000015173ffffffffffffffffffffffffffffffffffffffff166108fc829081150290604051600060405180830381858888f19350505050158015612e91573d6000803e3d6000fd5b5050505b50508080612ea290614c2b565b915050612c29565b5050505b82811015612f395760008184612ec49190614aae565b90506000811115612f375760008054906101000a900473ffffffffffffffffffffffffffffffffffffffff1673ffffffffffffffffffffffffffffffffffffffff166108fc829081150290604051600060405180830381858888f19350505050158015612f35573d6000803e3d6000fd5b505b505b6002600c6000878152602001908152602001600020600c0160006101000a81548160ff02191690836003811115612f7357612f72614cd2565b5b0217905550612f826003613b85565b612f8c6004613be1565b7ffd9d3061bf0953e48f5daae7cccf06773195282d01730c4a782822bb24700c0085600c600088815260200190815260200160002060060154600c600089815260200190815260200160002060090154600c60008a8152602001908152602001600020600c0160019054906101000a900460ff166040516130109493929190614893565b60405180910390a15050505050565b60008054906101000a900473ffffffffffffffffffffffffffffffffffffffff1673ffffffffffffffffffffffffffffffffffffffff163373ffffffffffffffffffffffffffffffffffffffff16146130ad576040517f08c379a00000000000000000000000000000000000000000000000000000000081526004016130a4906146f8565b60405180910390fd5b6130b76001613be1565b6130c16002613be1565b60006130cd6001613bf7565b90506060604051806101c0016040528085815260200183815260200142815260200184426130fb91906149cd565b81526020016000815260200160008152602001600081526020016000815260200160008152602001600081526020018281526020018281526020016000600381111561314a57613149614cd2565b5b81526020016002600381111561316357613162614cd2565b5b815250600c60008481526020019081526020016000206000820151816000019080519060200190613195929190613ce5565b506020820151816001015560408201518160020155606082015181600301556080820151816004015560a0820151816005015560c0820151816006015560e082015181600701556101008201518160080155610120820151816009015561014082015181600a01908051906020019061320f929190613d6b565b5061016082015181600b01908051906020019061322d929190613d6b565b5061018082015181600c0160006101000a81548160ff0219169083600381111561325a57613259614cd2565b5b02179055506101a082015181600c0160016101000a81548160ff0219169083600381111561328b5761328a614cd2565b5b02179055509050507fc8b7b4904be00e7e66e02f25b9223456d0fd68d58b30bfdd0af0aad3449a3f2a84836040516132c49291906145c7565b60405180910390a150505050565b60038060000154905081565b606060006132ec6001613bf7565b905060006132fa6004613bf7565b90506000808267ffffffffffffffff81111561331957613318614d5f565b5b60405190808252806020026020018201604052801561335257816020015b61333f613c52565b8152602001906001900390816133375790505b5090506000600190505b8481116136a257600081905060006002600381111561337e5761337d614cd2565b5b600c6000848152602001908152602001600020600c0160009054906101000a900460ff1660038111156133b4576133b3614cd2565b5b149050801561368d576000600c6000848152602001908152602001600020604051806101c00160405290816000820180546133ee90614bc8565b80601f016020809104026020016040519081016040528092919081815260200182805461341a90614bc8565b80156134675780601f1061343c57610100808354040283529160200191613467565b820191906000526020600020905b81548152906001019060200180831161344a57829003601f168201915b50505050508152602001600182015481526020016002820154815260200160038201548152602001600482015481526020016005820154815260200160068201548152602001600782015481526020016008820154815260200160098201548152602001600a820180548060200260200160405190810160405280929190818152602001828054801561354f57602002820191906000526020600020905b8160009054906101000a900473ffffffffffffffffffffffffffffffffffffffff1673ffffffffffffffffffffffffffffffffffffffff1681526020019060010190808311613505575b50505050508152602001600b82018054806020026020016040519081016040528092919081815260200182805480156135dd57602002820191906000526020600020905b8160009054906101000a900473ffffffffffffffffffffffffffffffffffffffff1673ffffffffffffffffffffffffffffffffffffffff1681526020019060010190808311613593575b50505050508152602001600c820160009054906101000a900460ff16600381111561360b5761360a614cd2565b5b600381111561361d5761361c614cd2565b5b8152602001600c820160019054906101000a900460ff16600381111561364657613645614cd2565b5b600381111561365857613657614cd2565b5b8152505090508085878151811061367257613671614d30565b5b6020026020010181905250858061368890614c2b565b965050505b5050808061369a90614c2b565b91505061335c565b508094505050505090565b60008060009054906101000a900473ffffffffffffffffffffffffffffffffffffffff1673ffffffffffffffffffffffffffffffffffffffff163373ffffffffffffffffffffffffffffffffffffffff161461373e576040517f08c379a0000000000000000000000000000000000000000000000000000000008152600401613735906146f8565b60405180910390fd5b816000806101000a81548173ffffffffffffffffffffffffffffffffffffffff021916908373ffffffffffffffffffffffffffffffffffffffff16021790555060019050919050565b60008054906101000a900473ffffffffffffffffffffffffffffffffffffffff1681565b60018060000154905081565b606060006137c56002613bf7565b905060006137d36001613bf7565b90506000808367ffffffffffffffff8111156137f2576137f1614d5f565b5b60405190808252806020026020018201604052801561382b57816020015b613818613c52565b8152602001906001900390816138105790505b5090506000600190505b838111613b7a576000819050600080600381111561385657613855614cd2565b5b600c6000848152602001908152602001600020600c0160009054906101000a900460ff16600381111561388c5761388b614cd2565b5b1490508015613b65576000600c6000848152602001908152602001600020604051806101c00160405290816000820180546138c690614bc8565b80601f01602080910402602001604051908101604052809291908181526020018280546138f290614bc8565b801561393f5780601f106139145761010080835404028352916020019161393f565b820191906000526020600020905b81548152906001019060200180831161392257829003601f168201915b50505050508152602001600182015481526020016002820154815260200160038201548152602001600482015481526020016005820154815260200160068201548152602001600782015481526020016008820154815260200160098201548152602001600a8201805480602002602001604051908101604052809291908181526020018280548015613a2757602002820191906000526020600020905b8160009054906101000a900473ffffffffffffffffffffffffffffffffffffffff1673ffffffffffffffffffffffffffffffffffffffff16815260200190600101908083116139dd575b50505050508152602001600b8201805480602002602001604051908101604052809291908181526020018280548015613ab557602002820191906000526020600020905b8160009054906101000a900473ffffffffffffffffffffffffffffffffffffffff1673ffffffffffffffffffffffffffffffffffffffff1681526020019060010190808311613a6b575b50505050508152602001600c820160009054906101000a900460ff166003811115613ae357613ae2614cd2565b5b6003811115613af557613af4614cd2565b5b8152602001600c820160019054906101000a900460ff166003811115613b1e57613b1d614cd2565b5b6003811115613b3057613b2f614cd2565b5b81525050905080858781518110613b4a57613b49614d30565b5b60200260200101819052508580613b6090614c2b565b965050505b50508080613b7290614c2b565b915050613835565b508094505050505090565b60008160000154905060008111613bd1576040517f08c379a0000000000000000000000000000000000000000000000000000000008152600401613bc8906146b8565b60405180910390fd5b6001810382600001819055505050565b6001816000016000828254019250508190555050565b600081600001549050919050565b60008060009050836127108086613c1c9190614a23565b613c269190614a54565b1415613c48576127108385613c3b9190614a54565b613c459190614a23565b90505b8091505092915050565b604051806101c0016040528060608152602001600081526020016000815260200160008152602001600081526020016000815260200160008152602001600081526020016000815260200160008152602001606081526020016060815260200160006003811115613cc657613cc5614cd2565b5b815260200160006003811115613cdf57613cde614cd2565b5b81525090565b828054613cf190614bc8565b90600052602060002090601f016020900481019282613d135760008555613d5a565b82601f10613d2c57805160ff1916838001178555613d5a565b82800160010185558215613d5a579182015b82811115613d59578251825591602001919060010190613d3e565b5b509050613d679190613df5565b5090565b828054828255906000526020600020908101928215613de4579160200282015b82811115613de35782518260006101000a81548173ffffffffffffffffffffffffffffffffffffffff021916908373ffffffffffffffffffffffffffffffffffffffff16021790555091602001919060010190613d8b565b5b509050613df19190613df5565b5090565b5b80821115613e0e576000816000905550600101613df6565b5090565b6000613e25613e20846148fd565b6148d8565b905082815260208101848484011115613e4157613e40614d93565b5b613e4c848285614b86565b509392505050565b600081359050613e6381615036565b92915050565b600081359050613e788161504d565b92915050565b600082601f830112613e9357613e92614d8e565b5b8135613ea3848260208601613e12565b91505092915050565b600081359050613ebb81615064565b92915050565b600060208284031215613ed757613ed6614d9d565b5b6000613ee584828501613e54565b91505092915050565b60008060408385031215613f0557613f04614d9d565b5b600083013567ffffffffffffffff811115613f2357613f22614d98565b5b613f2f85828601613e7e565b9250506020613f4085828601613eac565b9150509250929050565b600060208284031215613f6057613f5f614d9d565b5b6000613f6e84828501613eac565b91505092915050565b60008060408385031215613f8e57613f8d614d9d565b5b6000613f9c85828601613eac565b9250506020613fad85828601613e54565b9150509250929050565b60008060408385031215613fce57613fcd614d9d565b5b6000613fdc85828601613eac565b9250506020613fed85828601613e69565b9150509250929050565b60006140038383614032565b60208301905092915050565b600061401b8383614361565b905092915050565b61402c81614af4565b82525050565b61403b81614ae2565b82525050565b61404a81614ae2565b82525050565b600061405b8261494e565b6140658185614989565b93506140708361492e565b8060005b838110156140a15781516140888882613ff7565b97506140938361496f565b925050600181019050614074565b5085935050505092915050565b60006140b982614959565b6140c3818561499a565b9350836020820285016140d58561493e565b8060005b8581101561411157848403895281516140f2858261400f565b94506140fd8361497c565b925060208a019950506001810190506140d9565b50829750879550505050505092915050565b61412c81614b06565b82525050565b61413b81614b62565b82525050565b61414a81614b62565b82525050565b61415981614b74565b82525050565b61416881614b74565b82525050565b600061417982614964565b61418381856149ab565b9350614193818560208601614b95565b61419c81614da2565b840191505092915050565b60006141b282614964565b6141bc81856149bc565b93506141cc818560208601614b95565b6141d581614da2565b840191505092915050565b60006141ed601b836149bc565b91506141f882614db3565b602082019050919050565b6000614210601d836149bc565b915061421b82614ddc565b602082019050919050565b60006142336015836149bc565b915061423e82614e05565b602082019050919050565b6000614256603a836149bc565b915061426182614e2e565b604082019050919050565b6000614279602d836149bc565b915061428482614e7d565b604082019050919050565b600061429c6016836149bc565b91506142a782614ecc565b602082019050919050565b60006142bf601a836149bc565b91506142ca82614ef5565b602082019050919050565b60006142e2601d836149bc565b91506142ed82614f1e565b602082019050919050565b60006143056026836149bc565b915061431082614f47565b604082019050919050565b60006143286032836149bc565b915061433382614f96565b604082019050919050565b600061434b6016836149bc565b915061435682614fe5565b602082019050919050565b60006101c083016000830151848203600086015261437f828261416e565b9150506020830151614394602086018261449d565b5060408301516143a7604086018261449d565b5060608301516143ba606086018261449d565b5060808301516143cd608086018261449d565b5060a08301516143e060a086018261449d565b5060c08301516143f360c086018261449d565b5060e083015161440660e086018261449d565b5061010083015161441b61010086018261449d565b5061012083015161443061012086018261449d565b5061014083015184820361014086015261444a8282614050565b9150506101608301518482036101608601526144668282614050565b91505061018083015161447d610180860182614150565b506101a08301516144926101a0860182614132565b508091505092915050565b6144a681614b58565b82525050565b6144b581614b58565b82525050565b60006020820190506144d06000830184614023565b92915050565b600060a0820190506144eb6000830188614023565b6144f860208301876144ac565b61450560408301866144ac565b6145126060830185614123565b61451f6080830184614123565b9695505050505050565b600060c08201905061453e6000830189614041565b61454b60208301886144ac565b61455860408301876144ac565b61456560608301866144ac565b61457260808301856144ac565b61457f60a08301846144ac565b979650505050505050565b600060208201905081810360008301526145a481846140ae565b905092915050565b60006020820190506145c16000830184614123565b92915050565b600060408201905081810360008301526145e181856141a7565b90506145f060208301846144ac565b9392505050565b6000610180820190508181036000830152614612818f6141a7565b9050614621602083018e6144ac565b61462e604083018d6144ac565b61463b606083018c6144ac565b614648608083018b6144ac565b61465560a083018a6144ac565b61466260c08301896144ac565b61466f60e08301886144ac565b61467d6101008301876144ac565b61468b6101208301866144ac565b61469961014083018561415f565b6146a7610160830184614141565b9d9c50505050505050505050505050565b600060208201905081810360008301526146d1816141e0565b9050919050565b600060208201905081810360008301526146f181614203565b9050919050565b6000602082019050818103600083015261471181614226565b9050919050565b6000602082019050818103600083015261473181614249565b9050919050565b600060208201905081810360008301526147518161426c565b9050919050565b600060208201905081810360008301526147718161428f565b9050919050565b60006020820190508181036000830152614791816142b2565b9050919050565b600060208201905081810360008301526147b1816142d5565b9050919050565b600060208201905081810360008301526147d1816142f8565b9050919050565b600060208201905081810360008301526147f18161431b565b9050919050565b600060208201905081810360008301526148118161433e565b9050919050565b600060208201905061482d60008301846144ac565b92915050565b600060408201905061484860008301856144ac565b61485560208301846144ac565b9392505050565b600060608201905061487160008301866144ac565b61487e60208301856144ac565b61488b60408301846144ac565b949350505050565b60006080820190506148a860008301876144ac565b6148b560208301866144ac565b6148c260408301856144ac565b6148cf6060830184614141565b95945050505050565b60006148e26148f3565b90506148ee8282614bfa565b919050565b6000604051905090565b600067ffffffffffffffff82111561491857614917614d5f565b5b61492182614da2565b9050602081019050919050565b6000819050602082019050919050565b6000819050602082019050919050565b600081519050919050565b600081519050919050565b600081519050919050565b6000602082019050919050565b6000602082019050919050565b600082825260208201905092915050565b600082825260208201905092915050565b600082825260208201905092915050565b600082825260208201905092915050565b60006149d882614b58565b91506149e383614b58565b9250827fffffffffffffffffffffffffffffffffffffffffffffffffffffffffffffffff03821115614a1857614a17614c74565b5b828201905092915050565b6000614a2e82614b58565b9150614a3983614b58565b925082614a4957614a48614ca3565b5b828204905092915050565b6000614a5f82614b58565b9150614a6a83614b58565b9250817fffffffffffffffffffffffffffffffffffffffffffffffffffffffffffffffff0483118215151615614aa357614aa2614c74565b5b828202905092915050565b6000614ab982614b58565b9150614ac483614b58565b925082821015614ad757614ad6614c74565b5b828203905092915050565b6000614aed82614b38565b9050919050565b6000614aff82614b38565b9050919050565b60008115159050919050565b6000819050614b208261500e565b919050565b6000819050614b3382615022565b919050565b600073ffffffffffffffffffffffffffffffffffffffff82169050919050565b6000819050919050565b6000614b6d82614b12565b9050919050565b6000614b7f82614b25565b9050919050565b82818337600083830152505050565b60005b83811015614bb3578082015181840152602081019050614b98565b83811115614bc2576000848401525b50505050565b60006002820490506001821680614be057607f821691505b60208210811415614bf457614bf3614d01565b5b50919050565b614c0382614da2565b810181811067ffffffffffffffff82111715614c2257614c21614d5f565b5b80604052505050565b6000614c3682614b58565b91507fffffffffffffffffffffffffffffffffffffffffffffffffffffffffffffffff821415614c6957614c68614c74565b5b600182019050919050565b7f4e487b7100000000000000000000000000000000000000000000000000000000600052601160045260246000fd5b7f4e487b7100000000000000000000000000000000000000000000000000000000600052601260045260246000fd5b7f4e487b7100000000000000000000000000000000000000000000000000000000600052602160045260246000fd5b7f4e487b7100000000000000000000000000000000000000000000000000000000600052602260045260246000fd5b7f4e487b7100000000000000000000000000000000000000000000000000000000600052603260045260246000fd5b7f4e487b7100000000000000000000000000000000000000000000000000000000600052604160045260246000fd5b600080fd5b600080fd5b600080fd5b600080fd5b6000601f19601f8301169050919050565b7f436f756e7465723a2064656372656d656e74206f766572666c6f770000000000600082015250565b7f70726564696374696f6e206d61726b6574206e6f7420636c6f7365642e000000600082015250565b7f796f75206d757374206265207468652061646d696e0000000000000000000000600082015250565b7f796f752063616e206f6e6c7920776974686472617720696620796f752068617660008201527f65206d61646520616e206f70656e2070726564696374696f6e2e000000000000602082015250565b7f74686520636f6e747261637420646f65736e2774206861766520656e6f75676860008201527f20666f72207061796f7574732e00000000000000000000000000000000000000602082015250565b7f696e76616c69642070726564696374696f6e2049442e00000000000000000000600082015250565b7f70726564696374696f6e206d75737420626520636c6f7365642e000000000000600082015250565b7f70726564696374696f6e206d61726b6574206e6f74204143544956452e000000600082015250565b7f796f75206861766520616c7265616479206d61646520796f757220707265646960008201527f6374696f6e2e0000000000000000000000000000000000000000000000000000602082015250565b7f6d7573742073656e6420612076616c75652067726561746572207468616e206d60008201527f696e50726564696374696f6e56616c75652e0000000000000000000000000000602082015250565b7f70726564696374696f6e206e6f74204143544956452e00000000000000000000600082015250565b6004811061501f5761501e614cd2565b5b50565b6004811061503357615032614cd2565b5b50565b61503f81614ae2565b811461504a57600080fd5b50565b61505681614b06565b811461506157600080fd5b50565b61506d81614b58565b811461507857600080fd5b5056fea2646970667358221220059e1c3adbbb8c25601c69ec34a2f3d1fc37466717cb0e9f8c7dfd5ac41969b364736f6c63430008070033",
  "immutableReferences": {},
  "source": "// SPDX-License-Identifier: DO NOT COPY WITH OUT WRITTEN CONSENT.\r\n\r\npragma solidity 0.8.7;\r\n\r\n\r\nimport \"@openzeppelin/contracts/utils/Counters.sol\";\r\n\r\n\r\ncontract PredictionOld {\r\n    using Counters for Counters.Counter;\r\n\r\n\r\n    address payable public admin;\r\n\r\n    Counters.Counter public totalPredictionMarkets;\r\n    Counters.Counter public totalActivePredictionMarkets;\r\n    Counters.Counter public totalClosedPredictionMarkets;\r\n    Counters.Counter public totalSettledPredictionMarkets;\r\n    Counters.Counter public totalEmergencyWithdrawPredictionMarkets;\r\n\r\n    // basis points\r\n    uint256 public predictionMarketFee;\r\n    uint256 public userWithdrawADMINFee;\r\n    uint256 public userWithdrawPOOLFee;\r\n    uint256 public minPredictionValue;\r\n\r\n    uint256 public totalPredictionVolume;\r\n\r\n    enum Status{\r\n        Active,\r\n        Closed,\r\n        Settled,\r\n        EmergencyWithdraw\r\n    }\r\n    enum Settlement{\r\n        Yes,\r\n        No,\r\n        Active,\r\n        EmergencyWithdraw\r\n    }\r\n\r\n    struct UserPrediction{\r\n        address payable predictor;\r\n        // uint256 predictorID;\r\n        uint256 predictionAmount;\r\n        uint256 payoutAmount;\r\n        bool prediction;\r\n        bool hasPredicted;\r\n    }\r\n\r\n    struct PredictionData{\r\n        string predictionPhrase;\r\n        uint256 id;\r\n        uint256 startBlock;\r\n        uint256 endBlock;\r\n        uint256 yesUserNumber;\r\n        uint256 noUserNumber;\r\n        uint256 totalUserNumber;\r\n        uint256 yesBalance;\r\n        uint256 noBalance;\r\n        uint256 totalBalance;\r\n        address[] yesAddresses;\r\n        address[] noAddresses;\r\n        Status status;\r\n        Settlement settlement;\r\n    }\r\n\r\n    event PredictionMarketActive(\r\n        string phrase,\r\n        uint256 id\r\n    );\r\n\r\n    event PredictionMade(\r\n        address predictor,\r\n        uint256 id,\r\n        uint256 predictionValue,\r\n        uint256 predictionTotalValue,\r\n        uint256 predictionsMade,\r\n        uint256 totalPredictionVolume\r\n    );\r\n\r\n    event PredictionClosed(\r\n        uint256 id,\r\n        uint256 totalUserNumber,\r\n        uint256 totalBalance\r\n    );\r\n\r\n    event PredictionSettled(\r\n        uint256 id,\r\n        uint256 totalUserNumber,\r\n        uint256 totalBalance,\r\n        Settlement Settlement\r\n    );\r\n\r\n    event EmergencyWithdrawal(\r\n        uint256 id,\r\n        uint256 totalUsersNumber,\r\n        uint256 totalBalance\r\n    );\r\n\r\n    event UserWithdrawal(\r\n        uint256 id,\r\n        uint256 totalBalance\r\n    );\r\n\r\n\r\n    //Prediction ID -> user address -> user prediction data set\r\n    mapping(uint256 => mapping(address => UserPrediction)) public userPredictions;\r\n\r\n    // Prediction ID -> prediction data\r\n    mapping(uint256 => PredictionData) public predictions;\r\n\r\n    constructor() {\r\n        admin = payable(msg.sender);\r\n        predictionMarketFee = 250;\r\n        userWithdrawADMINFee = 700;\r\n        userWithdrawPOOLFee = 500;\r\n        minPredictionValue = 10000000000000000;\r\n    }\r\n\r\n    modifier onlyAdmin {\r\n        require(msg.sender == admin, \"you must be the admin\");\r\n        _;\r\n    }\r\n\r\n    function createPredictionMarket(string memory _predictionPhrase, uint256 _activeSeconds) public onlyAdmin {\r\n        // require(bytes32(_predictionPhrase) > 0, \"must enter vaid prediction phrase.\");\r\n        totalPredictionMarkets.increment();\r\n        totalActivePredictionMarkets.increment();\r\n        uint256 predictionMarketID = totalPredictionMarkets.current();\r\n        address[] memory emptyAdressList;\r\n\r\n        predictions[predictionMarketID] = PredictionData(\r\n                _predictionPhrase,\r\n                predictionMarketID, block.timestamp, block.timestamp + _activeSeconds,\r\n                0, 0, 0, 0, 0, 0, emptyAdressList, emptyAdressList, Status.Active, Settlement.Active\r\n            );\r\n        // create event\r\n        emit PredictionMarketActive(_predictionPhrase, predictionMarketID);\r\n    }\r\n\r\n    function makePrediction(uint256 _predictionID, bool _prediction) public payable {\r\n        require(msg.value >= minPredictionValue, \"must send a value greater than minPredictionValue.\");\r\n        require(_predictionID > 0 && _predictionID <= totalPredictionMarkets.current(), \"invalid prediction ID.\");\r\n        require(predictions[_predictionID].status == Status.Active, \"prediction not ACTIVE.\");\r\n        bool _userHasPredicted = userPredictions[_predictionID][msg.sender].hasPredicted;\r\n        require(!_userHasPredicted, \"you have already made your prediction.\");\r\n        bool _isListed = false;\r\n        if(_prediction) {\r\n            predictions[_predictionID].yesBalance += msg.value;\r\n            \r\n            for(uint256 i = 0; i < predictions[_predictionID].yesAddresses.length; i++) {\r\n                if(predictions[_predictionID].yesAddresses[i] == msg.sender) {\r\n                    _isListed = true;\r\n                }\r\n            }\r\n            if(!_isListed) {\r\n                predictions[_predictionID].yesAddresses.push(msg.sender);\r\n                predictions[_predictionID].yesUserNumber++;\r\n                predictions[_predictionID].totalUserNumber++;\r\n            }\r\n            userPredictions[_predictionID][msg.sender] = UserPrediction(payable(msg.sender), msg.value, 0, _prediction, true);\r\n        } else {\r\n            \r\n            predictions[_predictionID].noBalance += msg.value;\r\n            for(uint256 i = 0; i < predictions[_predictionID].noAddresses.length; i++) {\r\n                if(predictions[_predictionID].noAddresses[i] == msg.sender) {\r\n                    _isListed = true;\r\n                }\r\n            }\r\n            if(!_isListed) {\r\n                predictions[_predictionID].noAddresses.push(msg.sender);\r\n                predictions[_predictionID].noUserNumber++;\r\n                predictions[_predictionID].totalUserNumber++;\r\n            }\r\n            // predictions[_predictionID].noAddresses.push(msg.sender);\r\n            userPredictions[_predictionID][msg.sender] = UserPrediction(payable(msg.sender), msg.value, 0, _prediction, true);\r\n        }\r\n        predictions[_predictionID].totalBalance += msg.value;\r\n        totalPredictionVolume += msg.value;\r\n        \r\n\r\n        emit PredictionMade(\r\n                msg.sender,\r\n                _predictionID,\r\n                msg.value,\r\n                predictions[_predictionID].totalBalance,\r\n                predictions[_predictionID].totalUserNumber,\r\n                totalPredictionVolume\r\n                );\r\n    }\r\n\r\n    function setllePrediction(uint256 _predictionID, bool _settlement) public payable onlyAdmin {\r\n        require(predictions[_predictionID].status == Status.Closed, \"prediction market not closed.\");\r\n        require(_predictionID > 0 && _predictionID <= totalPredictionMarkets.current(), \"invalid prediction ID.\");\r\n        uint256 _predictionBalance = predictions[_predictionID].totalBalance;\r\n        require(_predictionBalance <= (address(this).balance), \"the contract doesn't have enough for payouts.\");\r\n\r\n        uint256 _adminFee = calcFee(_predictionBalance, predictionMarketFee);\r\n        uint256 _payoutSent = 0;\r\n        _predictionBalance -= _adminFee;\r\n        admin.transfer(_adminFee);\r\n\r\n\r\n        if(_settlement) {\r\n            predictions[_predictionID].settlement = Settlement.Yes;\r\n            uint256 endYesBalance = predictions[_predictionID].yesBalance;\r\n            uint256 _usersToPay = predictions[_predictionID].yesUserNumber;\r\n            for(uint256 i = 0; i < _usersToPay; i++) {\r\n                address _currentUser = predictions[_predictionID].yesAddresses[i];\r\n                UserPrediction memory _user = userPredictions[_predictionID][_currentUser];\r\n\r\n                if(_user.hasPredicted && _user.prediction) {\r\n                    uint256 _payoutBP = (_user.predictionAmount * 10000) / endYesBalance;\r\n                    uint256 _payout = (_predictionBalance * _payoutBP) / 10000;\r\n\r\n                    userPredictions[_predictionID][_user.predictor].payoutAmount = _payout;\r\n                    _payoutSent += _payout;\r\n                    payable(_user.predictor).transfer(_payout);\r\n                }\r\n            }\r\n        } else {\r\n            predictions[_predictionID].settlement = Settlement.No;\r\n            uint256 endNoBalance = predictions[_predictionID].noBalance;\r\n            uint256 _usersToPay = predictions[_predictionID].noUserNumber;\r\n\r\n            for(uint256 i = 0; i < _usersToPay; i++) {\r\n                address _currentUser = predictions[_predictionID].noAddresses[i];\r\n                UserPrediction memory _user = userPredictions[_predictionID][_currentUser];\r\n\r\n                if(_user.hasPredicted && !_user.prediction) {\r\n                    uint256 _payoutBP = (_user.predictionAmount * 10000) / endNoBalance;\r\n                    uint256 _payout = (_predictionBalance * _payoutBP) / 10000;\r\n\r\n                    userPredictions[_predictionID][_user.predictor].payoutAmount = _payout;\r\n                    _payoutSent += _payout;\r\n                    payable(_user.predictor).transfer(_payout);\r\n                } \r\n            }\r\n        }\r\n        if(_payoutSent < _predictionBalance) {\r\n            uint256 _remainingBal = _predictionBalance - _payoutSent;\r\n            if(_remainingBal > 0) {\r\n                admin.transfer(_remainingBal);\r\n            }\r\n        }\r\n        \r\n        predictions[_predictionID].status = Status.Settled;\r\n        totalClosedPredictionMarkets.decrement();\r\n        totalSettledPredictionMarkets.increment();\r\n        emit PredictionSettled(\r\n                _predictionID,\r\n                predictions[_predictionID].totalUserNumber,\r\n                predictions[_predictionID].totalBalance,\r\n                predictions[_predictionID].settlement\r\n            );\r\n    }\r\n\r\n    function closePrediction(uint256 _predictionID) public onlyAdmin {\r\n        require(_predictionID > 0 && _predictionID <= totalPredictionMarkets.current(), \"invalid prediction ID.\");\r\n        require(predictions[_predictionID].status == Status.Active, \"prediction market not ACTIVE.\");\r\n        predictions[_predictionID].status = Status.Closed;\r\n        totalActivePredictionMarkets.decrement();\r\n        totalClosedPredictionMarkets.increment();\r\n        emit PredictionClosed(_predictionID, predictions[_predictionID].totalUserNumber, predictions[_predictionID].totalBalance );\r\n    }\r\n\r\n    function fetchAllMarkets() public view returns (PredictionData[] memory) {\r\n        uint256 totalMarkets = totalPredictionMarkets.current();\r\n        uint256 _currentIndex = 0;\r\n        PredictionData[] memory _result = new PredictionData[](totalMarkets);\r\n        for(uint256 i = 1; i <= totalMarkets; i++) {\r\n            uint256 _predictionID = i;\r\n            PredictionData memory _currentPredictionData = predictions[_predictionID];\r\n            _result[_currentIndex] = _currentPredictionData;\r\n            _currentIndex++;\r\n        }\r\n        return _result;\r\n    }\r\n\r\n    function fetchAllActiveMarkets() public view returns (PredictionData[] memory) {\r\n        uint256 activeMarkets = totalActivePredictionMarkets.current();\r\n        uint256 totalMarkets = totalPredictionMarkets.current();\r\n        \r\n        uint256 _currentIndex = 0;\r\n        PredictionData[] memory _result = new PredictionData[](activeMarkets);\r\n        for(uint256 i = 1; i <= totalMarkets; i++) {\r\n            uint256 _predictionID = i;\r\n            bool _active = predictions[_predictionID].status == Status.Active;\r\n            if(_active) {\r\n                PredictionData memory _currentPredictionData = predictions[_predictionID];\r\n                _result[_currentIndex] = _currentPredictionData;\r\n                _currentIndex++;\r\n            }\r\n        }\r\n        return _result;\r\n    }\r\n    function fetchAllClosedMarkets() public view returns (PredictionData[] memory) {\r\n        uint256 totalMarkets = totalPredictionMarkets.current();\r\n        uint256 closedMarkets = totalClosedPredictionMarkets.current();\r\n        uint256 _currentIndex = 0;\r\n        PredictionData[] memory _result = new PredictionData[](closedMarkets);\r\n        for(uint256 i = 1; i <= totalMarkets; i++) {\r\n            uint256 _predictionID = i;\r\n            bool _closed = predictions[_predictionID].status == Status.Closed;\r\n            if(_closed) {\r\n                PredictionData memory _currentPredictionData = predictions[_predictionID];\r\n                _result[_currentIndex] = _currentPredictionData;\r\n                _currentIndex++;\r\n            }\r\n        }\r\n        return _result;\r\n    }\r\n    function fetchAllSettledMarkets() public view returns (PredictionData[] memory) {\r\n        uint256 totalMarkets = totalPredictionMarkets.current();\r\n        uint256 settledMarkets = totalSettledPredictionMarkets.current();\r\n        uint256 _currentIndex = 0;\r\n        PredictionData[] memory _result = new PredictionData[](settledMarkets);\r\n        for(uint256 i = 1; i <= totalMarkets; i++) {\r\n            uint256 _predictionID = i;\r\n            bool _Settled = predictions[_predictionID].status == Status.Settled;\r\n            if(_Settled) {\r\n                PredictionData memory _currentPredictionData = predictions[_predictionID];\r\n                _result[_currentIndex] = _currentPredictionData;\r\n                _currentIndex++;\r\n            }\r\n        }\r\n        return _result;\r\n    }\r\n\r\n    function updateAdmin(address _newAdmin) public onlyAdmin returns (bool){\r\n        admin = payable(_newAdmin);\r\n        return true;\r\n    }\r\n    function updatePredictionMarketFee(uint256 _newPredictionMarketFee) public onlyAdmin returns (bool){\r\n        predictionMarketFee = _newPredictionMarketFee;\r\n        return true;\r\n    }\r\n\r\n    function calcFee(uint256 _amountValue, uint256 _fee) internal pure returns(uint256) {\r\n        // require((_amountValue / 10000) * 10000 == _amountValue, \"too small\");\r\n        uint256 fee = 0;\r\n        if((_amountValue / 10000) * 10000 == _amountValue) {\r\n            _amountValue = _amountValue;\r\n            fee = _amountValue * _fee / 10000;\r\n        }\r\n        return fee;\r\n    }\r\n\r\n    function emergencyWithdrawal(uint256 _predictionID) public payable onlyAdmin {\r\n        require(predictions[_predictionID].status == Status.Closed, \"prediction must be closed.\");\r\n        // require(predictions[_predictionID].status != Status.Settled, \"prediction market has been Settled.\");\r\n        uint256 _yesUsersToPay = predictions[_predictionID].yesUserNumber;\r\n        for(uint256 i = 0; i < _yesUsersToPay; i++) {\r\n            address _currentUser = predictions[_predictionID].yesAddresses[i];\r\n            UserPrediction memory _user = userPredictions[_predictionID][_currentUser];\r\n            if(_user.hasPredicted && _user.prediction) {\r\n                _user.predictor.transfer(_user.predictionAmount);\r\n                userPredictions[_predictionID][_currentUser].predictionAmount = 0;\r\n            }\r\n        }\r\n\r\n        uint256 _noUsersToPay = predictions[_predictionID].noUserNumber;\r\n        for(uint256 i = 0; i < _noUsersToPay; i++) {\r\n            address _currentUser = predictions[_predictionID].noAddresses[i];\r\n            UserPrediction memory _user = userPredictions[_predictionID][_currentUser];\r\n\r\n            if(_user.hasPredicted && !_user.prediction) {\r\n                _user.predictor.transfer(_user.predictionAmount);\r\n                userPredictions[_predictionID][_currentUser].predictionAmount = 0;  \r\n            }\r\n        }\r\n\r\n        if(predictions[_predictionID].status == Status.Closed) {\r\n            totalClosedPredictionMarkets.decrement();\r\n        } \r\n        // else if(predictions[_predictionID].status == Status.Settled) {\r\n        //     totalSettledPredictionMarkets.decrement();\r\n        // }\r\n        totalEmergencyWithdrawPredictionMarkets.increment();\r\n        totalSettledPredictionMarkets.increment();\r\n\r\n        predictions[_predictionID].status = Status.Settled;\r\n        predictions[_predictionID].settlement = Settlement.EmergencyWithdraw;\r\n\r\n        emit EmergencyWithdrawal(\r\n                _predictionID,\r\n                predictions[_predictionID].totalUserNumber,\r\n                predictions[_predictionID].totalBalance\r\n            );\r\n        // predictions[_predictionID].status = Status.EmergencyWithdraw;\r\n        // predictions[_predictionID].settlement = Settlement.EmergencyWithdraw;\r\n    }\r\n    \r\n    function userWithdraw(uint256 _predictionID) public payable {\r\n        require(_predictionID > 0 && _predictionID <= totalPredictionMarkets.current(), \"invalid prediction ID.\");\r\n        require(predictions[_predictionID].status == Status.Active, \"prediction not ACTIVE.\");\r\n        bool _userHasPredicted = userPredictions[_predictionID][msg.sender].hasPredicted;\r\n        require(_userHasPredicted, \"you can only withdraw if you have made an open prediction.\");\r\n\r\n        uint256 _userPredictionAmount = userPredictions[_predictionID][msg.sender].predictionAmount;\r\n        uint256 _userOriginalAmount = userPredictions[_predictionID][msg.sender].predictionAmount;\r\n        uint256 _adminFee = calcFee(_userPredictionAmount, userWithdrawADMINFee);\r\n        uint256 _poolFee = calcFee(_userPredictionAmount, userWithdrawPOOLFee);\r\n        uint256 _totalFees = _adminFee + _poolFee;\r\n\r\n        \r\n        \r\n\r\n        _userPredictionAmount -= _totalFees;\r\n\r\n        admin.transfer(_adminFee);\r\n        payable(msg.sender).transfer(_userPredictionAmount);\r\n\r\n        userPredictions[_predictionID][msg.sender].predictionAmount = 0;\r\n        userPredictions[_predictionID][msg.sender].hasPredicted = false;\r\n        uint256 _deductionFromTotalBalance = _userPredictionAmount + _adminFee;\r\n        predictions[_predictionID].totalBalance -= _deductionFromTotalBalance;\r\n\r\n        if(userPredictions[_predictionID][msg.sender].prediction) {\r\n            // predictions[_predictionID].yesBalance -= _deductionFromTotalBalance;\r\n            predictions[_predictionID].yesBalance -= _userOriginalAmount;\r\n            // predictions[_predictionID].yesUserNumber--;\r\n        } else {\r\n            // predictions[_predictionID].noBalance -= _deductionFromTotalBalance;\r\n            predictions[_predictionID].noBalance -= _userOriginalAmount;\r\n            // predictions[_predictionID].noUserNumber--;\r\n        }\r\n\r\n        emit UserWithdrawal(_predictionID, predictions[_predictionID].totalBalance);\r\n    }\r\n}\r\n",
  "sourcePath": "C:\\Users\\mttca\\coinopolis\\cryptalballz\\src\\backEnd\\contracts\\PredictionOld.sol",
  "compiler": {
    "name": "solc",
    "version": "0.8.7+commit.e28d00a7.Emscripten.clang"
  },
  "schemaVersion": "3.4.4",
  "updatedAt": "2022-06-16T17:10:13.433Z",
  "devdoc": {
    "kind": "dev",
    "methods": {},
    "version": 1
  },
  "userdoc": {
    "kind": "user",
    "methods": {},
    "version": 1
  }
}